:03000000021F617B
:101F610075C7AA75C75575FD5A75C7AA75C7557541
:101F7100FDA5787FE4F6D8FD9000007FFF7E03E4A5
:0C1F8100F0A3DFFCDEFA758107021FC828
:10250800122436121CAC12082C1224F51224E28074
:01251800F2D0
:03000B00021BA92C
:101BA900C0E0C0F0C083C082C0D075D000C0057548
:101BB9008C06758A0090007AE004F0E0FD75F00566
:101BC90084E5F0702590009BE004F030951C9000AE
:101BD90006E0C394FF5003E004F0900006E0D394BC
:101BE900504007900077E04410F0ED75F01984E556
:101BF900F0702D900078E04440F0900077E030E1FB
:101C09001390004EE004F0E0D3941440079000775D
:101C1900E04404F0900077E030E205A3E04402F0EC
:101C290090007AE075F07D84E5F0701C900077E013
:101C390020E405A3E04404F0900077E030E009A334
:101C4900E04404F0E04402F090007AE0D394F940D3
:101C590024E4F0900068E004F0900078E030E004BB
:101C6900E04402F0900077E090007930E405E00468
:101C7900F08002E4F0900068E0D3943B4018E4F06F
:101C890075F01E84E5F07007900078E04410F0903C
:101C99000078E04420F0D005D0D0D082D083D0F0B5
:031CA900D0E03256
:03002300020F6C5D
:100F6C00C0E0C0F0C083C082C0D075D000C000C04B
:100F7C0001C002C003C004C005C006C0072098030E
:100F8C00021297C298900000E0541F705C9000779A
:100F9C00E054F7F0E599B4AA17900000E0FF54E094
:100FAC00FEEF04541F4EF0E0549F4420F0021299BF
:100FBC00E599B4A517900000E0FF54E0FEEF04544F
:100FCC001F4EF0E0549F4440F0021299E5999000B6
:100FDC0000B45512E0FF54E0FEEF04541F4EF0E055
:100FEC004460F0021299021291900000E0C4135474
:100FFC00036401600302109DE0541F64016007E06C
:10100C00541FFFBF021C900000E0FF54E0FEEF54A1
:10101C001FFC04541F4EF0744B2CF582E434000278
:10102C00117C900000E0541F64036003021299E5E8
:10103C0099640D600302129990004CE0FC24AAFE06
:10104C00900067F090004DE06E60030212999000E2
:10105C0000E054E0F0E04480F0EC70099000017482
:10106C003CF002129990004CE05407FF900003E012
:10107C0054076F600302129990004CE0FD13131398
:10108C005407900076F0EDC413135403243C021162
:10109C003B900000E0C41354036402600302114847
:1010AC00E0541F6401600EE0541F64026007E054BA
:1010BC001FFFBF031C900000E0FF54E0FEEF541F25
:1010CC00FC04541F4EF074422CF582E434000211DF
:1010DC007C900000E0541F6404705BE599645A70C6
:1010EC0055900043E0FC24A5FEA3E02EFE90006783
:1010FC00F0900045E06E6003021299900000E054FD
:10110C00E0F0E04480F0EC30E7099000017401F06D
:10111C00021299900043E0FF5407FE900003E05444
:10112C00076E6003021299EF1313135407240290F5
:10113C000001F0021299900000021291900000E060
:10114C00C41354036403600302128EE0541FD3943F
:10115C00004025E0541F9407501EE0FF54E0FEEFC2
:10116C00541FFC04541F4EF074452CF582E43400DB
:10117C00F583E599F0021299900000E0541F640782
:10118C006003021289E59964D06003021289900011
:10119C0046E02455FFA3E02FFFA3E02FFFA3E02F91
:1011AC00FFA3E02FFF900067F090004BE06F60030F
:1011BC00021299900000E054E0F0E04480F09000BE
:1011CC0046E0FF5407FE900003E054076E600302F4
:1011DC001299EF13131354072407FF900047E0757F
:1011EC00F005A42F900001F0900048E0FFE4FCFD16
:1011FC00FE90007B12043690007BE0FCA3E0FDA384
:10120C00E0FEA3E0FF780812042390007B12043662
:10121C0090007BE0F8A3E0F9A3E0FAA3E0FB9000D8
:10122C0049E0FFE4FCFDFEEB2FFFEE3AFEED39FD4D
:10123C00EC38FC90007B12043690007BE0FCA3E0C1
:10124C00FDA3E0FEA3E0FF780812042390007B12BC
:10125C00043690007BE0F8A3E0F9A3E0FAA3E0FBEE
:10126C0090004AE0FFE4FCFDFEEB2FFFEE3AFEEDB2
:10127C0039FDEC38FC90007B120436801090000095
:10128C008003900000E054E0F08002C299D007D0B7
:10129C0006D005D004D003D002D001D000D0D0D0DD
:0812AC0082D083D0F0D0E032C3
:03007B000212B4BA
:1012B400C0E0C0F0C083C082C0D075D000C000C000
:1012C40001C002C003C004C005C006C00720F80363
:1012D4000215DFC2F8900000E0541F705C900077A4
:1012E400E054F7F0E59AB4AA17900000E0FF54E048
:1012F400FEEF04541F4EF0E0549F4420F00215E129
:10130400E59AB4A517900000E0FF54E0FEEF045402
:101314001F4EF0E0549F4440F00215E1E59A90001E
:1013240000B45512E0FF54E0FEEF04541F4EF0E009
:101334004460F00215E10215D9900000E0C4135492
:1013440003640160030213E5E0541F64016007E0D5
:10135400541FFFBF021C900000E0FF54E0FEEF5456
:101364001FFC04541F4EF0744B2CF582E43400022D
:1013740014C4900000E0541F640360030215E1E507
:101384009A640D60030215E190004CE0FC24AAFE6F
:10139400900067F090004DE06E60030215E190004C
:1013A40000E054E0F0E04480F0EC70099000017437
:1013B4003CF00215E190004CE05407FF900003E07C
:1013C40054076F60030215E190004CE0FD13131302
:1013D4005407900076F0EDC413135403243C021414
:1013E40083900000E0C41354036402600302149069
:1013F400E0541F6401600EE0541F64026007E0546F
:101404001FFFBF031C900000E0FF54E0FEEF541FD9
:10141400FC04541F4EF074422CF582E43400021490
:10142400C4900000E0541F6404705BE59A645A7031
:1014340055900043E0FC24A5FEA3E02EFE90006737
:10144400F0900045E06E60030215E1900000E05466
:10145400E0F0E04480F0EC30E7099000017401F022
:101464000215E1900043E0FF5407FE900003E054AE
:10147400076E60030215E1EF13131354072402905F
:101484000001F00215E19000000215D9900000E07F
:10149400C4135403640360030215D6E0541FD394A9
:1014A400004025E0541F9407501EE0FF54E0FEEF77
:1014B400541FFC04541F4EF074452CF582E4340090
:1014C400F583E59AF00215E1900000E0541F6407EB
:1014D40060030215D1E59A64D060030215D190002F
:1014E40046E02455FFA3E02FFFA3E02FFFA3E02F46
:1014F400FFA3E02FFF900067F090004BE06F6003C4
:101504000215E1900000E054E0F0E04480F0900027
:1015140046E0FF5407FE900003E054076E600302A8
:1015240015E1EF13131354072407FF900047E075E8
:10153400F005A42F900001F0900048E0FFE4FCFDCA
:10154400FE90007B12043690007BE0FCA3E0FDA338
:10155400E0FEA3E0FF780812042390007B12043617
:1015640090007BE0F8A3E0F9A3E0FAA3E0FB90008D
:1015740049E0FFE4FCFDFEEB2FFFEE3AFEED39FD02
:10158400EC38FC90007B12043690007BE0FCA3E076
:10159400FDA3E0FEA3E0FF780812042390007B1271
:1015A400043690007BE0F8A3E0F9A3E0FAA3E0FBA3
:1015B40090004AE0FFE4FCFDFEEB2FFFEE3AFEED67
:1015C40039FDEC38FC90007B12043680109000004A
:1015D4008003900000E054E0F08002C2F9D007D00C
:1015E40006D005D004D003D002D001D000D0D0D092
:0815F40082D083D0F0D0E03278
:1024570041007A004100680041004E0041007F00C2
:0424670041007900B7
:08000300C2F98F9A30F9FD22C9
:1022BE00E490007AF090007AE0C3943240F7E4FFA5
:1022CE0012200D900003EFF0C2AF7F411200037F8A
:1022DE00541200037F2B1200037F4E1200037F4126
:1022EE001200037F4D1200037F451200037F571229
:1022FE0000030F1200037F431200037F4C120003F2
:08230E007F4A120003D2AF2246
:1023C20075F85075C40853C4DF759850438780531D
:1023D200C4F843C42043A20475C6FF75C59843C41C
:0923E20008759C01D299D2AC22CD
:1024A90075B11075B28B75B33875B41F75AC01E48D
:0324B900F5AD225C
:1024BC00758901438E08758C06E4F58AD2A9D2AFD2
:0324CC00D28C228D
:07252B0053E8F075F61122E0
:0A251900D294D29375BE09D2C622F7
:1024CF00C2AF75C7AA75C75575AAD7E5AA20E6FB8F
:0324DF00D2AF2257
:10248F00C290C291C280C281C292E490007AF09051
:0A249F000004F0900077F0A3F02293
:102436001224A91224BC12252B12248F90007AE0B4
:10244600C3941940F71223C21225191222BE022480
:01245600CFB6
:1024E200C2AF75C7AA75C75543AA40E5AA20E6FB45
:0324F200D2AF2244
:10002600900091EFF0C007A3E0FCA3E0FDA3E0FE83
:10003600A3E0FF7810120410AD07D0071220AC9091
:100046000091E004FFC007A3E0FCA3E0FDA3E0FEEF
:10005600A3E0FF7808120410AD07D0071220AC9079
:0F0066000091E02402FFA3A3A3A3E0FD0220ACBE
:0B1D9F00900076E075F032A42405FFF0
:061DAA00900091EFF0FB38
:101DB000A312044200000000AF0312200DE4FCFD5A
:101DC000FE900092120436900092E0FCA3E0FDA386
:101DD000E0FEA3E0FF78081204239000921204367C
:101DE000900092E0F8A3E0F9A3E0FAA3E0FBC000C2
:101DF000C001C002C003900091E004FF12200DE476
:101E0000FCFDFED003D002D001D000EB2FFFEE3A54
:101E1000FEED39FDEC38FC900092120436900092F1
:101E2000E0FCA3E0FDA3E0FEA3E0FF78081204239A
:101E3000900092120436900092E0F8A3E0F9A3E03B
:101E4000FAA3E0FBC000C001C002C003900091E013
:101E50002402FF12200DE4FCFDFED003D002D001CD
:101E6000D000EB2FFFEE3AFEED39FDEC38FC900090
:101E700092120436900092E0FCA3E0FDA3E0FEA3E2
:021E8000E0FF81
:011E8200223D
:0A15FC0090008FEDF090008EEFF0EC
:10160600E4900090F0C00790007BE0FCA3E0FDA30F
:10161600E0FEA3E0FF900092120436D007120026E7
:1016260090008EE02403FFC007900072E0FCA3E068
:10163600FDA3E0FEA3E0FF900092120436D007124D
:10164600002690008EE0FF121DAA90008FE025E094
:1016560025E0240BF582E43400F58312043690006D
:101666008EE02403FF121DAA90008FE0FB25E025E3
:10167600E02427F582E43400F583120436EB25E0F6
:1016860025E0240BF582E43400F583E0FCA3E0FDBD
:10169600A3E0FEA3E0FF90007BE0F8A3E0F9A3E05F
:1016A600FAA3E0FBC31203FF600302190090008F48
:1016B600E0FF6401701BEF25E025E0240BF582E4D2
:1016C6003400F583E0FCA3E0FDA3E0FEA3E0FF8089
:1016D6004190008FE0FF25E025E02407F582E43401
:1016E60000F583E0F8A3E0F9A3E0FAA3E0FBEF2519
:1016F600E025E0240BF582E43400F583E0FCA3E06A
:10170600FDA3E0FEA3E0C39BFFEE9AFEED99FDEC80
:1017160098FCE412031C90008FE0FB25E025E024F2
:101726004BF582E43400F583120436EB25E025E020
:10173600244BF582E43400F583C083C082E0FCA329
:10174600E0FDA3E0FEA3E0FFC004C005C006C0079D
:1017560090008FE0FF25E025E02423F582E43400A5
:10176600F583E0F8A3E0F9A3E0FAA3E0FBEF25E0B8
:1017760025E02427F582E43400F583E0FCA3E0FDB0
:10178600A3E0FEA3E0C39BFFEE9AFEED99FDEC9865
:10179600FCE412031CA804A905AA06AB07D007D0CF
:1017A60006D005D00412027FD082D083120436E41C
:1017B6007F64FEFDFC900007E0F8A3E0F9A3E0FAE1
:1017C600A3E0FBD31203FF50089000697404F08075
:1017D60068E47FE87E03FDFC900007E0F8A3E0F9EB
:1017E600A3E0FAA3E0FBD31203FF5008900069744C
:1017F60003F08045E47F107E27FDFC900007E0F8AB
:10180600A3E0F9A3E0FAA3E0FBD31203FF500280A2
:101816001BE47F107E27FDFC900007E0F8A3E0F9AB
:10182600A3E0FAA3E0FBD31203FF5008900069740B
:1018360002F08005E4900069F07FAA120003900090
:101846008FE0F925E025E0240BF582E43400F583EA
:10185600E0FCA3E0FDA3E0FEA3E0FF781012041075
:10186600AB07EB24AAFAE925E025E0240FF582E48C
:101876003400F583E0FCA3E0FDA3E0FEA3E0FF78DF
:1018860008120410EA2FFAE925E025E0240BF58278
:10189600E43400F583A3A3A3E02AFF900069E02FB8
:1018A600900067F0AF0312000390008FE025E0255B
:1018B600E0240BF582E43400F583E0FCA3E0FDA30D
:1018C600E0FEA3E0FF780812041012000390008FD8
:1018D600E025E025E0240BF582E43400F583A3A39C
:1018E600A3E0FF120003900069E0FF1200039000DE
:0F18F60067E0FF1200037F0D80027F4E12000398
:0119050022BF
:102316007FAA120003900072E0FCA3E0FDA3E0FE9A
:10232600A3E0FF7810120410120003900072E0FC84
:10233600A3E0FDA3E0FEA3E0FF780812041012005C
:1023460003900072A3A3A3E0FF120003900069E0CC
:09235600FF1200037F0D020003D9
:100BDE00E490008FF0900076E075F032A404FF12DE
:100BEE00200D900084EFF0E01313540390007FF07B
:100BFE00900076E075F032A42402FF121DAA900038
:100C0E0007120436121D9F90000B120436900076C8
:100C1E00E075F032A42408FF121DAA9000271204DA
:100C2E0036900076E075F032A4240BFF121DAA90C8
:100C3E00000F120436900076E075F032A4240EFFF9
:100C4E00121DAA90002B120436900076E075F03239
:100C5E00A42411FF121DAA900013120436900076E0
:100C6E00E075F032A42414FF121DAA90002F120476
:100C7E0036900076E075F032A42417FF121DAA906C
:100C8E000017120436900076E075F032A4241AFF95
:100C9E00121DAA900033120436900076E075F032E1
:100CAE00A4241DFF121DAA90001B1204369000767C
:100CBE00E075F032A42420FF121DAA900037120412
:100CCE0036900076E075F032A42423FF121DAA9010
:100CDE00001F120436900076E075F032A42426FF31
:100CEE00121DAA90003B120436900076E075F03289
:100CFE00A42429FF121DAA90002312043690007618
:100D0E00E075F032A4242CFF121DAA90003F1204AD
:100D1E0036900027E0FCA3E0FDA3E0FEA3E0FFA3D6
:100D2E00E0F8A3E0F9A3E0FAA3E0FBD31203FF403F
:100D3E007090000FE0FCA3E0FDA3E0FEA3E0FFE453
:100D4E0012031C90004F12043690004FE0FCA3E0FB
:100D5E00FDA3E0FEA3E0FFC004C005C006C00790DF
:100D6E000027E0F8A3E0F9A3E0FAA3E0FBA3E0FC80
:100D7E00A3E0FDA3E0FEA3E0C39BFFEE9AFEED9978
:100D8E00FDEC98FCE412031CA804A905AA06AB0707
:100D9E00D007D006D005D00412027F90004F120467
:100DAE003690008F7401F090008FE0FFC3940640E0
:100DBE0003020EE4EF25E025E02427F582E434005B
:100DCE00F583E0F8A3E0F9A3E0FAA3E0FBEF25E05A
:100DDE0025E0242BF582E43400F583E0FCA3E0FD4E
:100DEE00A3E0FEA3E0FFC31203FF4003020EDB905D
:100DFE00008FE0FF25E025E0240BF582E43400F5BA
:100E0E0083E0F8A3E0F9A3E0FAA3E0FBEF25E025E9
:100E1E00E0240FF582E43400F583E0FCA3E0FDA3AB
:100E2E00E0FEA3E0C39BFFEE9AFEED99FDEC98FC6D
:100E3E00E412031C90008FE0FB25E025E0244FF523
:100E4E0082E43400F583120436EB25E025E0244FCE
:100E5E00F582E43400F583C083C082E0FCA3E0FD9C
:100E6E00A3E0FEA3E0FFC004C005C006C0079000CB
:100E7E008FE0FF25E025E02427F582E43400F5839A
:100E8E00E0F8A3E0F9A3E0FAA3E0FBEF25E025E00C
:100E9E00242BF582E43400F583E0FCA3E0FDA3E00F
:100EAE00FEA3E0C39BFFEE9AFEED99FDEC98FCE4E9
:100EBE0012031CA804A905AA06AB07D007D006D0BA
:100ECE0005D00412027FD082D08312043690008F98
:100EDE00E004F0020DB5E47F64FEFDFC900007E037
:100EEE00F8A3E0F9A3E0FAA3E0FBD31203FF500747
:100EFE009000697404F022E47FE87E03FDFC90000C
:100F0E0007E0F8A3E0F9A3E0FAA3E0FBD31203FF96
:100F1E0050079000697403F022E47F107E27FDFCD9
:100F2E00900007E0F8A3E0F9A3E0FAA3E0FBD312E8
:100F3E0003FF5002801BE47F107E27FDFC9000070C
:100F4E00E0F8A3E0F9A3E0FAA3E0FBD31203FF500D
:0D0F5E00079000697402F022E4900069F031
:010F6B002263
:101E8300900027E0FCA3E0FDA3E0FEA3E0FF9000A9
:101E930072E0F8A3E0F9A3E0FAA3E0FBD31203FF97
:101EA3004027900027E0F8A3E0F9A3E0FAA3E0FBC2
:101EB300900072E0FCA3E0FDA3E0FEA3E09BFFEE35
:101EC3009AFEED99FDEC988033900072E0F8A3E060
:101ED300F9A3E0FAA3E0FB900027E0FCA3E0FDA355
:101EE300E0FEA3E0C39BFFEE9AFEED99FDEC98FCA8
:101EF300E42FFFE43EFEED3480FDE43CFC90007BE8
:101F0300120436900076E075F032A42405FFC00772
:101F130090007BE0FCA3E0FDA3E0FEA3E0FF9000C4
:101F230092120436D007120026121D9F90000B1246
:101F3300043690007BE0FCA3E0FDA3E0FEA3E0FFFA
:101F430090000BE0F8A3E0F9A3E0FAA3E0FBC312CF
:0E1F530003FF70047F5980027F4E12000322AC
:10190600E490008EF0120BDE900007E0FCA3E0FDF1
:10191600A3E0FEA3E0FF7810120410EF24AAFB90C8
:101926000007E0FCA3E0FDA3E0FEA3E0FF780812B9
:101936000410EB2FFB900007A3A3A3E02BFF90005E
:1019460084E02F900067F07FAA120003900084E0E5
:10195600FF120003900007E0FCA3E0FDA3E0FEA356
:10196600E0FF7810120410120003900007E0FCA3B9
:10197600E0FDA3E0FEA3E0FF7808120410120003C6
:10198600900007A3A3A3E0FF120003E490008EF0EB
:1019960090008EE0F9C394064003021A4CE0FB2542
:1019A600E025E0240FF582E43400F583E0FCA3E0B3
:1019B600FDA3E0FEA3E0FF7808120410AA07EB25BA
:1019C600E025E0240FF582E43400F583E0FCA3E093
:1019D600FDA3E0FEA3E0FF7810120410AB07EB2A8C
:1019E600FAE925E025E0240FF582E43400F583A327
:1019F600A3A3E02AFF900067E02FF0AF03120003D5
:101A060090008EE025E025E0240FF582E43400F511
:101A160083E0FCA3E0FDA3E0FEA3E0FF7808120448
:101A26001012000390008EE025E025E0240FF582D9
:101A3600E43400F583A3A3A3E0FF12000390008E15
:101A4600E004F0021996900067E0FF1200037F0D94
:031A560002000388
:10082C00900000E020E703020BDDE0547FF0900025
:10083C0001E0FFD394005003020BDDC2AFEFB43FD5
:10084C0006121E83020BD6900001E0643C701B7FE5
:10085C00AA120003900003E05407FF12000390005B
:10086C0003E0540724AAFF020A76900001E0B43D8D
:10087C0006121906020BD6900001E0FDB43E0A9058
:10088C000077E04408F0020BD6ED6401702690006E
:10089C0044E0FDE4FF1220ACE4FF12200D900003B5
:1008AC00EFF0900044E0FF900003E0B50703020B6B
:1008BC0045020A7E900001E0FFC394075046EF7595
:1008CC00F032A4249DFF900044E0FD1220AC900077
:1008DC0001E075F032A4249DFF12200D900084EFEE
:1008EC00F0900044E0FF900084E0B507147F5912AB
:1008FC000003900084E01313540390007FF0020B6C
:10090C00D6020A7E900001E0FFC3940C4003020A59
:10091C0083EF75F032A424A4FFC00790007BE0FCA9
:10092C00A3E0FDA3E0FEA3E0FF900092120436D0FA
:10093C0007120026900001E075F032A424A4FF12E7
:10094C001DAA90000712043690007BE0FCA3E0FD8A
:10095C00A3E0FEA3E0FF900007E0F8A3E0F9A3E01A
:10096C00FAA3E0FBC31203FF6003020A7E7F64FE5E
:10097C00FDFC900007E0F8A3A3A3E0D31203FF5003
:10098C00089000697404F08068E47FE87E03FDFC45
:10099C00900007E0F8A3E0F9A3E0FAA3E0FBD31280
:1009AC0003FF50089000697403F08045E47F107ECB
:1009BC0027FDFC900007E0F8A3E0F9A3E0FAA3E020
:1009CC00FBD31203FF5002801BE47F107E27FDFC3B
:1009DC00900007E0F8A3E0F9A3E0FAA3E0FBD31240
:1009EC0003FF50089000697402F08005E4900069E0
:1009FC00F07FAA120003900007E0FCA3E0FDA3E047
:100A0C00FEA3E0FF7810120410AB07EB24AAFA90B7
:100A1C000007E0FCA3E0FDA3E0FEA3E0FF780812D2
:100A2C000410EA2FFA900007A3A3A3E02AFF90007A
:100A3C0069E02F900067F0AF03120003900007E00D
:100A4C00FCA3E0FDA3E0FEA3E0FF78081204101263
:100A5C000003900007A3A3A3E0FF1200039000691A
:100A6C00E0FF120003900067E0FF1200037F0D020D
:100A7C000B4B7F4E020B4B900001E0FFC3941140D7
:100A8C0003020B51EF75F032A424ADFFC0079000A8
:100A9C009212044200000000D007120026900001C0
:100AAC00E075F032A424ADFF121DAA90000B1204C5
:100ABC0036900072E0FCA3E0FDA3E0FEA3E0FF9003
:100ACC00006E120436900001E075F032A424B0FFE1
:100ADC00C00790006EE0FCA3E0FDA3E0FEA3E0FFE6
:100AEC00900092120436D007120026900001E07597
:100AFC00F032A424B0FF121DAA90002712043690E5
:100B0C00006EE0FCA3E0FDA3E0FEA3E0FF90002755
:100B1C00E0F8A3E0F9A3E0FAA3E0FBC31203FF7033
:100B2C001CFFFEFDFC90000BE0F8A3E0F9A3E0FA3B
:100B3C00A3E0FBC31203FF70047F5980027F4E12A7
:100B4C000003020BD6900001E0FFC39416500CEF8B
:100B5C0075F032A424B9FF7D01806C900001E0FF98
:100B6C00C3941B500CEF75F032A424C5FF7D02809A
:100B7C0056900001E0FFC39420500CEF75F032A4A6
:100B8C0024D1FF7D038040900001E0FFC3942550E9
:100B9C000CEF75F032A424DDFF7D04802A90000157
:100BAC00E0FFC3942A500CEF75F032A424E9FF7DCA
:100BBC00058014900001E0FFC3942F500DEF75F0E9
:100BCC0032A424F5FF7D061215FCE4900001F0D24E
:020BDC00AF2246
:1004730090000BA3E0FDA3A3E4FFFEED5480FDE495
:10048300FCFBFAF9F8C31203FF90000B5028A3E01A
:10049300FDA3E0FEA3E0FFED547FFDE4FC900072BA
:1004A300E0F8A3E0F9A3E0FAA3E02FFFEA3EFEE9B8
:1004B3003DFDEC388023E0F8A3E0F9A3E0FAA3E0E4
:1004C300FB900072E0FCA3E0FDA3E0FEA3E0C39B6E
:1004D300FFEE9AFEED99FDEC98FC90008012043635
:1004E300900027E0FCA3E0FDA3E0FEA3E0FF900063
:1004F30080E0F8A3E0F9A3E0FAA3E0FBC31203FF53
:100503005052900080E0F8900027E0FCA3E0FDA3A8
:10051300E0FEA3E0C39BFFEE9AFEED99FDEC98FC91
:10052300E412031C90004FE0F8A3E0F9A3E0FAA360
:10053300E0FB12017612035A90006A12043690000F
:100543006AE0FCA3E0FDA3E0FEA3E0FFED4480FD31
:10055300EC02082590002BE0FCA3E0FDA3E0FEA342
:10056300E0FF900080E0F8A3E0F9A3E0FAA3E0FB4A
:10057300C31203FF5042900027E0F8A3E0F9A3E081
:10058300FAA3E0FB900080E0FCA3E0FDA3E0FEA360
:10059300E0C39BFFEE9AFEED99FDEC98FCE4120399
:1005A3001C90004FE0F8A3E0F9A3E0FAA3E0FB12EC
:1005B300017612035A02082590002FE0FCA3E0FD08
:1005C300A3E0FEA3E0FF900080E0F8A3E0F9A3E03E
:1005D300FAA3E0FBC31203FF506790002BE0F8A3DC
:1005E300E0F9A3E0FAA3E0FB900080E0FCA3E0FDC8
:1005F300A3E0FEA3E0C39BFFEE9AFEED99FDEC980A
:10060300FCE412031C900053E0F8A3E0F9A3E0FA22
:10061300A3E0FB120176C004C005C006C00790002A
:100623000FE0FCA3E0FDA3E0FEA3E0FFE412031C44
:10063300D003D002D001D00012008512035A020861
:1006430025900033E0FCA3E0FDA3E0FEA3E0FF90D0
:100653000080E0F8A3E0F9A3E0FAA3E0FBC31203F0
:10066300FF506790002FE0F8A3E0F9A3E0FAA3E0BE
:10067300FB900080E0FCA3E0FDA3E0FEA3E0C39BAE
:10068300FFEE9AFEED99FDEC98FCE412031C90003A
:1006930057E0F8A3E0F9A3E0FAA3E0FB120176C068
:1006A30004C005C006C007900013E0FCA3E0FDA34F
:1006B300E0FEA3E0FFE412031CD003D002D001D07C
:1006C3000012008512035A020825900037E0FCA3AC
:1006D300E0FDA3E0FEA3E0FF900080E0F8A3E0F9D3
:1006E300A3E0FAA3E0FBC31203FF5067900033E0DB
:1006F300F8A3E0F9A3E0FAA3E0FB900080E0FCA3F9
:10070300E0FDA3E0FEA3E0C39BFFEE9AFEED99FD9F
:10071300EC98FCE412031C90005BE0F8A3E0F9A35F
:10072300E0FAA3E0FB120176C004C005C006C007CF
:10073300900017E0FCA3E0FDA3E0FEA3E0FFE412BA
:10074300031CD003D002D001D00012008512035A3B
:1007530002082590003BE0FCA3E0FDA3E0FEA3E03C
:10076300FF900080E0F8A3E0F9A3E0FAA3E0FBC365
:100773001203FF5049900037E0F8A3E0F9A3E0FA31
:10078300A3E0FB900080E0FCA3E0FDA3E0FEA3E078
:10079300C39BFFEE9AFEED99FDEC98FCE412031C5B
:1007A30090005FE0F8A3E0F9A3E0FAA3E0FB1201F5
:1007B30076C004C005C006C00790001B80479000A8
:1007C3003BE0F8A3E0F9A3E0FAA3E0FB900080E0AC
:1007D300FCA3E0FDA3E0FEA3E0C39BFFEE9AFEEDC6
:1007E30099FDEC98FCE412031C900063E0F8A3E08D
:1007F300F9A3E0FAA3E0FB120176C004C005C0062A
:10080300C00790001FE0FCA3E0FDA3E0FEA3E0FF10
:10081300E412031CD003D002D001D00012008512D1
:09082300035A90006A1204362207
:1021480020950CE4900006F0900077E054EFF090B2
:102158000077E020E03BE020E417A3E030E206E06F
:1021680054FBF0B290900078E0547FF0C281C292A4
:1021780022900078E020E716E04480F0D292E490C4
:10218800007AF090007AE0C3941440F7D281D2909C
:1021980022900078E030E206E054FBF0B290900024
:1021A80078E030E106E054FDF0B291900078E0204C
:1021B800E716E04480F0D292E490007AF090007A3A
:0921C800E0C3941440F7D2812217
:10241300900078E020E00B900077E020E204E030C9
:10242300E00E900078E030E109E054FDF0B2912233
:03243300D2912221
:1023EB00900005E030E404E020E509900079E0D3AB
:1023FB0094F040139000047401F0C290C291C2801B
:08240B00900005E054DFF0220F
:1021D100900005E030E407209104D280D291900074
:1021E10005E030E42130B01EE054EFF0E490007AD5
:1021F100F090007AE0C3941440F79000047402F068
:10220100900068743AF0900005E030E614E030E5A3
:1022110010900077E04401F0900005E054DFF0D227
:1022210090900005E030E62130B01EE054BFF0E4AC
:1022310090007AF090007AE0C3941440F790000483
:0A2241007402F0900068743AF02275
:10239300900077E020E21EA3E030E61DE054BFF09A
:1023A300308116121A59120473900077E030E30952
:0F23B3001223168004C292C2811221480223EB2A
:1024F500900004E024FE6007240270060221D11238
:03250500239322FB
:04246B0041009B0091
:101CAC00900005E0540714603F1460671470030241
:101CBC001D5B147003021D81147003021D97240513
:101CCC006003021D9E900005E054F820B0184401FA
:101CDC00F0E490009BF0900005E054F7F0E054EF36
:101CEC00F0E054DFF022F02290009BE0D3940250FD
:101CFC0003021D9E900005E054F820B0144402F03D
:101D0C00E490009BF0900005E04408F0E04420F0E3
:101D1C0022F02290009BE0D39402401130B00E9040
:101D2C000005E054F84403F0E490009BF090009B15
:101D3C00E0D39446405C20B059900005E054F84440
:101D4C0003F0E490009BF0900005E04410F022902A
:101D5C00009BE0FDD39405403930B0028023EDD3D5
:101D6C0094D2402E20B02B900005E054F84404F09F
:101D7C00E04440F02290009BE0D39405401430B036
:101D8C0011900005E054F84405F022900005E05451
:031D9C00F8F0223A
:04246F0041008D009B
:10000E0000000000000000000000000000000000E2
:05001E000000000022BB
:101A5900C28390008512044200000000308409907E
:101A69000077E04402F080F4900077E054FDF0E064
:101A790054FBF0E490004EF090008DF0900085E06A
:101A8900FCA3E0FDA3E0FEA3E0FF7801120423908C
:101A99000085120436D28312000E30841790008517
:101AA900E0FCA3E0FDA3E0FEA3E04401FFEC90000D
:101AB90085120436C28312000E90008DE004F0E016
:101AC900C3941840B7D28312000EC283900078E005
:101AD90030E40EE054EFF012000ED28312000EC271
:101AE90083900085E0FCA3E0FDA3E0FEA3E0FFED09
:101AF9006480FDEC900085120436900072E0FCA32E
:101B0900E0FDA3E0FEA3E0FF9000891204369000F7
:101B190085E0FCA3E0FDA3E0FEA3E0FF90007FE0E9
:101B29002404F9F81204109000721204369000721D
:101B3900E0FCA3E0FDA3E0FEA3E0FBAA06A905A83B
:101B490004900089E0FCA3E0FDA3E0FEA3E0C39BB1
:101B5900FFEE9AFEED99FDEC98FC122523E47B0239
:101B6900FAF9F8D31203E94036900089E0FCA3E0C2
:101B7900FDA3E0FEA3E0FF900072E0F8A3E0F9A363
:101B8900E0FAA3E0FBD31203FF4014900089E0FCC4
:101B9900A3E0FDA3E0FEA3E0FF9000721204362249
:10235F0053E8F0EF42E843E101C2EFD2EE30EFFD78
:10236F00AFC27E00EF7802CEC313CE13D8F9FDAC07
:10237F0006AFC3EF75F004A42DFDE5F03C53E1FE6D
:03238F00FEAF0599
:012392002228
:10224B00900078E030E56BE054DFF0E4FF12235FA1
:10225B00900096EEF0A3EFF07F0412235FA3EEF055
:10226B00A3EFF0900096E0FCA3E0FDC39430EC9458
:10227B0002400E900099E09430900098E094025048
:10228B000B900078E020E004E04401F0900078E04F
:10229B0030E01FD3ED9444EC94024016D39000979A
:1022AB00E09444900096E094024007900078E0544C
:0322BB00FEF02210
:10247400E5BD7016900078E04408F0D2C4C2C330C1
:0B248400C308C2C6D2C6C2C3C2C62233
:10200D00D2C5C2C330C3FDE5BD640860028060C2A5
:10201D00C575BCA0C2C330C3FDE5BD6418600280A8
:10202D004E8FBCC2C330C3FDE5BD64286002803F46
:10203D00D2C5C2C330C3FDE5BD641060028030C29D
:10204D00C575BCA1C2C330C3FDE5BD64406002804F
:10205D001ED2C2C2C330C3FDE5BD64506002800F05
:10206D00AEBCC2C2C2C330C3FDE5BD6458600990A9
:10207D000078E04408F08011C2C3D2C430C40A1203
:10208D002474900078E030E3F3900078E030E30CB6
:0E209D00122474900078E054F7F0AEBDAF0648
:0120AB002212
:1020AC00D2C5C2C330C3FDE5BD640860028052C214
:1020BC00C575BCA0C2C330C3FDE5BD641860028009
:1020CC00408FBCC2C330C3FDE5BD642860028031C3
:1020DC00AF058FBCC2C330C3FDE5BD642860028070
:1020EC0020D2C4C2C330C40C122474900078E030E7
:1020FC00E3F38036D2C5C2C330C3FDE5BD640860CE
:10210C0009900078E04408F08020C2C575BCA0C2DC
:10211C00C330C3FDE5BDB418C8D2C4C2C330C40AB1
:10212C00122474900078E030E3F3900078E030E310
:0B213C000A122474900078E054F7F0C1
:012147002275
:10007E000203C6E86480F8E933E83360110460F0E7
:10008E00ED33EC337009E8FCE9FDEAFEEBFF2204E8
:10009E0060DED3EB9FEA9EE99DE8C2E78CF0C2F7E3
:1000AE0095F0400CE8CCF8E9CDF9EACEFAEBCFFBAF
:1000BE0012039185D0F05804700320D5B3E8047074
:1000CE00075002B2D50203D092D5EC0460F7E4CC0F
:1000DE00C0E0C398F8603B94186008400DD0E0FB78
:1000EE000203A8E4FBFAC9FC8028E830E406E4C960
:1000FE00FBE4CAFCE830E305E4C9CACBFCE85407CC
:10010E006010F8C3E913F9EA13FAEB13FBEC13FCD6
:10011E00D8F130F52FC3E49CFCEF9BFFEE9AFEED79
:10012E0099FDD0E0FBEF4E4D4C701222DB03020323
:10013E00CDEC2CFCEF33FFEE33FEED33FDED30E76F
:10014E00EB0203A8EF2BFFEE3AFEED39FDD0E0FBFC
:10015E0050130BBB00030203D0ED13FDEE13FEEFA5
:08016E0013FFEC13FC0203A8CF
:10017600EC4D6011E8497017ED33EC3304600DE483
:10018600FCFFFEFD22E933E8330470F80203C612D1
:10019600039158046009E4CC2481500628500902D2
:1001A60003D02840030203CDC0E0EB4A7044B98077
:1001B60006D0E0FB0203BCEF4E701CBD8008EBFFCF
:1001C600EAFEE9FD80EBE98DF0A4FEE5F002025FB0
:1001D600E9CDF9EAFEEBFFEF89F0A4FCE5F0CE8964
:1001E600F0A42EFFE435F0CD89F0A42DFEE435F021
:1001F6008067EF4E7005BD80D780C3EF8BF0A4AC4F
:10020600F0EE8BF0A42CFCE435F0F8EF8AF0A42C89
:10021600E5F038FCE433CB8DF0A42CFCE5F03BF89C
:10022600EE8AF0A42CFCE5F038F8E433CF89F0A48C
:100236002CFCE5F038CF3400CE89F0A42FFFE5F092
:100246003EFEE433C98DF0A42EFEE5F039CD8AF0EA
:10025600A42FFFE5F03EFEE43DFD33D0E0FB500762
:100266000BBB000F0203D0EC2CFCEF33FFEE33FE8A
:06027600ED33FD0203A8B8
:10027C000203D0EC5D046005E8590470030203C668
:10028C00120391580460F6EC4860F2EC7004FDFE29
:10029C00FF22C860DB2481C85009C3986002500655
:1002AC000203CD9850CAF582E9294B4A7005AB82FE
:1002BC000203BC75F0007C1A7880C3EF9BEE9AEDBC
:1002CC0099400DC3EF9BFFEE9AFEED99FDE842F0CD
:1002DC00DC23ACF0D0E0FFD0E0FED0E0FDAB822020
:1002EC00E7101BEB60BAEC2CFCEF33FFEE33FEEDAA
:1002FC0033FD0203A8E803F830E705C0F075F00001
:10030C00EF2FFFEE33FEED33FD40B830E7C280AA8D
:10031C0075F020800E75F010800575F0087D007E5C
:10032C00007F003392D530D5031203DBEC33401041
:10033C00EF33FFEE33FEED33FDEC33FCD5F0ED2265
:0E034C00E5F0247EA2D513CC92E7CDCEFF22A1
:10035A00EDD2E7CD33EC3392D524814006E4FFFE9B
:10036A00FDFC22FCE4CFCECDCC24E0501174FF80FA
:10037A00EDC3CC13CCCD13CDCE13CECF13CF047097
:07038A00F030D5DE0203DBB9
:10039100E9D2E7C933E833F892D5EDD2E7CD33ECB2
:0703A10033FC5002B2D5222B
:1003A800EC30E7100FBF000C0EBE00080DBD0004B6
:1003B8000BEB6014A2D5EB13FCED92E7FD2274FF62
:1003C800FCFDFEFF22E480F8A2D574FF13FC7D80BB
:0303D800E480EFCF
:101F8D00022508E493A3F8E493A34003F68001F23D
:101F9D0008DFF48029E493A3F85407240CC8C33355
:101FAD00C4540F4420C8834004F456800146F6DF24
:101FBD00E4800B0102040810204080902457E47E39
:101FCD00019360BCA3FF543F30E509541FFEE49319
:101FDD00A360010ECF54C025E060A840B8E493A3E0
:101FED00FAE493A3F8E493A3C8C582C8CAC583CA0B
:101FFD00F0A3C8C582C8CAC583CADFE9DEE780BEC3
:012473000068
:0E03DB00C3E49FFFE49EFEE49DFDE49CFC2233
:1003E900EB9FF5F0EA9E42F0E99D42F0EC6480C88B
:0603F90064809845F0222B
:1003FF00EB9FF5F0EA9E42F0E99D42F0E89C45F054
:01040F0022CA
:10041000E8600FECC313FCED13FDEE13FEEF13FFCA
:03042000D8F122EE
:10042300E8600FEFC333FFEE33FEED33FDEC33FC37
:03043300D8F122DB
:0C043600ECF0A3EDF0A3EEF0A3EFF02239
:10044200A8828583F0D083D08212045912045912F3
:100452000459120459E473E493A3C583C5F0C58318
:10046200C8C582C8F0A3C583C5F0C583C8C582C804
:010472002267
:08252300EC30E7031203DB2298
:00000001FF
