:030000000215ECFA
:1015EC0075C7AA75C75575FD5A75C7AA75C75575C0
:1015FC00FDA5787FE4F6D8FD9000007FFF7E03E424
:0C160C00F0A3DFFCDEFA75810702165324
:0E1B3800121A80121254120B77121B1680F52F
:03000B0002142BB1
:10142B00C0E0C0F0C083C082C0D075D000C00775CB
:10143B008C06758A00900079E004F0E0FF75F005EA
:10144B0084E5F0700690009AE004F0EF75F01984D3
:10145B00E5F0702D900077E04440F0900076E0309E
:10146B00E11390004DE004F0E0D39414400790009A
:10147B0076E04404F0900076E030E205A3E044020D
:10148B00F0900079E075F07D84E5F0701A209507F7
:10149B00900077E04404F0900076E030E009A3E0A0
:1014AB004404F0E04402F0900079E0D394F940203A
:1014BB00E4F0900067E004F0900077E030E004E0A7
:1014CB004402F0900078209505E004F08002E4F0EF
:1014DB00900067E0FFD3943B401CEF75F00584E56B
:1014EB00F07007900076E04410F0900067E4F09005
:1014FB000077E04420F0D007D0D0D082D083D0F05A
:03150B00D0E032FB
:030023000219635C
:10196300C0E0C0F0C083C082C0D075D000C000C04A
:1019730001C002C003C004C005C006C007309809F7
:10198300C298AF991200038002C299D007D006D043
:1019930005D004D003D002D001D000D0D0D082D063
:0619A30083D0F0D0E03219
:03007B0002191C4B
:10191C00C0E0C0F0C083C082C0D075D000C000C091
:10192C0001C002C003C004C005C006C00730F807E0
:10193C00C2F8AF9A121B5030F902C2F9D007D00688
:10194C00D005D004D003D002D001D000D0D0D082AA
:07195C00D083D0F0D0E0328F
:101A9E00410079004100670041004D0041007E0089
:041AAE00410078007B
:08000300C2F98F9A30F9FD22C9
:081B5000C2998F993099FD2222
:0F1B2900E4900079F0900079E0C3943240F72205
:101A0C0075F85075C40853C4DF75985043878053DC
:101A1C00C4F843C42043A20475C6FF75C59843C4DB
:091A2C0008759C01D299D2AC228C
:101AF00075B11075B28B75B33875B41F75AC01E450
:031B0000F5AD221E
:101B0300758901438E08758C06E4F58AD2A9D2AF94
:031B1300D28C224F
:071B600053E8F075F61122B5
:0A1B4600D294D29375BE09D2C622D4
:101AD600C290C291C280C281C292E4900079F09015
:0A1AE6000004F0900076F0A3F02257
:101A8000121AF0121B03121B60121AD6900079E092
:0E1A9000C3941940F7121A0C121B46021B29B0
:10002600900090EFF0C007A3E0FCA3E0FDA3E0FE84
:10003600A3E0FF7810120410AD07D007121737900F
:100046000090E004FFC007A3E0FCA3E0FDA3E0FEF0
:10005600A3E0FF7808120410AD07D00712173790F7
:0F0066000090E02402FFA3A3A3A3E0FD0217373D
:0B134700900075E075F032A42405FF53
:06135200900090EFF0FB9B
:10135800A312044200000000AF03121698E4FCFD3B
:10136800FE900091120436900091E0FCA3E0FDA3EA
:10137800E0FEA3E0FF7808120423900091120436DF
:10138800900091E0F8A3E0F9A3E0FAA3E0FBC00025
:10139800C001C002C003900090E004FF121698E458
:1013A800FCFDFED003D002D001D000EB2FFFEE3AB7
:1013B800FEED39FDEC38FC90009112043690009156
:1013C800E0FCA3E0FDA3E0FEA3E0FF7808120423FD
:1013D800900091120436900091E0F8A3E0F9A3E0A0
:1013E800FAA3E0FBC000C001C002C003900090E077
:1013F8002402FF121698E4FCFDFED003D002D001AF
:10140800D000EB2FFFEE3AFEED39FDEC38FC9000F2
:1014180091120436900091E0FCA3E0FDA3E0FEA346
:02142800E0FFE3
:01142A00229F
:0A0ECC0090008EEDF090008DEFF025
:100ED600E490008FF0C00790007AE0FCA3E0FDA349
:100EE600E0FEA3E0FF900091120436D00712002620
:100EF60090008DE02403FFC007900071E0FCA3E0A2
:100F0600FDA3E0FEA3E0FF900091120436D0071285
:100F1600002690008DE0FF12135290008EE025E02F
:100F260025E0240AF582E43400F5831204369000A5
:100F36008DE02403FF12135290008EE0FB25E0257E
:100F4600E02426F582E43400F583120436EB25E02E
:100F560025E0240AF582E43400F583E0FCA3E0FDF5
:100F6600A3E0FEA3E0FF90007AE0F8A3E0F9A3E097
:100F7600FAA3E0FBC31203FF600302111390008E75
:100F8600E0FF6401701BEF25E025E0240AF582E40A
:100F96003400F583E0FCA3E0FDA3E0FEA3E0FF80C0
:100FA6004190008EE0FF25E025E02406F582E4343A
:100FB60000F583E0F8A3E0F9A3E0FAA3E0FBEF2550
:100FC600E025E0240AF582E43400F583E0FCA3E0A2
:100FD600FDA3E0FEA3E0C39BFFEE9AFEED99FDECB8
:100FE60098FCE412031C90008EE0FB25E025E0242B
:100FF6004AF582E43400F583120436EB25E025E059
:10100600244AF582E43400F583C083C082E0FCA361
:10101600E0FDA3E0FEA3E0FFC004C005C006C007D4
:1010260090008EE0FF25E025E02422F582E43400DE
:10103600F583E0F8A3E0F9A3E0FAA3E0FBEF25E0EF
:1010460025E02426F582E43400F583E0FCA3E0FDE8
:10105600A3E0FEA3E0C39BFFEE9AFEED99FDEC989C
:10106600FCE412031CA804A905AA06AB07D007D006
:1010760006D005D00412027FD082D083120436E453
:101086007F64FEFDFC900006E0F8A3E0F9A3E0FA19
:10109600A3E0FBD31203FF50089000687404F080AD
:1010A60068E47FE87E03FDFC900006E0F8A3E0F923
:1010B600A3E0FAA3E0FBD31203FF50089000687484
:1010C60003F08045E47F107E27FDFC900006E0F8E3
:1010D600A3E0F9A3E0FAA3E0FBD31203FF500280DA
:1010E6001BE47F107E27FDFC900006E0F8A3E0F9E4
:1010F600A3E0FAA3E0FBD31203FF50089000687444
:1011060002F08005E4900068F07F5980027F4E125D
:021116001B506C
:0111180022B4
:010075002268
:10047300E490008DF0900075E075F032A404FF1253
:100483001698900083EFF0E01313540390007EF06E
:10049300900075E075F032A42402FF12135290000D
:1004A3000612043612134790000A120436900075A0
:1004B300E075F032A42408FF1213529000261204B0
:1004C30036900075E075F032A4240BFF121352909E
:1004D300000E120436900075E075F032A4240EFF6E
:1004E30012135290002A120436900075E075F03210
:1004F300A42411FF121352900012120436900075B7
:10050300E075F032A42414FF12135290002E12044B
:1005130036900075E075F032A42417FF1213529041
:100523000016120436900075E075F032A4241AFF09
:10053300121352900032120436900075E075F032B7
:10054300A4241DFF12135290001A12043690007552
:10055300E075F032A42420FF1213529000361204E7
:1005630036900075E075F032A42423FF12135290E5
:10057300001E120436900075E075F032A42426FFA5
:1005830012135290003A120436900075E075F0325F
:10059300A42429FF121352900022120436900075EE
:1005A300E075F032A4242CFF12135290003E120483
:1005B30036900026E0FCA3E0FDA3E0FEA3E0FFA34A
:1005C300E0F8A3E0F9A3E0FAA3E0FBD31203FF40B2
:1005D3007090000EE0FCA3E0FDA3E0FEA3E0FFE4C7
:1005E30012031C90004E12043690004EE0FCA3E070
:1005F300FDA3E0FEA3E0FFC004C005C006C0079052
:100603000026E0F8A3E0F9A3E0FAA3E0FBA3E0FCF3
:10061300A3E0FDA3E0FEA3E0C39BFFEE9AFEED99EA
:10062300FDEC98FCE412031CA804A905AA06AB0779
:10063300D007D006D005D00412027F90004E1204DA
:100643003690008D7401F090008DE0FFC394064056
:1006530003020779EF25E025E02426F582E4340040
:10066300F583E0F8A3E0F9A3E0FAA3E0FBEF25E0CC
:1006730025E0242AF582E43400F583E0FCA3E0FDC1
:10068300A3E0FEA3E0FFC31203FF40030207709041
:10069300008DE0FF25E025E0240AF582E43400F52F
:1006A30083E0F8A3E0F9A3E0FAA3E0FBEF25E0255C
:1006B300E0240EF582E43400F583E0FCA3E0FDA31F
:1006C300E0FEA3E0C39BFFEE9AFEED99FDEC98FCE0
:1006D300E412031C90008DE0FB25E025E0244EF599
:1006E30082E43400F583120436EB25E025E0244E42
:1006F300F582E43400F583C083C082E0FCA3E0FD0F
:10070300A3E0FEA3E0FFC004C005C006C00790003D
:100713008DE0FF25E025E02426F582E43400F5830F
:10072300E0F8A3E0F9A3E0FAA3E0FBEF25E025E07E
:10073300242AF582E43400F583E0FCA3E0FDA3E082
:10074300FEA3E0C39BFFEE9AFEED99FDEC98FCE45B
:1007530012031CA804A905AA06AB07D007D006D02C
:1007630005D00412027FD082D08312043690008D0C
:10077300E004F002064AE47F64FEFDFC900006E01C
:10078300F8A3E0F9A3E0FAA3E0FBD31203FF5007B9
:100793009000687404F022E47FE87E03FDFC90007F
:1007A30006E0F8A3E0F9A3E0FAA3E0FBD31203FF0A
:1007B30050079000687403F022E47F107E27FDFC4D
:1007C300900006E0F8A3E0F9A3E0FAA3E0FBD3125C
:1007D30003FF5002801BE47F107E27FDFC90000680
:1007E300E0F8A3E0F9A3E0FAA3E0FBD31203FF5080
:0D07F300079000687402F022E4900068F0A6
:0108000022D5
:10150E00900026E0FCA3E0FDA3E0FEA3E0FF900028
:10151E0071E0F8A3E0F9A3E0FAA3E0FBD31203FF16
:10152E004027900026E0F8A3E0F9A3E0FAA3E0FB41
:10153E00900071E0FCA3E0FDA3E0FEA3E09BFFEEB4
:10154E009AFEED99FDEC988033900071E0F8A3E0DF
:10155E00F9A3E0FAA3E0FB900026E0FCA3E0FDA3D4
:10156E00E0FEA3E0C39BFFEE9AFEED99FDEC98FC26
:10157E00E42FFFE43EFEED3480FDE43CFC90007A67
:10158E00120436900075E075F032A42405FFC007F2
:10159E0090007AE0FCA3E0FDA3E0FEA3E0FF900044
:1015AE0091120436D00712002612134790000A1229
:1015BE00043690007AE0FCA3E0FDA3E0FEA3E0FF7A
:1015CE0090000AE0F8A3E0F9A3E0FAA3E0FBC3124F
:0E15DE0003FF70047F5980027F4E121B5022C3
:100B7700900000E020E703020ECBE0547FF09000E6
:100B870001E0FFD394005003020ECBC2AFEFB43F96
:100B97000612150E020C64900001E0643C70207F81
:100BA700AA121B50900003E05407FF121B5090003D
:100BB70003E0540724AAFF121B507F0D020E399041
:100BC7000001E0643D6003020C6E1204739000069E
:100BD700E0FCA3E0FDA3E0FEA3E0FF781012041001
:100BE700EF24AAFB900006E0FCA3E0FDA3E0FEA330
:100BF700E0FF7808120410EB2FFB900006A3A3A3D5
:100C0700E02BFF900083E02F900066F07FAA121B75
:100C170050900006E0FCA3E0FDA3E0FEA3E0FF7810
:100C270010120410121B50900006E0FCA3E0FDA375
:100C3700E0FEA3E0FF7808120410121B5090000694
:100C4700A3A3A3E0FF121B50900083E0FF121B50E9
:100C5700900066E0FF121B507F0D121B509000762C
:100C6700E04408F0020EC4900001E0FDB43E0D120E
:100C77000075900076E054F7F0020EC4ED64017041
:100C87002A900043E0FDE4FF121737E4FF1216989D
:100C9700900003EFF0900043E0FF900003E0B507FA
:100CA700057F59020E397F4E020E39900001E0FF91
:100CB700C394075048EF75F032A4249DFF9000437A
:100CC700E0FD121737900001E075F032A4249DFF74
:100CD700121698900083EFF0900043E0FF90008396
:100CE700E0B507147F59121B50900083E01313548B
:100CF7000390007EF0020EC47F4E020E3990000171
:100D0700E0FFC3940C5063EF75F032A424A4FFC036
:100D17000790007AE0FCA3E0FDA3E0FEA3E0FF90CC
:100D27000091120436D007120026900001E075F0FA
:100D370032A424A4FF121352900006120436900026
:100D47007AE0FCA3E0FDA3E0FEA3E0FF900006E04D
:100D5700F8A3E0F9A3E0FAA3E0FBC31203FF7005D1
:100D67007F59020E397F4E020E39900001E0FFC312
:100D770094114003020E3FEF75F032A424ADFFC07B
:100D87000790009112044200000000D007120026CD
:100D9700900001E075F032A424ADFF1213529000C9
:100DA7000A120436900071E0FCA3E0FDA3E0FEA365
:100DB700E0FF90006D120436900001E075F032A458
:100DC70024B0FFC00790006DE0FCA3E0FDA3E0FEA8
:100DD700A3E0FF900091120436D00712002690007E
:100DE70001E075F032A424B0FF12135290002612CE
:100DF700043690006DE0FCA3E0FDA3E0FEA3E0FF56
:100E0700900026E0F8A3E0F9A3E0FAA3E0FBC31201
:100E170003FF701CFFFEFDFC90000AE0F8A3E0F959
:100E2700A3E0FAA3E0FBC31203FF70047F5980021B
:100E37007F4E121B50020EC4900001E0FFC39416B0
:100E4700500CEF75F032A424B9FF7D01806C90003F
:100E570001E0FFC3941B500CEF75F032A424C5FFCB
:100E67007D028056900001E0FFC39420500CEF757F
:100E7700F032A424D1FF7D038040900001E0FFC33E
:100E87009425500CEF75F032A424DDFF7D04802AF1
:100E9700900001E0FFC3942A500CEF75F032A424B0
:100EA700E9FF7D058014900001E0FFC3942F500DEA
:100EB700EF75F032A424F5FF7D06120ECCE4900006
:050EC70001F0D2AF2292
:1008010090000AA3E0FDA3A3E4FFFEED5480FDE404
:10081100FCFBFAF9F8C31203FF900071E0FCA3E0BE
:10082100FDA3E0FEA3E0FF90007F120436900026B6
:10083100E0FCA3E0FDA3E0FEA3E0FF90007FE0F871
:10084100A3E0F9A3E0FAA3E0FBC31203FF50529027
:10085100007FE0F8900026E0FCA3E0FDA3E0FEA30A
:10086100E0C39BFFEE9AFEED99FDEC98FCE41203C8
:100871001C90004EE0F8A3E0F9A3E0FAA3E0FB121C
:10088100017612035A900069120436900069E0FC67
:10089100A3E0FDA3E0FEA3E0FFED4480FDEC020B2D
:1008A1007090002AE0FCA3E0FDA3E0FEA3E0FF902E
:1008B100007FE0F8A3E0F9A3E0FAA3E0FBC3120391
:1008C100FF5042900026E0F8A3E0F9A3E0FAA3E08C
:1008D100FB90007FE0FCA3E0FDA3E0FEA3E0C39B4F
:1008E100FFEE9AFEED99FDEC98FCE412031C9000DA
:1008F1004EE0F8A3E0F9A3E0FAA3E0FB12017612BF
:10090100035A020B7090002EE0FCA3E0FDA3E0FE71
:10091100A3E0FF90007FE0F8A3E0F9A3E0FAA3E0F1
:10092100FBC31203FF506790002AE0F8A3E0F9A38C
:10093100E0FAA3E0FB90007FE0FCA3E0FDA3E0FE72
:10094100A3E0C39BFFEE9AFEED99FDEC98FCE41247
:10095100031C900052E0F8A3E0F9A3E0FAA3E0FB46
:10096100120176C004C005C006C00790000EE0FC6D
:10097100A3E0FDA3E0FEA3E0FFE412031CD003D03B
:1009810002D001D00012008512035A020B709000B0
:1009910032E0FCA3E0FDA3E0FEA3E0FF90007FE0D6
:1009A100F8A3E0F9A3E0FAA3E0FBC31203FF506749
:1009B10090002EE0F8A3E0F9A3E0FAA3E0FB900099
:1009C1007FE0FCA3E0FDA3E0FEA3E0C39BFFEE9A62
:1009D100FEED99FDEC98FCE412031C900056E0F842
:1009E100A3E0F9A3E0FAA3E0FB120176C004C0057D
:1009F100C006C007900012E0FCA3E0FDA3E0FEA347
:100A0100E0FFE412031CD003D002D001D000120099
:100A11008512035A020B70900036E0FCA3E0FDA39F
:100A2100E0FEA3E0FF90007FE0F8A3E0F9A3E0FA85
:100A3100A3E0FBC31203FF5067900032E0F8A3E08C
:100A4100F9A3E0FAA3E0FB90007FE0FCA3E0FDA3A3
:100A5100E0FEA3E0C39BFFEE9AFEED99FDEC98FC4E
:100A6100E412031C90005AE0F8A3E0F9A3E0FAA312
:100A7100E0FB120176C004C005C006C00790001655
:100A8100E0FCA3E0FDA3E0FEA3E0FFE412031CD021
:100A910003D002D001D00012008512035A020B705C
:100AA10090003AE0FCA3E0FDA3E0FEA3E0FF90008C
:100AB1007FE0F8A3E0F9A3E0FAA3E0FBC31203FF90
:100AC1005049900036E0F8A3E0F9A3E0FAA3E0FB77
:100AD10090007FE0FCA3E0FDA3E0FEA3E0C39BFF49
:100AE100EE9AFEED99FDEC98FCE412031C90005E79
:100AF100E0F8A3E0F9A3E0FAA3E0FB120176C00459
:100B0100C005C006C00790001A804790003AE0F87F
:100B1100A3E0F9A3E0FAA3E0FB90007FE0FCA3E0EF
:100B2100FDA3E0FEA3E0C39BFFEE9AFEED99FDEC71
:100B310098FCE412031C900062E0F8A3E0F9A3E042
:100B4100FAA3E0FB120176C004C005C006C00790FD
:100B5100001EE0FCA3E0FDA3E0FEA3E0FFE412031E
:100B61001CD003D002D001D00012008512035A908C
:060B7100006912043622A7
:1018C000900076E020E03A209517A3E030E206E0B1
:1018D00054FBF0B290900077E0547FF0C281C29246
:1018E00022900077E020E716E04480F0D292E49066
:1018F0000079F0900079E0C3941440F7D281D2903F
:1019000022900077E030E206E054FBF0B2909000C5
:0C19100077E030E106E054FDF0B29122D7
:101A5D00900077E020E00B900076E020E204E0308B
:101A6D00E00E900077E030E109E054FDF0B29122F4
:031A7D00D29122E1
:101A3500900005E030E404E020E509900078E0D36B
:101A450094F040139000047401F0C290C291C280DA
:081A5500900005E054DFF022CF
:1017D300900005E030E407209104D280D29190007C
:1017E30005E030E42130B01EE054EFF0E4900079DE
:1017F300F0900079E0C3941440F79000047402F071
:10180300900067743AF0900005E030E614E030E5AC
:1018130010900076E04401F0900005E054DFF0D230
:1018230090900005E030E62130B01EE054BFF0E4B4
:10183300900079F0900079E0C3941440F79000048D
:0A1843007402F0900067743AF0227E
:1019DD00900076E020E21EA3E030E61DE054BFF05B
:1019ED00308116121119120801900076E030E309CA
:0F19FD001200758004C292C2811218C0021A35FE
:101B1600900004E024FE6007240270060217D31228
:031B260019DD22A4
:041AB20041009A0055
:10125400900005E0540714603F14606714700302A3
:10126400130314700302132914700302133F24059B
:101274006003021346900005E054F820B0184401BE
:10128400F0E490009AF0900005E054F7F0E054EF99
:10129400F0E054DFF022F02290009AE0D394025060
:1012A40003021346900005E054F820B0144402F001
:1012B400E490009AF0900005E04408F0E04420F047
:1012C40022F02290009AE0D39402401130B00E90A4
:1012D4000005E054F84403F0E490009AF090009A7A
:1012E400E0D39446405C20B059900005E054F844A3
:1012F40003F0E490009AF0900005E04410F022908E
:10130400009AE0FDD39405403930B0028023EDD338
:1013140094D2402E20B02B900005E054F84404F001
:10132400E04440F02290009AE0D39405401430B099
:1013340011900005E054F84405F022900005E054B3
:03134400F8F0229C
:041AB60041008C005F
:10000E0000000000000000000000000000000000E2
:05001E000000000022BB
:10111900C2839000841204420000000030840990C8
:101129000076E04402F080F4900076E054FDF0E0AF
:1011390054FBF0E490004DF090008CF0900084E0B6
:10114900FCA3E0FDA3E0FEA3E0FF780112042390D5
:101159000084120436D28312000E30841790008462
:10116900E0FCA3E0FDA3E0FEA3E04401FFEC900056
:1011790084120436C28312000E90008CE004F0E061
:10118900C3941840B7D28312000EC283900084E042
:10119900FCA3E0FDA3E0FEA3E0FFED6480FDEC907D
:1011A9000084120436900071E0FCA3E0FDA3E0FE88
:1011B900A3E0FF900088120436900084E0FCA3E0CD
:1011C900FDA3E0FEA3E0FF90007EE02404F9F812FD
:1011D9000410900071120436900071E0FCA3E0FD48
:1011E900A3E0FEA3E0FBAA06A905A804900088E0F5
:1011F900FCA3E0FDA3E0FEA3E0C39BFFEE9AFEED96
:1012090099FDEC98FC121B58E47B02FAF9F8D31209
:1012190003E94036900088E0FCA3E0FDA3E0FEA3CB
:10122900E0FF900071E0F8A3E0F9A3E0FAA3E0FB86
:10123900D31203FF4014900088E0FCA3E0FDA3E073
:0B124900FEA3E0FF90007112043622AB
:1019A90053E8F0EF42E843E101C2EFD2EE30EFFD38
:1019B900AFC27E00EF7802CEC313CE13D8F9FDACC7
:1019C90006AFC3EF75F004A42DFDE5F03C53E1FE2D
:0319D900FEAF0559
:0119DC0022E8
:10184D00900077E030E56BE054DFF0E4FF1219A96A
:10185D00900095EEF0A3EFF07F041219A9A3EEF01E
:10186D00A3EFF0900095E0FCA3E0FDC39430EC9461
:10187D0002400E900098E09430900097E094025052
:10188D000B900077E020E004E04401F0900077E059
:10189D0030E01FD3ED9444EC94024016D3900096A3
:1018AD00E09444900095E094024007900077E05456
:0318BD00FEF02218
:101ABB00E5BD7016900077E04408F0D2C4C2C33085
:0B1ACB00C308C2C6D2C6C2C3C2C622F6
:10169800D2C5C2C330C3FDE5BD640860028060C224
:1016A800C575BCA0C2C330C3FDE5BD641860028027
:1016B8004E8FBCC2C330C3FDE5BD64286002803FC5
:1016C800D2C5C2C330C3FDE5BD641060028030C21C
:1016D800C575BCA1C2C330C3FDE5BD6440600280CE
:1016E8001ED2C2C2C330C3FDE5BD64506002800F84
:1016F800AEBCC2C2C2C330C3FDE5BD645860099028
:101708000077E04408F08011C2C3D2C430C40A1282
:101718001ABB900077E030E3F3900077E030E30CF9
:0E172800121ABB900077E054F7F0AEBDAF068A
:011736002290
:10173700D2C5C2C330C3FDE5BD640860028052C292
:10174700C575BCA0C2C330C3FDE5BD641860028087
:10175700408FBCC2C330C3FDE5BD64286002803141
:10176700AF058FBCC2C330C3FDE5BD6428600280EE
:1017770020D2C4C2C330C40C121ABB900077E03029
:10178700E3F38036D2C5C2C330C3FDE5BD6408604C
:1017970009900077E04408F08020C2C575BCA0C25C
:1017A700C330C3FDE5BDB418C8D2C4C2C330C40A30
:1017B700121ABB900077E030E3F3900077E030E354
:0B17C7000A121ABB900077E054F7F004
:0117D20022F4
:10007E000203C6E86480F8E933E83360110460F0E7
:10008E00ED33EC337009E8FCE9FDEAFEEBFF2204E8
:10009E0060DED3EB9FEA9EE99DE8C2E78CF0C2F7E3
:1000AE0095F0400CE8CCF8E9CDF9EACEFAEBCFFBAF
:1000BE0012039185D0F05804700320D5B3E8047074
:1000CE00075002B2D50203D092D5EC0460F7E4CC0F
:1000DE00C0E0C398F8603B94186008400DD0E0FB78
:1000EE000203A8E4FBFAC9FC8028E830E406E4C960
:1000FE00FBE4CAFCE830E305E4C9CACBFCE85407CC
:10010E006010F8C3E913F9EA13FAEB13FBEC13FCD6
:10011E00D8F130F52FC3E49CFCEF9BFFEE9AFEED79
:10012E0099FDD0E0FBEF4E4D4C701222DB03020323
:10013E00CDEC2CFCEF33FFEE33FEED33FDED30E76F
:10014E00EB0203A8EF2BFFEE3AFEED39FDD0E0FBFC
:10015E0050130BBB00030203D0ED13FDEE13FEEFA5
:08016E0013FFEC13FC0203A8CF
:10017600EC4D6011E8497017ED33EC3304600DE483
:10018600FCFFFEFD22E933E8330470F80203C612D1
:10019600039158046009E4CC2481500628500902D2
:1001A60003D02840030203CDC0E0EB4A7044B98077
:1001B60006D0E0FB0203BCEF4E701CBD8008EBFFCF
:1001C600EAFEE9FD80EBE98DF0A4FEE5F002025FB0
:1001D600E9CDF9EAFEEBFFEF89F0A4FCE5F0CE8964
:1001E600F0A42EFFE435F0CD89F0A42DFEE435F021
:1001F6008067EF4E7005BD80D780C3EF8BF0A4AC4F
:10020600F0EE8BF0A42CFCE435F0F8EF8AF0A42C89
:10021600E5F038FCE433CB8DF0A42CFCE5F03BF89C
:10022600EE8AF0A42CFCE5F038F8E433CF89F0A48C
:100236002CFCE5F038CF3400CE89F0A42FFFE5F092
:100246003EFEE433C98DF0A42EFEE5F039CD8AF0EA
:10025600A42FFFE5F03EFEE43DFD33D0E0FB500762
:100266000BBB000F0203D0EC2CFCEF33FFEE33FE8A
:06027600ED33FD0203A8B8
:10027C000203D0EC5D046005E8590470030203C668
:10028C00120391580460F6EC4860F2EC7004FDFE29
:10029C00FF22C860DB2481C85009C3986002500655
:1002AC000203CD9850CAF582E9294B4A7005AB82FE
:1002BC000203BC75F0007C1A7880C3EF9BEE9AEDBC
:1002CC0099400DC3EF9BFFEE9AFEED99FDE842F0CD
:1002DC00DC23ACF0D0E0FFD0E0FED0E0FDAB822020
:1002EC00E7101BEB60BAEC2CFCEF33FFEE33FEEDAA
:1002FC0033FD0203A8E803F830E705C0F075F00001
:10030C00EF2FFFEE33FEED33FD40B830E7C280AA8D
:10031C0075F020800E75F010800575F0087D007E5C
:10032C00007F003392D530D5031203DBEC33401041
:10033C00EF33FFEE33FEED33FDEC33FCD5F0ED2265
:0E034C00E5F0247EA2D513CC92E7CDCEFF22A1
:10035A00EDD2E7CD33EC3392D524814006E4FFFE9B
:10036A00FDFC22FCE4CFCECDCC24E0501174FF80FA
:10037A00EDC3CC13CCCD13CDCE13CECF13CF047097
:07038A00F030D5DE0203DBB9
:10039100E9D2E7C933E833F892D5EDD2E7CD33ECB2
:0703A10033FC5002B2D5222B
:1003A800EC30E7100FBF000C0EBE00080DBD0004B6
:1003B8000BEB6014A2D5EB13FCED92E7FD2274FF62
:1003C800FCFDFEFF22E480F8A2D574FF13FC7D80BB
:0303D800E480EFCF
:10161800021B38E493A3F8E493A34003F68001F295
:1016280008DFF48029E493A3F85407240CC8C333D3
:10163800C4540F4420C8834004F456800146F6DFA2
:10164800E4800B0102040810204080901A9EE47E7A
:10165800019360BCA3FF543F30E509541FFEE49397
:10166800A360010ECF54C025E060A840B8E493A35E
:10167800FAE493A3F8E493A3C8C582C8CAC583CA89
:10168800F0A3C8C582C8CAC583CADFE9DEE780BE41
:011ABA00002B
:0E03DB00C3E49FFFE49EFEE49DFDE49CFC2233
:1003E900EB9FF5F0EA9E42F0E99D42F0EC6480C88B
:0603F90064809845F0222B
:1003FF00EB9FF5F0EA9E42F0E99D42F0E89C45F054
:01040F0022CA
:10041000E8600FECC313FCED13FDEE13FEEF13FFCA
:03042000D8F122EE
:10042300E8600FEFC333FFEE33FEED33FDEC33FC37
:03043300D8F122DB
:0C043600ECF0A3EDF0A3EEF0A3EFF02239
:10044200A8828583F0D083D08212045912045912F3
:100452000459120459E473E493A3C583C5F0C58318
:10046200C8C582C8F0A3C583C5F0C583C8C582C804
:010472002267
:081B5800EC30E7031203DB226D
:00000001FF
