:03000000021F429A
:101F420075C7AA75C75575FD5A75C7AA75C7557560
:101F5200FDA5787FE4F6D8FD9000007FFF7E03E4C4
:0C1F6200F0A3DFFCDEFA758107021FA966
:102500001223E4121BA912082C1224ED1224DA80E3
:01251000F2D8
:03000B00021C9C38
:101C9C00C0E0C0F0C083C082C0D075D000C0077552
:101CAC008C06758A00900079E004F0E0FF75F00571
:101CBC0084E5F0700690009AE004F0EF75F019845A
:101CCC00E5F0702D900077E04440F0900076E03025
:101CDC00E11390004DE004F0E0D394144007900021
:101CEC0076E04404F0900076E030E205A3E0440294
:101CFC00F0900079E075F07D84E5F0701C90007632
:101D0C00E020E405A3E04404F0900076E030E00924
:101D1C00A3E04404F0E04402F0900079E0D394F99D
:101D2C004024E4F0900067E004F0900077E030E0AD
:101D3C0004E04402F0900076E090007820E405E0A6
:101D4C0004F08002E4F0900067E0D3943B4018E488
:101D5C00F075F01E84E5F07007900077E04410F009
:101D6C00900077E04420F0D007D0D0D082D083D040
:041D7C00F0D0E03291
:03002300020F6C5D
:100F6C00C0E0C0F0C083C082C0D075D000C000C04B
:100F7C0001C002C003C004C005C006C0072098030E
:100F8C00021297C298900000E0541F705C9000769B
:100F9C00E054F7F0E599B4AA17900000E0FF54E094
:100FAC00FEEF04541F4EF0E0549F4420F0021299BF
:100FBC00E599B4A517900000E0FF54E0FEEF04544F
:100FCC001F4EF0E0549F4440F0021299E5999000B6
:100FDC0000B45512E0FF54E0FEEF04541F4EF0E055
:100FEC004460F0021299021291900000E0C4135474
:100FFC00036401600302109DE0541F64016007E06C
:10100C00541FFFBF021C900000E0FF54E0FEEF54A1
:10101C001FFC04541F4EF0744A2CF582E434000279
:10102C00117C900000E0541F64036003021299E5E8
:10103C0099640D600302129990004BE0FC24AAFE07
:10104C00900066F090004CE06E60030212999000E4
:10105C0000E054E0F0E04480F0EC70099000017482
:10106C003CF002129990004BE05407FF900003E013
:10107C0054076F600302129990004BE0FD13131399
:10108C005407900075F0EDC413135403243C021163
:10109C003B900000E0C41354036402600302114847
:1010AC00E0541F6401600EE0541F64026007E054BA
:1010BC001FFFBF031C900000E0FF54E0FEEF541F25
:1010CC00FC04541F4EF074412CF582E434000211E0
:1010DC007C900000E0541F6404705BE599645A70C6
:1010EC0055900042E0FC24A5FEA3E02EFE90006685
:1010FC00F0900044E06E6003021299900000E054FE
:10110C00E0F0E04480F0EC30E7099000017401F06D
:10111C00021299900042E0FF5407FE900003E05445
:10112C00076E6003021299EF1313135407240290F5
:10113C000001F0021299900000021291900000E060
:10114C00C41354036403600302128EE0541FD3943F
:10115C00004025E0541F9407501EE0FF54E0FEEFC2
:10116C00541FFC04541F4EF074442CF582E43400DC
:10117C00F583E599F0021299900000E0541F640782
:10118C006003021289E59964D06003021289900011
:10119C0045E02455FFA3E02FFFA3E02FFFA3E02F92
:1011AC00FFA3E02FFF900066F090004AE06F600311
:1011BC00021299900000E054E0F0E04480F09000BE
:1011CC0045E0FF5407FE900003E054076E600302F5
:1011DC001299EF13131354072407FF900046E07580
:1011EC00F005A42F900001F0900047E0FFE4FCFD17
:1011FC00FE90007A12043690007AE0FCA3E0FDA386
:10120C00E0FEA3E0FF780812042390007A12043663
:10121C0090007AE0F8A3E0F9A3E0FAA3E0FB9000D9
:10122C0048E0FFE4FCFDFEEB2FFFEE3AFEED39FD4E
:10123C00EC38FC90007A12043690007AE0FCA3E0C3
:10124C00FDA3E0FEA3E0FF780812042390007A12BD
:10125C00043690007AE0F8A3E0F9A3E0FAA3E0FBEF
:10126C00900049E0FFE4FCFDFEEB2FFFEE3AFEEDB3
:10127C0039FDEC38FC90007A120436801090000096
:10128C008003900000E054E0F08002C299D007D0B7
:10129C0006D005D004D003D002D001D000D0D0D0DD
:0812AC0082D083D0F0D0E032C3
:03007B000212B4BA
:1012B400C0E0C0F0C083C082C0D075D000C000C000
:1012C40001C002C003C004C005C006C00720F80363
:1012D4000215DFC2F8900000E0541F705C900076A5
:1012E400E054F7F0E59AB4AA17900000E0FF54E048
:1012F400FEEF04541F4EF0E0549F4420F00215E129
:10130400E59AB4A517900000E0FF54E0FEEF045402
:101314001F4EF0E0549F4440F00215E1E59A90001E
:1013240000B45512E0FF54E0FEEF04541F4EF0E009
:101334004460F00215E10215D9900000E0C4135492
:1013440003640160030213E5E0541F64016007E0D5
:10135400541FFFBF021C900000E0FF54E0FEEF5456
:101364001FFC04541F4EF0744A2CF582E43400022E
:1013740014C4900000E0541F640360030215E1E507
:101384009A640D60030215E190004BE0FC24AAFE70
:10139400900066F090004CE06E60030215E190004E
:1013A40000E054E0F0E04480F0EC70099000017437
:1013B4003CF00215E190004BE05407FF900003E07D
:1013C40054076F60030215E190004BE0FD13131303
:1013D4005407900075F0EDC413135403243C021415
:1013E40083900000E0C41354036402600302149069
:1013F400E0541F6401600EE0541F64026007E0546F
:101404001FFFBF031C900000E0FF54E0FEEF541FD9
:10141400FC04541F4EF074412CF582E43400021491
:10142400C4900000E0541F6404705BE59A645A7031
:1014340055900042E0FC24A5FEA3E02EFE90006639
:10144400F0900044E06E60030215E1900000E05467
:10145400E0F0E04480F0EC30E7099000017401F022
:101464000215E1900042E0FF5407FE900003E054AF
:10147400076E60030215E1EF13131354072402905F
:101484000001F00215E19000000215D9900000E07F
:10149400C4135403640360030215D6E0541FD394A9
:1014A400004025E0541F9407501EE0FF54E0FEEF77
:1014B400541FFC04541F4EF074442CF582E4340091
:1014C400F583E59AF00215E1900000E0541F6407EB
:1014D40060030215D1E59A64D060030215D190002F
:1014E40045E02455FFA3E02FFFA3E02FFFA3E02F47
:1014F400FFA3E02FFF900066F090004AE06F6003C6
:101504000215E1900000E054E0F0E04480F0900027
:1015140045E0FF5407FE900003E054076E600302A9
:1015240015E1EF13131354072407FF900046E075E9
:10153400F005A42F900001F0900047E0FFE4FCFDCB
:10154400FE90007A12043690007AE0FCA3E0FDA33A
:10155400E0FEA3E0FF780812042390007A12043618
:1015640090007AE0F8A3E0F9A3E0FAA3E0FB90008E
:1015740048E0FFE4FCFDFEEB2FFFEE3AFEED39FD03
:10158400EC38FC90007A12043690007AE0FCA3E078
:10159400FDA3E0FEA3E0FF780812042390007A1272
:1015A400043690007AE0F8A3E0F9A3E0FAA3E0FBA4
:1015B400900049E0FFE4FCFDFEEB2FFFEE3AFEED68
:1015C40039FDEC38FC90007A12043680109000004B
:1015D4008003900000E054E0F08002C2F9D007D00C
:1015E40006D005D004D003D002D001D000D0D0D092
:0815F40082D083D0F0D0E03278
:10244F00410079004100670041004D0041007E00CE
:04245F0041007800C0
:08000300C2F98F9A30F9FD22C9
:10212900E4900079F0900079E0C3943240F7E4FF3D
:10213900121FEE900003EFF0E020E362C2AF7F418F
:102149001200037F541200037F2B1200037F4E12EB
:1021590000037F411200037F4D1200037F451200E7
:10216900037F571200030F1200037F431200037FFE
:102179004C1200037F4A1200037F2D120003E05422
:10218900072430FF1200037F0D1200037F0A12009B
:0F21990003E04408F0E0FDE4FF12208DD2AF22F6
:1023BB0075F85075C40853C4DF7598504387805324
:1023CB00C4F843C42043A20475C6FF75C59843C423
:0923DB0008759C01D299D2AC22D4
:1024A10075B11075B28B75B33875B41F75AC01E495
:0324B100F5AD2264
:1024B400758901438E08758C06E4F58AD2A9D2AFDA
:0324C400D28C2295
:0725230053E8F075F61122E8
:0A251100D294D29375BE09D2C622FF
:1024C700C2AF75C7AA75C75575AAD7E5AA20E6FB97
:0324D700D2AF225F
:10248700C290C291C280C281C292E4900079F0905A
:0A2497000004F0900076F0A3F0229C
:1023E4001224A11224B4122523122487900079E028
:1023F400C3941940F71223BB122511122129122468
:09240400C7900076E04410F022BC
:1024DA00C2AF75C7AA75C75543AA40E5AA20E6FB4D
:0324EA00D2AF224C
:10002600900090EFF0C007A3E0FCA3E0FDA3E0FE84
:10003600A3E0FF7810120410AD07D00712208D90B0
:100046000090E004FFC007A3E0FCA3E0FDA3E0FEF0
:10005600A3E0FF7808120410AD07D00712208D9098
:0F0066000090E02402FFA3A3A3A3E0FD02208DDE
:0B1D8000900075E075F032A42405FF10
:061D8B00900090EFF0FB58
:101D9100A312044200000000AF03121FEEE4FCFD99
:101DA100FE900091120436900091E0FCA3E0FDA3A7
:101DB100E0FEA3E0FF78081204239000911204369C
:101DC100900091E0F8A3E0F9A3E0FAA3E0FBC000E2
:101DD100C001C002C003900090E004FF121FEEE4B6
:101DE100FCFDFED003D002D001D000EB2FFFEE3A74
:101DF100FEED39FDEC38FC90009112043690009113
:101E0100E0FCA3E0FDA3E0FEA3E0FF7808120423B9
:101E1100900091120436900091E0F8A3E0F9A3E05C
:101E2100FAA3E0FBC000C001C002C003900090E033
:101E31002402FF121FEEE4FCFDFED003D002D0010C
:101E4100D000EB2FFFEE3AFEED39FDEC38FC9000AF
:101E510091120436900091E0FCA3E0FDA3E0FEA303
:021E6100E0FFA0
:011E6300225C
:0A15FC0090008EEDF090008DEFF0EE
:10160600E490008FF0C00790007AE0FCA3E0FDA311
:10161600E0FEA3E0FF900091120436D007120026E8
:1016260090008DE02403FFC007900071E0FCA3E06A
:10163600FDA3E0FEA3E0FF900091120436D007124E
:10164600002690008DE0FF121D8B90008EE025E0B5
:1016560025E0240AF582E43400F58312043690006E
:101666008DE02403FF121D8B90008EE0FB25E02504
:10167600E02426F582E43400F583120436EB25E0F7
:1016860025E0240AF582E43400F583E0FCA3E0FDBE
:10169600A3E0FEA3E0FF90007AE0F8A3E0F9A3E060
:1016A600FAA3E0FBC31203FF600302190090008E49
:1016B600E0FF6401701BEF25E025E0240AF582E4D3
:1016C6003400F583E0FCA3E0FDA3E0FEA3E0FF8089
:1016D6004190008EE0FF25E025E02406F582E43403
:1016E60000F583E0F8A3E0F9A3E0FAA3E0FBEF2519
:1016F600E025E0240AF582E43400F583E0FCA3E06B
:10170600FDA3E0FEA3E0C39BFFEE9AFEED99FDEC80
:1017160098FCE412031C90008EE0FB25E025E024F3
:101726004AF582E43400F583120436EB25E025E021
:10173600244AF582E43400F583C083C082E0FCA32A
:10174600E0FDA3E0FEA3E0FFC004C005C006C0079D
:1017560090008EE0FF25E025E02422F582E43400A7
:10176600F583E0F8A3E0F9A3E0FAA3E0FBEF25E0B8
:1017760025E02426F582E43400F583E0FCA3E0FDB1
:10178600A3E0FEA3E0C39BFFEE9AFEED99FDEC9865
:10179600FCE412031CA804A905AA06AB07D007D0CF
:1017A60006D005D00412027FD082D083120436E41C
:1017B6007F64FEFDFC900006E0F8A3E0F9A3E0FAE2
:1017C600A3E0FBD31203FF50089000687404F08076
:1017D60068E47FE87E03FDFC900006E0F8A3E0F9EC
:1017E600A3E0FAA3E0FBD31203FF5008900068744D
:1017F60003F08045E47F107E27FDFC900006E0F8AC
:10180600A3E0F9A3E0FAA3E0FBD31203FF500280A2
:101816001BE47F107E27FDFC900006E0F8A3E0F9AC
:10182600A3E0FAA3E0FBD31203FF5008900068740C
:1018360002F08005E4900068F07FAA120003900091
:101846008EE0F925E025E0240AF582E43400F583EC
:10185600E0FCA3E0FDA3E0FEA3E0FF781012041075
:10186600AB07EB24AAFAE925E025E0240EF582E48D
:101876003400F583E0FCA3E0FDA3E0FEA3E0FF78DF
:1018860008120410EA2FFAE925E025E0240AF58279
:10189600E43400F583A3A3A3E02AFF900068E02FB9
:1018A600900066F0AF0312000390008EE025E0255D
:1018B600E0240AF582E43400F583E0FCA3E0FDA30E
:1018C600E0FEA3E0FF780812041012000390008ED9
:1018D600E025E025E0240AF582E43400F583A3A39D
:1018E600A3E0FF120003900068E0FF1200039000DF
:0F18F60066E0FF1200037F0D80027F4E12000399
:0119050022BF
:10230F007FAA120003900071E0FCA3E0FDA3E0FEA2
:10231F00A3E0FF7810120410120003900071E0FC8C
:10232F00A3E0FDA3E0FEA3E0FF7808120410120063
:10233F0003900071A3A3A3E0FF120003900068E0D5
:09234F00FF1200037F0D020003E0
:100BDE00E490008EF0900075E075F032A404FF12E0
:100BEE001FEE900083EFF0E01313540390007EF09D
:100BFE00900075E075F032A42402FF121D8B900058
:100C0E0006120436121D8090000A120436900075EA
:100C1E00E075F032A42408FF121D8B9000261204FA
:100C2E0036900075E075F032A4240BFF121D8B90E8
:100C3E00000E120436900075E075F032A4240EFFFB
:100C4E00121D8B90002A120436900075E075F0325A
:100C5E00A42411FF121D8B90001212043690007501
:100C6E00E075F032A42414FF121D8B90002E120496
:100C7E0036900075E075F032A42417FF121D8B908C
:100C8E000016120436900075E075F032A4241AFF97
:100C9E00121D8B900032120436900075E075F03202
:100CAE00A4241DFF121D8B90001A1204369000759D
:100CBE00E075F032A42420FF121D8B900036120432
:100CCE0036900075E075F032A42423FF121D8B9030
:100CDE00001E120436900075E075F032A42426FF33
:100CEE00121D8B90003A120436900075E075F032AA
:100CFE00A42429FF121D8B90002212043690007539
:100D0E00E075F032A4242CFF121D8B90003E1204CD
:100D1E0036900026E0FCA3E0FDA3E0FEA3E0FFA3D7
:100D2E00E0F8A3E0F9A3E0FAA3E0FBD31203FF403F
:100D3E007090000EE0FCA3E0FDA3E0FEA3E0FFE454
:100D4E0012031C90004E12043690004EE0FCA3E0FD
:100D5E00FDA3E0FEA3E0FFC004C005C006C00790DF
:100D6E000026E0F8A3E0F9A3E0FAA3E0FBA3E0FC81
:100D7E00A3E0FDA3E0FEA3E0C39BFFEE9AFEED9978
:100D8E00FDEC98FCE412031CA804A905AA06AB0707
:100D9E00D007D006D005D00412027F90004E120468
:100DAE003690008E7401F090008EE0FFC3940640E2
:100DBE0003020EE4EF25E025E02426F582E434005C
:100DCE00F583E0F8A3E0F9A3E0FAA3E0FBEF25E05A
:100DDE0025E0242AF582E43400F583E0FCA3E0FD4F
:100DEE00A3E0FEA3E0FFC31203FF4003020EDB905D
:100DFE00008EE0FF25E025E0240AF582E43400F5BC
:100E0E0083E0F8A3E0F9A3E0FAA3E0FBEF25E025E9
:100E1E00E0240EF582E43400F583E0FCA3E0FDA3AC
:100E2E00E0FEA3E0C39BFFEE9AFEED99FDEC98FC6D
:100E3E00E412031C90008EE0FB25E025E0244EF525
:100E4E0082E43400F583120436EB25E025E0244ECF
:100E5E00F582E43400F583C083C082E0FCA3E0FD9C
:100E6E00A3E0FEA3E0FFC004C005C006C0079000CB
:100E7E008EE0FF25E025E02426F582E43400F5839C
:100E8E00E0F8A3E0F9A3E0FAA3E0FBEF25E025E00C
:100E9E00242AF582E43400F583E0FCA3E0FDA3E010
:100EAE00FEA3E0C39BFFEE9AFEED99FDEC98FCE4E9
:100EBE0012031CA804A905AA06AB07D007D006D0BA
:100ECE0005D00412027FD082D08312043690008E99
:100EDE00E004F0020DB5E47F64FEFDFC900006E038
:100EEE00F8A3E0F9A3E0FAA3E0FBD31203FF500747
:100EFE009000687404F022E47FE87E03FDFC90000D
:100F0E0006E0F8A3E0F9A3E0FAA3E0FBD31203FF97
:100F1E0050079000687403F022E47F107E27FDFCDA
:100F2E00900006E0F8A3E0F9A3E0FAA3E0FBD312E9
:100F3E0003FF5002801BE47F107E27FDFC9000060D
:100F4E00E0F8A3E0F9A3E0FAA3E0FBD31203FF500D
:0D0F5E00079000687402F022E4900068F033
:010F6B002263
:101E6400900026E0FCA3E0FDA3E0FEA3E0FF9000C9
:101E740071E0F8A3E0F9A3E0FAA3E0FBD31203FFB7
:101E84004027900026E0F8A3E0F9A3E0FAA3E0FBE2
:101E9400900071E0FCA3E0FDA3E0FEA3E09BFFEE55
:101EA4009AFEED99FDEC988033900071E0F8A3E080
:101EB400F9A3E0FAA3E0FB900026E0FCA3E0FDA375
:101EC400E0FEA3E0C39BFFEE9AFEED99FDEC98FCC7
:101ED400E42FFFE43EFEED3480FDE43CFC90007A08
:101EE400120436900075E075F032A42405FFC00793
:101EF40090007AE0FCA3E0FDA3E0FEA3E0FF9000E5
:101F040091120436D007120026121D8090000A1286
:101F1400043690007AE0FCA3E0FDA3E0FEA3E0FF1A
:101F240090000AE0F8A3E0F9A3E0FAA3E0FBC312EF
:0E1F340003FF70047F5980027F4E12000322CB
:10190600E490008DF0120BDE900006E0FCA3E0FDF3
:10191600A3E0FEA3E0FF7810120410EF24AAFB90C8
:101926000006E0FCA3E0FDA3E0FEA3E0FF780812BA
:101936000410EB2FFB900006A3A3A3E02BFF90005F
:1019460083E02F900066F07FAA120003900083E0E8
:10195600FF120003900006E0FCA3E0FDA3E0FEA357
:10196600E0FF7810120410120003900006E0FCA3BA
:10197600E0FDA3E0FEA3E0FF7808120410120003C6
:10198600900006A3A3A3E0FF120003E490008DF0ED
:1019960090008DE0F9C394064003021A4CE0FB2543
:1019A600E025E0240EF582E43400F583E0FCA3E0B4
:1019B600FDA3E0FEA3E0FF7808120410AA07EB25BA
:1019C600E025E0240EF582E43400F583E0FCA3E094
:1019D600FDA3E0FEA3E0FF7810120410AB07EB2A8C
:1019E600FAE925E025E0240EF582E43400F583A328
:1019F600A3A3E02AFF900066E02FF0AF03120003D6
:101A060090008DE025E025E0240EF582E43400F513
:101A160083E0FCA3E0FDA3E0FEA3E0FF7808120448
:101A26001012000390008DE025E025E0240EF582DB
:101A3600E43400F583A3A3A3E0FF12000390008D16
:101A4600E004F0021996900066E0FF1200037F0D95
:031A560002000388
:10082C00900000E020E703020BDDE0547FF0900025
:10083C0001E0FFD394005003020BDDC2AFEFB43FD5
:10084C0006121E64020BD6900001E0643C701B7F04
:10085C00AA120003900003E05407FF12000390005B
:10086C0003E0540724AAFF020A76900001E0B43D8D
:10087C0006121906020BD6900001E0FDB43E0A9058
:10088C000076E04408F0020BD6ED6401702690006F
:10089C0043E0FDE4FF12208DE4FF121FEE900003F5
:1008AC00EFF0900043E0FF900003E0B50703020B6C
:1008BC0045020A7E900001E0FFC394075046EF7595
:1008CC00F032A4249DFF900043E0FD12208D900097
:1008DC0001E075F032A4249DFF121FEE900083EF0F
:1008EC00F0900043E0FF900083E0B507147F5912AD
:1008FC000003900083E01313540390007EF0020B6E
:10090C00D6020A7E900001E0FFC3940C4003020A59
:10091C0083EF75F032A424A4FFC00790007AE0FCAA
:10092C00A3E0FDA3E0FEA3E0FF900091120436D0FB
:10093C0007120026900001E075F032A424A4FF12E7
:10094C001D8B90000612043690007AE0FCA3E0FDAB
:10095C00A3E0FEA3E0FF900006E0F8A3E0F9A3E01B
:10096C00FAA3E0FBC31203FF6003020A7E7F64FE5E
:10097C00FDFC900006E0F8A3A3A3E0D31203FF5004
:10098C00089000687404F08068E47FE87E03FDFC46
:10099C00900006E0F8A3E0F9A3E0FAA3E0FBD31281
:1009AC0003FF50089000687403F08045E47F107ECC
:1009BC0027FDFC900006E0F8A3E0F9A3E0FAA3E021
:1009CC00FBD31203FF5002801BE47F107E27FDFC3B
:1009DC00900006E0F8A3E0F9A3E0FAA3E0FBD31241
:1009EC0003FF50089000687402F08005E4900068E2
:1009FC00F07FAA120003900006E0FCA3E0FDA3E048
:100A0C00FEA3E0FF7810120410AB07EB24AAFA90B7
:100A1C000006E0FCA3E0FDA3E0FEA3E0FF780812D3
:100A2C000410EA2FFA900006A3A3A3E02AFF90007B
:100A3C0068E02F900066F0AF03120003900006E010
:100A4C00FCA3E0FDA3E0FEA3E0FF78081204101263
:100A5C000003900006A3A3A3E0FF1200039000681C
:100A6C00E0FF120003900066E0FF1200037F0D020E
:100A7C000B4B7F4E020B4B900001E0FFC3941140D7
:100A8C0003020B51EF75F032A424ADFFC0079000A8
:100A9C009112044200000000D007120026900001C1
:100AAC00E075F032A424ADFF121D8B90000A1204E5
:100ABC0036900071E0FCA3E0FDA3E0FEA3E0FF9004
:100ACC00006D120436900001E075F032A424B0FFE2
:100ADC00C00790006DE0FCA3E0FDA3E0FEA3E0FFE7
:100AEC00900091120436D007120026900001E07598
:100AFC00F032A424B0FF121D8B9000261204369005
:100B0C00006DE0FCA3E0FDA3E0FEA3E0FF90002657
:100B1C00E0F8A3E0F9A3E0FAA3E0FBC31203FF7033
:100B2C001CFFFEFDFC90000AE0F8A3E0F9A3E0FA3C
:100B3C00A3E0FBC31203FF70047F5980027F4E12A7
:100B4C000003020BD6900001E0FFC39416500CEF8B
:100B5C0075F032A424B9FF7D01806C900001E0FF98
:100B6C00C3941B500CEF75F032A424C5FF7D02809A
:100B7C0056900001E0FFC39420500CEF75F032A4A6
:100B8C0024D1FF7D038040900001E0FFC3942550E9
:100B9C000CEF75F032A424DDFF7D04802A90000157
:100BAC00E0FFC3942A500CEF75F032A424E9FF7DCA
:100BBC00058014900001E0FFC3942F500DEF75F0E9
:100BCC0032A424F5FF7D061215FCE4900001F0D24E
:020BDC00AF2246
:1004730090000AA3E0FDA3A3E4FFFEED5480FDE496
:10048300FCFBFAF9F8C31203FF90000A5028A3E01B
:10049300FDA3E0FEA3E0FFED547FFDE4FC900071BB
:1004A300E0F8A3E0F9A3E0FAA3E02FFFEA3EFEE9B8
:1004B3003DFDEC388023E0F8A3E0F9A3E0FAA3E0E4
:1004C300FB900071E0FCA3E0FDA3E0FEA3E0C39B6F
:1004D300FFEE9AFEED99FDEC98FC90007F12043636
:1004E300900026E0FCA3E0FDA3E0FEA3E0FF900064
:1004F3007FE0F8A3E0F9A3E0FAA3E0FBC31203FF54
:10050300505290007FE0F8900026E0FCA3E0FDA3AA
:10051300E0FEA3E0C39BFFEE9AFEED99FDEC98FC91
:10052300E412031C90004EE0F8A3E0F9A3E0FAA361
:10053300E0FB12017612035A900069120436900010
:1005430069E0FCA3E0FDA3E0FEA3E0FFED4480FD32
:10055300EC02082590002AE0FCA3E0FDA3E0FEA343
:10056300E0FF90007FE0F8A3E0F9A3E0FAA3E0FB4B
:10057300C31203FF5042900026E0F8A3E0F9A3E082
:10058300FAA3E0FB90007FE0FCA3E0FDA3E0FEA361
:10059300E0C39BFFEE9AFEED99FDEC98FCE4120399
:1005A3001C90004EE0F8A3E0F9A3E0FAA3E0FB12ED
:1005B300017612035A02082590002EE0FCA3E0FD09
:1005C300A3E0FEA3E0FF90007FE0F8A3E0F9A3E03F
:1005D300FAA3E0FBC31203FF506790002AE0F8A3DD
:1005E300E0F9A3E0FAA3E0FB90007FE0FCA3E0FDC9
:1005F300A3E0FEA3E0C39BFFEE9AFEED99FDEC980A
:10060300FCE412031C900052E0F8A3E0F9A3E0FA23
:10061300A3E0FB120176C004C005C006C00790002A
:100623000EE0FCA3E0FDA3E0FEA3E0FFE412031C45
:10063300D003D002D001D00012008512035A020861
:1006430025900032E0FCA3E0FDA3E0FEA3E0FF90D1
:10065300007FE0F8A3E0F9A3E0FAA3E0FBC31203F1
:10066300FF506790002EE0F8A3E0F9A3E0FAA3E0BF
:10067300FB90007FE0FCA3E0FDA3E0FEA3E0C39BAF
:10068300FFEE9AFEED99FDEC98FCE412031C90003A
:1006930056E0F8A3E0F9A3E0FAA3E0FB120176C069
:1006A30004C005C006C007900012E0FCA3E0FDA350
:1006B300E0FEA3E0FFE412031CD003D002D001D07C
:1006C3000012008512035A020825900036E0FCA3AD
:1006D300E0FDA3E0FEA3E0FF90007FE0F8A3E0F9D4
:1006E300A3E0FAA3E0FBC31203FF5067900032E0DC
:1006F300F8A3E0F9A3E0FAA3E0FB90007FE0FCA3FA
:10070300E0FDA3E0FEA3E0C39BFFEE9AFEED99FD9F
:10071300EC98FCE412031C90005AE0F8A3E0F9A360
:10072300E0FAA3E0FB120176C004C005C006C007CF
:10073300900016E0FCA3E0FDA3E0FEA3E0FFE412BB
:10074300031CD003D002D001D00012008512035A3B
:1007530002082590003AE0FCA3E0FDA3E0FEA3E03D
:10076300FF90007FE0F8A3E0F9A3E0FAA3E0FBC366
:100773001203FF5049900036E0F8A3E0F9A3E0FA32
:10078300A3E0FB90007FE0FCA3E0FDA3E0FEA3E079
:10079300C39BFFEE9AFEED99FDEC98FCE412031C5B
:1007A30090005EE0F8A3E0F9A3E0FAA3E0FB1201F6
:1007B30076C004C005C006C00790001A80479000A9
:1007C3003AE0F8A3E0F9A3E0FAA3E0FB90007FE0AE
:1007D300FCA3E0FDA3E0FEA3E0C39BFFEE9AFEEDC6
:1007E30099FDEC98FCE412031C900062E0F8A3E08E
:1007F300F9A3E0FAA3E0FB120176C004C005C0062A
:10080300C00790001EE0FCA3E0FDA3E0FEA3E0FF11
:10081300E412031CD003D002D001D00012008512D1
:09082300035A9000691204362208
:1021A800900076E020E03BE020E417A3E030E20670
:1021B800E054FBF0B290900077E0547FF0C281C207
:1021C8009222900077E020E716E04480F0D292E473
:1021D800900079F0900079E0C3941440F7D281D24E
:1021E8009022900077E030E206E054FBF0B2909045
:1021F8000077E030E106E054FDF0B291900077E01E
:1022080020E716E04480F0D292E4900079F0900044
:0A22180079E0C3941440F7D281224C
:10240D00900077E020E00B900076E020E204E030D1
:10241D00E00E900077E030E109E054FDF0B291223A
:03242D00D2912227
:10243000900005E030E417E030E5139000047401EB
:0F244000F0C290C291C280900005E054DFF022FC
:10222200900005E030E407209104D280D291900022
:1022320005E030E42130B01EE054EFF0E490007984
:10224200F0900079E0C3941440F79000047402F017
:10225200900067743AF0900005E030E614E030E553
:1022620010900076E04401F0900005E054DFF0D2D7
:1022720090900005E030E62130B01EE054BFF0E45B
:10228200900079F0900079E0C3941440F790000434
:0A2292007402F0900067743AF02225
:10238C00900076E020E21EA3E030E61DE054BFF0A2
:10239C00308116121A59120473900076E030E3095A
:0F23AC0012230F8004C292C2811221A802243092
:1024ED00900004E024FE60072402700602222212EE
:0324FD00238C220B
:0424630041009A009A
:101BA900900005E0540714603F1460671470030245
:101BB9001C58147003021C7E147003021C94240523
:101BC9006003021C9B900005E054F820B018440102
:101BD900F0E490009AF0900005E054F7F0E054EF3B
:101BE900F0E054DFF022F02290009AE0D394025002
:101BF90003021C9B900005E054F820B0144402F045
:101C0900E490009AF0900005E04408F0E04420F0E8
:101C190022F02290009AE0D39402401130B00E9045
:101C29000005E054F84403F0E490009AF090009A1B
:101C3900E0D39446405C20B059900005E054F84444
:101C490003F0E490009AF0900005E04410F022902F
:101C5900009AE0FDD39405403930B0028023EDD3DA
:101C690094D2402E20B02B900005E054F84404F0A3
:101C7900E04440F02290009AE0D39405401430B03B
:101C890011900005E054F84405F022900005E05455
:031C9900F8F0223E
:0424670041008C00A4
:10000E0000000000000000000000000000000000E2
:05001E000000000022BB
:101A5900C28390008412044200000000308409907F
:101A69000076E04402F080F4900076E054FDF0E066
:101A790054FBF0E490004DF090008CF0900084E06D
:101A8900FCA3E0FDA3E0FEA3E0FF7801120423908C
:101A99000084120436D28312000E30841790008419
:101AA900E0FCA3E0FDA3E0FEA3E04401FFEC90000D
:101AB90084120436C28312000E90008CE004F0E018
:101AC900C3941840B7D28312000EC283900077E006
:101AD90030E40EE054EFF012000ED28312000EC271
:101AE90083900084E0FCA3E0FDA3E0FEA3E0FFED0A
:101AF9006480FDEC900084120436900071E0FCA330
:101B0900E0FDA3E0FEA3E0FF9000881204369000F8
:101B190084E0FCA3E0FDA3E0FEA3E0FF90007EE0EB
:101B29002404F9F81204109000711204369000711F
:101B3900E0FCA3E0FDA3E0FEA3E0FBAA06A905A83B
:101B490004900088E0FCA3E0FDA3E0FEA3E0C39BB2
:101B5900FFEE9AFEED99FDEC98FC12251BE47B0241
:101B6900FAF9F8D31203E94036900088E0FCA3E0C3
:101B7900FDA3E0FEA3E0FF900071E0F8A3E0F9A364
:101B8900E0FAA3E0FBD31203FF4014900088E0FCC5
:101B9900A3E0FDA3E0FEA3E0FF900071120436224A
:1023580053E8F0EF42E843E101C2EFD2EE30EFFD7F
:10236800AFC27E00EF7802CEC313CE13D8F9FDAC0E
:1023780006AFC3EF75F004A42DFDE5F03C53E1FE74
:03238800FEAF05A0
:01238B00222F
:10229C00900077E030E56BE054DFF0E4FF12235858
:1022AC00900095EEF0A3EFF07F04122358A3EEF00C
:1022BC00A3EFF0900095E0FCA3E0FDC39430EC9408
:1022CC0002400E900098E09430900097E0940250F9
:1022DC000B900077E020E004E04401F0900077E000
:1022EC0030E01FD3ED9444EC94024016D39000964A
:1022FC00E09444900095E094024007900077E054FD
:03230C00FEF022BE
:10246C00E5BD7016900077E04408F0D2C4C2C330CA
:0B247C00C308C2C6D2C6C2C3C2C6223B
:101FEE00D2C5C2C330C3FDE5BD640860028060C2C5
:101FFE00C575BCA0C2C330C3FDE5BD6418600280C8
:10200E004E8FBCC2C330C3FDE5BD64286002803F65
:10201E00D2C5C2C330C3FDE5BD641060028030C2BC
:10202E00C575BCA1C2C330C3FDE5BD64406002806E
:10203E001ED2C2C2C330C3FDE5BD64506002800F24
:10204E00AEBCC2C2C2C330C3FDE5BD6458600990C8
:10205E000077E04408F08011C2C3D2C430C40A1223
:10206E00246C900077E030E3F3900077E030E30CDF
:0E207E0012246C900077E054F7F0AEBDAF0670
:01208C002231
:10208D00D2C5C2C330C3FDE5BD640860028052C233
:10209D00C575BCA0C2C330C3FDE5BD641860028028
:1020AD00408FBCC2C330C3FDE5BD642860028031E2
:1020BD00AF058FBCC2C330C3FDE5BD64286002808F
:1020CD0020D2C4C2C330C40C12246C900077E0300F
:1020DD00E3F38036D2C5C2C330C3FDE5BD640860ED
:1020ED0009900077E04408F08020C2C575BCA0C2FD
:1020FD00C330C3FDE5BDB418C8D2C4C2C330C40AD1
:10210D0012246C900077E030E3F3900077E030E339
:0B211D000A12246C900077E054F7F0E9
:012128002294
:10007E000203C6E86480F8E933E83360110460F0E7
:10008E00ED33EC337009E8FCE9FDEAFEEBFF2204E8
:10009E0060DED3EB9FEA9EE99DE8C2E78CF0C2F7E3
:1000AE0095F0400CE8CCF8E9CDF9EACEFAEBCFFBAF
:1000BE0012039185D0F05804700320D5B3E8047074
:1000CE00075002B2D50203D092D5EC0460F7E4CC0F
:1000DE00C0E0C398F8603B94186008400DD0E0FB78
:1000EE000203A8E4FBFAC9FC8028E830E406E4C960
:1000FE00FBE4CAFCE830E305E4C9CACBFCE85407CC
:10010E006010F8C3E913F9EA13FAEB13FBEC13FCD6
:10011E00D8F130F52FC3E49CFCEF9BFFEE9AFEED79
:10012E0099FDD0E0FBEF4E4D4C701222DB03020323
:10013E00CDEC2CFCEF33FFEE33FEED33FDED30E76F
:10014E00EB0203A8EF2BFFEE3AFEED39FDD0E0FBFC
:10015E0050130BBB00030203D0ED13FDEE13FEEFA5
:08016E0013FFEC13FC0203A8CF
:10017600EC4D6011E8497017ED33EC3304600DE483
:10018600FCFFFEFD22E933E8330470F80203C612D1
:10019600039158046009E4CC2481500628500902D2
:1001A60003D02840030203CDC0E0EB4A7044B98077
:1001B60006D0E0FB0203BCEF4E701CBD8008EBFFCF
:1001C600EAFEE9FD80EBE98DF0A4FEE5F002025FB0
:1001D600E9CDF9EAFEEBFFEF89F0A4FCE5F0CE8964
:1001E600F0A42EFFE435F0CD89F0A42DFEE435F021
:1001F6008067EF4E7005BD80D780C3EF8BF0A4AC4F
:10020600F0EE8BF0A42CFCE435F0F8EF8AF0A42C89
:10021600E5F038FCE433CB8DF0A42CFCE5F03BF89C
:10022600EE8AF0A42CFCE5F038F8E433CF89F0A48C
:100236002CFCE5F038CF3400CE89F0A42FFFE5F092
:100246003EFEE433C98DF0A42EFEE5F039CD8AF0EA
:10025600A42FFFE5F03EFEE43DFD33D0E0FB500762
:100266000BBB000F0203D0EC2CFCEF33FFEE33FE8A
:06027600ED33FD0203A8B8
:10027C000203D0EC5D046005E8590470030203C668
:10028C00120391580460F6EC4860F2EC7004FDFE29
:10029C00FF22C860DB2481C85009C3986002500655
:1002AC000203CD9850CAF582E9294B4A7005AB82FE
:1002BC000203BC75F0007C1A7880C3EF9BEE9AEDBC
:1002CC0099400DC3EF9BFFEE9AFEED99FDE842F0CD
:1002DC00DC23ACF0D0E0FFD0E0FED0E0FDAB822020
:1002EC00E7101BEB60BAEC2CFCEF33FFEE33FEEDAA
:1002FC0033FD0203A8E803F830E705C0F075F00001
:10030C00EF2FFFEE33FEED33FD40B830E7C280AA8D
:10031C0075F020800E75F010800575F0087D007E5C
:10032C00007F003392D530D5031203DBEC33401041
:10033C00EF33FFEE33FEED33FDEC33FCD5F0ED2265
:0E034C00E5F0247EA2D513CC92E7CDCEFF22A1
:10035A00EDD2E7CD33EC3392D524814006E4FFFE9B
:10036A00FDFC22FCE4CFCECDCC24E0501174FF80FA
:10037A00EDC3CC13CCCD13CDCE13CECF13CF047097
:07038A00F030D5DE0203DBB9
:10039100E9D2E7C933E833F892D5EDD2E7CD33ECB2
:0703A10033FC5002B2D5222B
:1003A800EC30E7100FBF000C0EBE00080DBD0004B6
:1003B8000BEB6014A2D5EB13FCED92E7FD2274FF62
:1003C800FCFDFEFF22E480F8A2D574FF13FC7D80BB
:0303D800E480EFCF
:101F6E00022500E493A3F8E493A34003F68001F264
:101F7E0008DFF48029E493A3F85407240CC8C33374
:101F8E00C4540F4420C8834004F456800146F6DF43
:101F9E00E4800B010204081020408090244FE47E60
:101FAE00019360BCA3FF543F30E509541FFEE49338
:101FBE00A360010ECF54C025E060A840B8E493A3FF
:101FCE00FAE493A3F8E493A3C8C582C8CAC583CA2A
:101FDE00F0A3C8C582C8CAC583CADFE9DEE780BEE2
:01246B000070
:0E03DB00C3E49FFFE49EFEE49DFDE49CFC2233
:1003E900EB9FF5F0EA9E42F0E99D42F0EC6480C88B
:0603F90064809845F0222B
:1003FF00EB9FF5F0EA9E42F0E99D42F0E89C45F054
:01040F0022CA
:10041000E8600FECC313FCED13FDEE13FEEF13FFCA
:03042000D8F122EE
:10042300E8600FEFC333FFEE33FEED33FDEC33FC37
:03043300D8F122DB
:0C043600ECF0A3EDF0A3EEF0A3EFF02239
:10044200A8828583F0D083D08212045912045912F3
:100452000459120459E473E493A3C583C5F0C58318
:10046200C8C582C8F0A3C583C5F0C583C8C582C804
:010472002267
:08251B00EC30E7031203DB22A0
:00000001FF
