:03000000021D4E90
:101D4E0075C7AA75C75575FD5A75C7AA75C7557556
:101D5E00FDA5787FE4F6D8FD9000007FFF7E03E4BA
:0C1D6E00F0A3DFFCDEFA758107021DB552
:1022E4001222A9E4900079F090007BE04410F0D22F
:0C22F400801219B612064612235B80F51A
:03000B00021B8D48
:101B8D00C0E0C0F0C083C082C0D075D000C0077562
:101B9D008C06758A0090007DE004F0E0FF75F0057D
:101BAD0084E5F070069000A4E004F0EF75F0198460
:101BBD00E5F0702D90007BE04440F090007AE0302D
:101BCD00E11390004DE004F0E0D394144007900031
:101BDD007AE04404F090007AE030E205A3E044029C
:101BED00F090007DE075F07D84E5F0701A2095078A
:101BFD0090007BE04404F090007AE030E009A3E02F
:101C0D004404F0E04402F090007DE0D394F94020CC
:101C1D00E4F0900067E004F090007BE030E004E039
:101C2D004402F090007C209505E004F08002E4F081
:101C3D00900067E0FFD3943B401CEF75F00584E501
:101C4D00F0700790007AE04410F0900067E4F09097
:101C5D00007BE04420F0D007D0D0D082D083D0F0EC
:031C6D00D0E03292
:03002300020E903A
:100E9000C0E0C0F0C083C082C0D075D000C000C028
:100EA00001C002C003C004C005C006C007209803EB
:100EB0000211CDC298900000E0541F705C90007A3F
:100EC000E054F7F0E599B4AA17900000E0FF54E071
:100ED000FEEF04541F4EF0E0549F4420F00211CF67
:100EE000E599B4A517900000E0FF54E0FEEF04542C
:100EF0001F4EF0E0549F4440F00211CFE59990005E
:100F000000B45512E0FF54E0FEEF04541F4EF0E031
:100F10004460F00211CF0211C7900000E0C41354E6
:100F20000364016003020FD3E0541F64016007E013
:100F3000541FFFBF021C900000E0FF54E0FEEF547E
:100F40001FFC04541F4EF0744A2CF582E434000256
:100F500010B2900000E0541F640360030211CFE55B
:100F600099640D60030211CF90004BE0FC24AAFEAF
:100F7000900066F090004CE06E60030211CF90008C
:100F800000E054E0F0E04480F0EC7009900001745F
:100F90003CF00211CF90004BE05407FF900003E0BB
:100FA00054076F60030211CF90004BE0FD13131341
:100FB0005407900079F0EDC413135403243C9000BF
:100FC00001F0643D60030211CF90007BE04410F01B
:100FD0000211CF900000E0C41354036402600302C6
:100FE000107EE0541F6401600EE0541F640260072D
:100FF000E0541FFFBF031C900000E0FF54E0FEEF31
:10100000541FFC04541F4EF074412CF582E434004C
:101010000210B2900000E0541F6404705BE5996414
:101020005A7055900042E0FC24A5FEA3E02EFE90ED
:101030000066F0900044E06E60030211CF90000063
:10104000E054E0F0E04480F0EC30E70990000174F7
:1010500001F00211CF900042E0FF5407FE90000320
:10106000E054076E60030211CFEF131313540724EB
:1010700002900001F00211CF9000000211C7900011
:1010800000E0C4135403640360030211C4E0541F5E
:10109000D394004025E0541F9407501EE0FF54E015
:1010A000FEEF541FFC04541F4EF074442CF582E4F0
:1010B0003400F583E599F00211CF900000E0541F51
:1010C000640760030211BFE59964D060030211BF99
:1010D000900045E02455FFA3E02FFFA3E02FFFA3DE
:1010E000E02FFFA3E02FFF900066F090004AE06F32
:1010F00060030211CF900000E054E0F0E04480F083
:10110000900045E0FF5407FE900003E054076E6036
:10111000030211CFEF13131354072407FF90004667
:10112000E075F005A42F900001F0900047E0FFE487
:10113000FCFDFE90007E120E5390007EE0FCA3E0CA
:10114000FDA3E0FEA3E0FF7808120E4090007E129F
:101150000E5390007EE0F8A3E0F9A3E0FAA3E0FBD1
:10116000900048E0FFE4FCFDFEEB2FFFEE3AFEEDC1
:1011700039FDEC38FC90007E120E5390007EE0FCAE
:10118000A3E0FDA3E0FEA3E0FF7808120E4090006C
:101190007E120E5390007EE0F8A3E0F9A3E0FAA3DC
:1011A000E0FB900049E0FFE4FCFDFEEB2FFFEE3A90
:1011B000FEED39FDEC38FC90007E120E538010904D
:1011C00000008003900000E054E0F08002C299D05B
:1011D00007D006D005D004D003D002D001D000D073
:0A11E000D0D082D083D0F0D0E032EE
:03007B000211EA85
:1011EA00C0E0C0F0C083C082C0D075D000C000C0CB
:1011FA0001C002C003C004C005C006C00720F8032E
:10120A00021527C2F8900000E0541F705C90007A23
:10121A00E054F7F0E59AB4AA17900000E0FF54E012
:10122A00FEEF04541F4EF0E0549F4420F0021529AB
:10123A00E59AB4A517900000E0FF54E0FEEF0454CD
:10124A001F4EF0E0549F4440F0021529E59A9000A1
:10125A0000B45512E0FF54E0FEEF04541F4EF0E0D4
:10126A004460F0021529021521900000E0C41354CD
:10127A00036401600302132DE0541F64016007E058
:10128A00541FFFBF021C900000E0FF54E0FEEF5421
:10129A001FFC04541F4EF0744A2CF582E4340002F9
:1012AA00140C900000E0541F64036003021529E542
:1012BA009A640D600302152990004BE0FC24AAFEF3
:1012CA00900066F090004CE06E60030215299000D1
:1012DA0000E054E0F0E04480F0EC70099000017402
:1012EA003CF002152990004BE05407FF900003E000
:1012FA0054076F600302152990004BE0FD13131386
:10130A005407900079F0EDC413135403243C900061
:10131A0001F0643D600302152990007BE04410F05F
:10132A00021529900000E0C413540364026003020A
:10133A0013D8E0541F6401600EE0541F6402600772
:10134A00E0541FFFBF031C900000E0FF54E0FEEFD3
:10135A00541FFC04541F4EF074412CF582E43400EF
:10136A0002140C900000E0541F6404705BE59A6458
:10137A005A7055900042E0FC24A5FEA3E02EFE9090
:10138A000066F0900044E06E6003021529900000A8
:10139A00E054E0F0E04480F0EC30E709900001749A
:1013AA0001F0021529900042E0FF5407FE90000365
:1013BA00E054076E6003021529EF13131354072430
:1013CA0002900001F00215299000000215219000F8
:1013DA0000E0C41354036403600302151EE0541FA3
:1013EA00D394004025E0541F9407501EE0FF54E0B8
:1013FA00FEEF541FFC04541F4EF074442CF582E493
:10140A003400F583E59AF0021529900000E0541F94
:10141A0064076003021519E59A64D060030215197E
:10142A00900045E02455FFA3E02FFFA3E02FFFA380
:10143A00E02FFFA3E02FFF900066F090004AE06FD4
:10144A006003021529900000E054E0F0E04480F0C7
:10145A00900045E0FF5407FE900003E054076E60D9
:10146A0003021529EF13131354072407FF900046AC
:10147A00E075F005A42F900001F0900047E0FFE42A
:10148A00FCFDFE90007E120E5390007EE0FCA3E06D
:10149A00FDA3E0FEA3E0FF7808120E4090007E1242
:1014AA000E5390007EE0F8A3E0F9A3E0FAA3E0FB74
:1014BA00900048E0FFE4FCFDFEEB2FFFEE3AFEED64
:1014CA0039FDEC38FC90007E120E5390007EE0FC51
:1014DA00A3E0FDA3E0FEA3E0FF7808120E4090000F
:1014EA007E120E5390007EE0F8A3E0F9A3E0FAA37F
:1014FA00E0FB900049E0FFE4FCFDFEEB2FFFEE3A33
:10150A00FEED39FDEC38FC90007E120E53801090EF
:10151A0000008003900000E054E0F08002C2F9D09D
:10152A0007D006D005D004D003D002D001D000D015
:0A153A00D0D082D083D0F0D0E03290
:1022C70041007D004100670041004D004100820050
:0422D70041007C0046
:08000300C2998F993099FD228A
:101FC100E490007DF090007DE0C3943240F7E4FF9F
:101FD100121DFA900003EFF0E020E362C2AF7F41EF
:101FE1001200037F541200037F2B1200037F4E1255
:101FF10000037F411200037F4D1200037F45120051
:10200100037F571200030F1200037F431200037F67
:102011004C1200037F4A1200037F2D120003E0548B
:10202100072430FF1200037F0D1200037F0A120004
:0F20310003E04408F0E0FDE4FF121E99D2AF2255
:1022350075F85075C40853C4DF75985043878053AB
:10224500C4F843C42043A20475C6FF75C59843C4AA
:0922550008759C01D299D2AC225B
:1023350075B11075B28B75B33875B41F75AC01E402
:03234500F5AD22D1
:10234800758901438E08758C06E4F58AD2A9D2AF47
:03235800D28C2202
:0723800053E8F075F611228D
:0A236E00D294D29375BE09D2C622A4
:10231B00C290C291C280C281C292E490007DF090C3
:0A232B000004F090007AF0A3F02205
:1022A90012233512234812238012231B90007DE04C
:0E22B900C3941940F712223512236E021FC182
:10002600900091EFF0C007A3E0FCA3E0FDA3E0FE83
:10003600A3E0FF7810120E2DAD07D007121E99907F
:100046000091E004FFC007A3E0FCA3E0FDA3E0FEEF
:10005600A3E0FF7808120E2DAD07D007121E999067
:0F0066000091E02402FFA3A3A3A3E0FD021E99D3
:0B1AA900900079E075F032A42405FFE6
:061AB400900091EFF0FB31
:101ABA00A3120E5F00000000AF03121DFAE4FCFD42
:101ACA00FE900092120E53900092E0FCA3E0FDA358
:101ADA00E0FEA3E0FF7808120E40900092120E5327
:101AEA00900092E0F8A3E0F9A3E0FAA3E0FBC000BB
:101AFA00C001C002C003900091E004FF121DFAE485
:101B0A00FCFDFED003D002D001D000EB2FFFEE3A4D
:101B1A00FEED39FDEC38FC900092120E53900092C3
:101B2A00E0FCA3E0FDA3E0FEA3E0FF7808120E406C
:101B3A00900092120E53900092E0F8A3E0F9A3E00D
:101B4A00FAA3E0FBC000C001C002C003900091E00C
:101B5A002402FF121DFAE4FCFDFED003D002D001DC
:101B6A00D000EB2FFFEE3AFEED39FDEC38FC900089
:101B7A0092120E53900092E0FCA3E0FDA3E0FEA3B4
:021B8A00E0FF7A
:011B8C002236
:101F3500900088EFF0C00790007EE0FCA3E0FDA3D1
:101F4500E0FEA3E0FF900092120E53D00712002688
:101F5500900088E02403FFC007900071E0FCA3E037
:101F6500FDA3E0FEA3E0FF900092120E53D00712EE
:101F75000026900088E0FF121AB4900089120E53D3
:101F8500900088E02403FF121AB490008D120E53BE
:101F950090007EE0FCA3E0FDA3E0FEA3E0FF90003F
:101FA50089E0F8A3E0F9A3E0FAA3E0FBC3120E1C55
:0C1FB50070047F5980027F4E120003224E
:102189007FAA120003900071E0FCA3E0FDA3E0FE2A
:10219900A3E0FF7810120E2D120003900071E0FCED
:1021A900A3E0FDA3E0FEA3E0FF7808120E2D1200C4
:1021B90003900071A3A3A3E0FF120003900068E05D
:0921C900FF1200037F0D02000368
:10007E0090007BE020E403020645E054EFF0900090
:10008E0079E075F032A404FF121DFA900087EFF0AC
:10009E00900079E075F032A42402FF121AB4900099
:1000AE0006120E53121AA990000A120E53900079DE
:1000BE00E075F032A42408FF121AB490000E120E4E
:1000CE0053900079E075F032A4240BFF121AB4900D
:1000DE000012120E53900079E075F032A4240EFF38
:1000EE00121AB4900016120E53900079E075F03289
:1000FE00A42411FF121AB490001A120E5390007914
:10010E00E075F032A42414FF121AB490001E120EE1
:10011E0053900079E075F032A42417FF121AB490B0
:10012E000022120E53900079E075F032A4241AFFCB
:10013E00121AB4900026120E53900079E075F03228
:10014E00A4241DFF121AB490002A120E53900079A7
:10015E00E075F032A42420FF121AB490002E120E75
:10016E0053900079E075F032A42423FF121AB49054
:10017E000032120E53900079E075F032A42426FF5F
:10018E00121AB4900036120E53900079E075F032C8
:10019E00A42429FF121AB490003A120E539000793B
:1001AE00E075F032A4242CFF121AB490003E120E09
:1001BE005390000EE0FCA3E0FDA3E0FEA3E0FF9051
:1001CE000016E0F8A3E0F9A3E0FAA3E0FBD3120EC9
:1001DE001C4072900012E0FCA3E0FDA3E0FEA3E041
:1001EE00FFE4120D3990004E120E5390004EE0FCBB
:1001FE00A3E0FDA3E0FEA3E0FFC004C005C006C05F
:10020E000790000EE0F8A3E0F9A3E0FAA3E0FB905C
:10021E000016E0FCA3E0FDA3E0FEA3E0C39BFFEE0F
:10022E009AFEED99FDEC98FCE4120D39A804A9058F
:10023E00AA06AB07D007D006D005D004120C9C90AE
:10024E00004E120E53900016E0FCA3E0FDA3E0FE5C
:10025E00A3E0FF90001EE0F8A3E0F9A3E0FAA3E00C
:10026E00FBD3120E1C5003020302900012E0F8A3FF
:10027E00E0F9A3E0FAA3E0FB90001AE0FCA3E0FD96
:10028E00A3E0FEA3E09BFFEE9AFEED99FDEC98FC39
:10029E00E4120D39900052120E53900052E0FCA35E
:1002AE00E0FDA3E0FEA3E0FFC004C005C006C0074A
:1002BE00900016E0F8A3E0F9A3E0FAA3E0FB9000AB
:1002CE001EE0FCA3E0FDA3E0FEA3E0C39BFFEE9ABD
:1002DE00FEED99FDEC98FCE4120D39A804A905AACF
:1002EE0006AB07D007D006D005D004120C9C9000A8
:1002FE0052120E5390001EE0FCA3E0FDA3E0FEA3FD
:10030E00E0FF900026E0F8A3E0F9A3E0FAA3E0FBFB
:10031E00D3120E1C50030203B190001AE0F8A3E0B2
:10032E00F9A3E0FAA3E0FB900022E0FCA3E0FDA31A
:10033E00E0FEA3E09BFFEE9AFEED99FDEC98FCE447
:10034E00120D39900056120E53900056E0FCA3E0A9
:10035E00FDA3E0FEA3E0FFC004C005C006C00790E9
:10036E00001EE0F8A3E0F9A3E0FAA3E0FB9000265C
:10037E00E0FCA3E0FDA3E0FEA3E0C39BFFEE9AFE2C
:10038E00ED99FDEC98FCE4120D39A804A905AA0616
:10039E00AB07D007D006D005D004120C9C900056A7
:1003AE00120E53900026E0FCA3E0FDA3E0FEA3E0B6
:1003BE00FF90002EE0F8A3E0F9A3E0FAA3E0FBD350
:1003CE00120E1C5003020460900022E0F8A3E0F924
:1003DE00A3E0FAA3E0FB90002AE0FCA3E0FDA3E07B
:1003EE00FEA3E09BFFEE9AFEED99FDEC98FCE41265
:1003FE000D3990005A120E5390005AE0FCA3E0FD06
:10040E00A3E0FEA3E0FFC004C005C006C007900035
:10041E0026E0F8A3E0F9A3E0FAA3E0FB90002EE0BB
:10042E00FCA3E0FDA3E0FEA3E0C39BFFEE9AFEED6E
:10043E0099FDEC98FCE4120D39A804A905AA06ABA7
:10044E0007D007D006D005D004120C9C90005A128B
:10045E000E5390002EE0FCA3E0FDA3E0FEA3E0FF10
:10046E00900036E0F8A3E0F9A3E0FAA3E0FBD31284
:10047E000E1C500302050F90002AE0F8A3E0F9A32A
:10048E00E0FAA3E0FB900032E0FCA3E0FDA3E0FE67
:10049E00A3E09BFFEE9AFEED99FDEC98FCE4120DA5
:1004AE003990005E120E5390005EE0FCA3E0FDA3B7
:1004BE00E0FEA3E0FFC004C005C006C00790002EFA
:1004CE00E0F8A3E0F9A3E0FAA3E0FB900036E0FC2D
:1004DE00A3E0FDA3E0FEA3E0C39BFFEE9AFEED9921
:1004EE00FDEC98FCE4120D39A804A905AA06AB0789
:1004FE00D007D006D005D004120C9C90005E120ED0
:10050E0053900036E0FCA3E0FDA3E0FEA3E0FF90D5
:10051E00003EE0F8A3E0F9A3E0FAA3E0FBD3120E4D
:10052E001C50030205BE900032E0F8A3E0F9A3E0F0
:10053E00FAA3E0FB90003AE0FCA3E0FDA3E0FEA3EB
:10054E00E09BFFEE9AFEED99FDEC98FCE4120D395E
:10055E00900062120E53900062E0FCA3E0FDA3E057
:10056E00FEA3E0FFC004C005C006C007900036E041
:10057E00F8A3E0F9A3E0FAA3E0FB90003EE0FCA3B1
:10058E00E0FDA3E0FEA3E0C39BFFEE9AFEED99FD16
:10059E00EC98FCE4120D39A804A905AA06AB07D005
:1005AE0007D006D005D004120C9C900062120E5398
:1005BE00E47F64FEFDFC900006E0F8A3E0F9A3E002
:1005CE00FAA3E0FBD3120E1C50079000687404F0DF
:1005DE0022E47FE87E03FDFC900006E0F8A3E0F93C
:1005EE00A3E0FAA3E0FBD3120E1C50079000687430
:1005FE0003F022E47F107E27FDFC900006E0F8A3B6
:10060E00E0F9A3E0FAA3E0FBD3120E1C5002801B0C
:10061E00E47F107E27FDFC900006E0F8A3E0F9A32E
:10062E00E0FAA3E0FBD3120E1C5007900068740290
:08063E00F022E4900068F022B4
:101C700090000EE0FCA3E0FDA3E0FEA3E0FF9000D7
:101C800071E0F8A3E0F9A3E0FAA3E0FBD3120E1C85
:101C9000402790000EE0F8A3E0F9A3E0FAA3E0FBF0
:101CA000900071E0FCA3E0FDA3E0FEA3E09BFFEE4B
:101CB0009AFEED99FDEC988033900071E0F8A3E076
:101CC000F9A3E0FAA3E0FB90000EE0FCA3E0FDA383
:101CD000E0FEA3E0C39BFFEE9AFEED99FDEC98FCBD
:101CE000E42FFFE43EFEED3480FDE43CFC90007EFA
:101CF000120E53900079E075F032A42405FFC0075E
:101D000090007EE0FCA3E0FDA3E0FEA3E0FF9000D6
:101D100092120E53D007120026121AA990000A122E
:101D20000E5390007EE0FCA3E0FDA3E0FEA3E0FFE5
:101D300090000AE0F8A3E0F9A3E0FAA3E0FBC312E5
:0E1D40000E1C70047F5980027F4E1200032299
:10064600900000E020E703020A9AE0547FF0900051
:1006560001E0FFD394005003020A9AC2AFEFB43F01
:1006660006121C70020A93900001E0643C70207F21
:10067600AA120003900003E05407FF120003900043
:1006860003E0540724AAFF1200037F0D02096890B5
:100696000001E0643D600302073D12007E90000603
:1006A600E0FCA3E0FDA3E0FEA3E0FF7810120E2D10
:1006B600EF24AAFB900006E0FCA3E0FDA3E0FEA366
:1006C600E0FF7808120E2DEB2FFB900006A3A3A3E4
:1006D600E02BFF900087E02F900066F07FAA1200C3
:1006E60003900006E0FCA3E0FDA3E0FEA3E0FF7894
:1006F60010120E2D120003900006E0FCA3E0FDA3ED
:10070600E0FEA3E0FF7808120E2D1200039000060B
:10071600A3A3A3E0FF120003900087E0FF120003EB
:10072600900066E0FF1200037F0D12000390007A2E
:10073600E04408F0020A93900001E0B43E0D122155
:100746008990007AE054F7F0020A93900001E06481
:1007560001702A900043E0FDE4FF121E99E4FF12A7
:100766001DFA900003EFF0900043E0FF900003E0D5
:10077600B507057F590209687F4E02096890000196
:10078600E0FFC394075039EF75F032A4249DFF9023
:100796000043E0FD121E99900001E075F032A4249A
:1007A6009DFF121DFA900087EFF0900043E0FF9046
:1007B6000087E0B507057F590209687F4E02096880
:1007C600900001E0FFC3940C5063EF75F032A4244F
:1007D600A4FFC00790007EE0FCA3E0FDA3E0FEA31B
:1007E600E0FF900092120E53D007120026900001EF
:1007F600E075F032A424A4FF121AB4900006120E7B
:100806005390007EE0FCA3E0FDA3E0FEA3E0FF9092
:100816000006E0F8A3E0F9A3E0FAA3E0FBC3120E9A
:100826001C70057F590209687F4E02096890000115
:10083600E0FFC394115063EF75F032A424ADFFC0FE
:100846000790007EE0FCA3E0FDA3E0FEA3E0FF909E
:100856000092120E53D007120026900001E075F0A8
:1008660032A424ADFF121AB490000A120E5390005F
:100876007EE0FCA3E0FDA3E0FEA3E0FF90000AE01B
:10088600F8A3E0F9A3E0FAA3E0FBC3120E1C70057F
:100896007F590209687F4E020968900001E0FFC394
:1008A6009416400302096EEF75F032A424B3FFC01C
:1008B60007900092120E5F00000000D0071200267B
:1008C600900001E075F032A424B3FF121AB4900030
:1008D6000A120E53900071E0FCA3E0FDA3E0FEA314
:1008E600E0FF90006D120E53900001E075F032A407
:1008F60024B6FFC00790006DE0FCA3E0FDA3E0FE78
:10090600A3E0FF900092120E53D00712002690002B
:1009160001E075F032A424B6FF121AB490000E124C
:100926000E5390006DE0FCA3E0FDA3E0FEA3E0FF04
:1009360090000EE0F8A3E0F9A3E0FAA3E0FBC312EF
:100946000E1C701CFFFEFDFC90000AE0F8A3E0F907
:10095600A3E0FAA3E0FBC3120E1C70047F598002C9
:100966007F4E120003020A93900001E0FFC3941B1E
:100976005024EF75F032A424BFFFC007900012E0A8
:10098600FCA3E0FDA3E0FEA3E0FF900089120E5356
:10099600900016020A7D900001E0FFC394205024C7
:1009A600EF75F032A424CBFFC00790001AE0FCA339
:1009B600E0FDA3E0FEA3E0FF900089120E53900035
:1009C6001E020A7D900001E0FFC394255024EF75B6
:1009D600F032A424D7FFC007900022E0FCA3E0FD7C
:1009E600A3E0FEA3E0FF900089120E5390002602BA
:1009F6000A7D900001E0FFC3942A5023EF75F03280
:100A0600A424E3FFC00790002AE0FCA3E0FDA3E0D6
:100A1600FEA3E0FF900089120E5390002E8058909E
:100A26000001E0FFC3942F5023EF75F032A424EFAA
:100A3600FFC007900032E0FCA3E0FDA3E0FEA3E0C8
:100A4600FF900089120E53900036802B900001E033
:100A5600FFC394345037EF75F032A424FBFFC00770
:100A660090003AE0FCA3E0FDA3E0FEA3E0FF9000C7
:100A760089120E5390003EE0FCA3E0FDA3E0FEA326
:100A8600E0FF90008D120E53D007121F35E4900040
:050A960001F0D2AF22C7
:1015440090000AA3E0FDA3A3E4FFFEED5480FDE4B4
:10155400FCFBFAF9F8C3120E1C900071E0FCA3E046
:10156400FDA3E0FEA3E0FF900083120E5390000E53
:10157400E0FCA3E0FDA3E0FEA3E0FF900083E0F81D
:10158400A3E0F9A3E0FAA3E0FBC3120E1C500A90F7
:101594000083E0F890000E8033900016E0FCA3E096
:1015A400FDA3E0FEA3E0FF900083E0F8A3E0F9A32D
:1015B400E0FAA3E0FBC3120E1C503F90000EE0F8CB
:1015C400A3E0F9A3E0FAA3E0FB900083E0FCA3E02E
:1015D400FDA3E0FEA3E0C39BFFEE9AFEED99FDECB4
:1015E40098FCE4120D3990004EE0F8A3E0F9A3E072
:1015F400FAA3E0FB120B9302185C90001EE0FCA31C
:10160400E0FDA3E0FEA3E0FF900083E0F8A3E0F98F
:10161400A3E0FAA3E0FBC3120E1C5064900016E092
:10162400F8A3E0F9A3E0FAA3E0FB900083E0FCA3B5
:10163400E0FDA3E0FEA3E0C39BFFEE9AFEED99FD5F
:10164400EC98FCE4120D39900052E0F8A3E0F9A301
:10165400E0FAA3E0FB120B93C004C005C006C00768
:10166400900012E0FCA3E0FDA3E0FEA3E0FFE4127F
:101674000D39D003D002D001D000120AA202185CA6
:10168400900026E0FCA3E0FDA3E0FEA3E0FF9000B1
:1016940083E0F8A3E0F9A3E0FAA3E0FBC3120E1C75
:1016A400506490001EE0F8A3E0F9A3E0FAA3E0FB85
:1016B400900083E0FCA3E0FDA3E0FEA3E0C39BFF56
:1016C400EE9AFEED99FDEC98FCE4120D399000566B
:1016D400E0F8A3E0F9A3E0FAA3E0FB120B93C00443
:1016E400C005C006C00790001AE0FCA3E0FDA3E01B
:1016F400FEA3E0FFE4120D39D003D002D001D000E4
:10170400120AA202185C90002EE0FCA3E0FDA3E004
:10171400FEA3E0FF900083E0F8A3E0F9A3E0FAA3BE
:10172400E0FBC3120E1C5064900026E0F8A3E0F91D
:10173400A3E0FAA3E0FB900083E0FCA3E0FDA3E0B8
:10174400FEA3E0C39BFFEE9AFEED99FDEC98FCE44A
:10175400120D3990005AE0F8A3E0F9A3E0FAA3E0EF
:10176400FB120B93C004C005C006C007900022E022
:10177400FCA3E0FDA3E0FEA3E0FFE4120D39D003D7
:10178400D002D001D000120AA202185C900036E008
:10179400FCA3E0FDA3E0FEA3E0FF900083E0F8A338
:1017A400E0F9A3E0FAA3E0FBC3120E1C5049900039
:1017B4002EE0F8A3E0F9A3E0FAA3E0FB900083E0B5
:1017C400FCA3E0FDA3E0FEA3E0C39BFFEE9AFEEDC5
:1017D40099FDEC98FCE4120D3990005EE0F8A3E06A
:1017E400F9A3E0FAA3E0FB120B93C004C005C00602
:1017F400C00790002A8047900036E0F8A3E0F9A3E0
:10180400E0FAA3E0FB900083E0FCA3E0FDA3E0FE8C
:10181400A3E0C39BFFEE9AFEED99FDEC98FCE41265
:101824000D39900062E0F8A3E0F9A3E0FAA3E0FB2D
:10183400120B93C004C005C006C007900032E0FC40
:10184400A3E0FDA3E0FEA3E0FFE4120D39D003D032
:1018540002D001D000120AA2120D77900069120E74
:0218640053220D
:10212D0090007AE020E03A209517A3E030E206E037
:10213D0054FBF0B29090007BE0547FF0C281C292CC
:10214D002290007BE020E716E04480F0D292E490EC
:10215D00007DF090007DE0C3941440F7D281D290C1
:10216D002290007BE030E206E054FBF0B29090004C
:0C217D007BE030E106E054FDF0B291225E
:1022860090007BE020E00B90007AE020E204E03052
:10229600E00E90007BE030E109E054FDF0B29122BF
:0322A600D29122B0
:10225E00900005E030E404E020E50990007CE0D336
:10226E0094F040139000047401F0C290C291C280A9
:08227E00900005E054DFF0229E
:10204000900005E030E407209104D280D291900006
:1020500005E030E42130B01EE054EFF0E490007D64
:10206000F090007DE0C3941440F79000047402F0F7
:10207000900067743AF0900005E030E614E030E537
:102080001090007AE04401F0900005E054DFF0D2B7
:1020900090900005E030E62130B01EE054BFF0E43F
:1020A00090007DF090007DE0C3941440F790000410
:0A20B0007402F0900067743AF02209
:1022060090007AE020E21EA3E030E61DE054BFF025
:1022160030811612186612154490007AE030E309F0
:0F2226001221898004C292C28112212D02225EF0
:10235B00900004E024FE6007240270060220401265
:03236B0022062225
:0422DB004100A4001A
:1019B600900005E0540714603F146067147003023A
:1019C6001A65147003021A8B147003021AA12405F7
:1019D6006003021AA8900005E054F820B0184401EC
:1019E600F0E49000A4F0900005E054F7F0E054EF26
:1019F600F0E054DFF022F0229000A4E0D3940250ED
:101A060003021AA8900005E054F820B0144402F02E
:101A1600E49000A4F0900005E04408F0E04420F0D3
:101A260022F0229000A4E0D39402401130B00E9030
:101A36000005E054F84403F0E49000A4F09000A4FC
:101A4600E0D39446405C20B059900005E054F84439
:101A560003F0E49000A4F0900005E04410F022901A
:101A660000A4E0FDD39405403930B0028023EDD3C5
:101A760094D2402E20B02B900005E054F84404F098
:101A8600E04440F0229000A4E0D39405401430B026
:101A960011900005E054F84405F022900005E0544A
:031AA600F8F02233
:0422DF0041009E001C
:10000E0000000000000000000000000000000000E2
:05001E000000000022BB
:10186600C283900096120E5F00000000308409903B
:10187600007AE04402F080F490007AE054FDF0E053
:1018860054FBF0E490004DF090009EF0900096E03E
:10189600FCA3E0FDA3E0FEA3E0FF7801120E40905A
:1018A6000096120E53D28312000E308417900096C3
:1018B600E0FCA3E0FDA3E0FEA3E04401FFEC900002
:1018C60096120E53C28312000E90009EE004F0E0C2
:1018D600C3941840B7D28312000EC28390007AE0F8
:1018E60030E40EE054EFF012000ED28312000EC266
:1018F60083900096E0FCA3E0FDA3E0FEA3E0FFEDED
:101906006480FDEC900096120E53900071E0FCA3EB
:10191600E0FDA3E0FEA3E0FF90009A120E539000B4
:1019260096E0FCA3E0FDA3E0FEA3E0FF900082E0CA
:101936002404F9F8120E2D900071120E53900071C6
:10194600E0FCA3E0FDA3E0FEA3E0FBAA06A905A830
:101956000490009AE0FCA3E0FDA3E0FEA3E0C39B95
:10196600FFEE9AFEED99FDEC98FC122378E47B02DB
:10197600FAF9F8D3120E06403690009AE0FCA3E07E
:10198600FDA3E0FEA3E0FF900071E0F8A3E0F9A359
:10199600E0FAA3E0FBD3120E1C401490009AE0FC80
:1019A600A3E0FDA3E0FEA3E0FF900071120E532218
:1021D20053E8F0EF42E843E101C2EFD2EE30EFFD07
:1021E200AFC27E00EF7802CEC313CE13D8F9FDAC96
:1021F20006AFC3EF75F004A42DFDE5F03C53E1FEFC
:03220200FEAF0527
:0122050022B6
:1020BA0090007BE030E56BE054DFF0E4FF1221D2C0
:1020CA0090009FEEF0A3EFF07F041221D2A3EEF06E
:1020DA00A3EFF090009FE0FCA3E0FDC39430EC94E2
:1020EA0002400E9000A2E094309000A1E0940250C9
:1020FA000B90007BE020E004E04401F090007BE0DC
:10210A0030E01FD3ED9444EC94024016D39000A023
:10211A00E0944490009FE09402400790007BE054D2
:03212A00FEF022A2
:10230000E5BD701690007BE04408F0D2C4C2C33033
:0B231000C308C2C6D2C6C2C3C2C622A8
:101DFA00D2C5C2C330C3FDE5BD640860028060C2BB
:101E0A00C575BCA0C2C330C3FDE5BD6418600280BD
:101E1A004E8FBCC2C330C3FDE5BD64286002803F5B
:101E2A00D2C5C2C330C3FDE5BD641060028030C2B2
:101E3A00C575BCA1C2C330C3FDE5BD644060028064
:101E4A001ED2C2C2C330C3FDE5BD64506002800F1A
:101E5A00AEBCC2C2C2C330C3FDE5BD6458600990BE
:101E6A00007BE04408F08011C2C3D2C430C40A1215
:101E7A00230090007BE030E3F390007BE030E30C3A
:0E1E8A0012230090007BE054F7F0AEBDAF06CF
:011E98002227
:101E9900D2C5C2C330C3FDE5BD640860028052C229
:101EA900C575BCA0C2C330C3FDE5BD64186002801E
:101EB900408FBCC2C330C3FDE5BD642860028031D8
:101EC900AF058FBCC2C330C3FDE5BD642860028085
:101ED90020D2C4C2C330C40C12230090007BE0306E
:101EE900E3F38036D2C5C2C330C3FDE5BD640860E3
:101EF9000990007BE04408F08020C2C575BCA0C2EF
:101F0900C330C3FDE5BDB418C8D2C4C2C330C40AC6
:101F190012230090007BE030E3F390007BE030E394
:0B1F29000A12230090007BE054F7F048
:011F3400228A
:100A9B00020DE3E86480F8E933E83360110460F099
:100AAB00ED33EC337009E8FCE9FDEAFEEBFF2204C1
:100ABB0060DED3EB9FEA9EE99DE8C2E78CF0C2F7BC
:100ACB0095F0400CE8CCF8E9CDF9EACEFAEBCFFB88
:100ADB00120DAE85D0F05804700320D5B3E8047026
:100AEB00075002B2D5020DED92D5EC0460F7E4CCC1
:100AFB00C0E0C398F8603B94186008400DD0E0FB51
:100B0B00020DC5E4FBFAC9FC8028E830E406E4C911
:100B1B00FBE4CAFCE830E305E4C9CACBFCE85407A4
:100B2B006010F8C3E913F9EA13FAEB13FBEC13FCAF
:100B3B00D8F130F52FC3E49CFCEF9BFFEE9AFEED52
:100B4B0099FDD0E0FBEF4E4D4C701222DB03020DF2
:100B5B00EAEC2CFCEF33FFEE33FEED33FDED30E72B
:100B6B00EB020DC5EF2BFFEE3AFEED39FDD0E0FBAE
:100B7B0050130BBB0003020DEDED13FDEE13FEEF57
:080B8B0013FFEC13FC020DC581
:100B9300EC4D6011E8497017ED33EC3304600DE45C
:100BA300FCFFFEFD22E933E8330470F8020DE31283
:100BB3000DAE58046009E4CC248150062850090284
:100BC3000DED284003020DEAC0E0EB4A7044B98002
:100BD30006D0E0FB020DD9EF4E701CBD8008EBFF81
:100BE300EAFEE9FD80EBE98DF0A4FEE5F0020C7C62
:100BF300E9CDF9EAFEEBFFEF89F0A4FCE5F0CE893D
:100C0300F0A42EFFE435F0CD89F0A42DFEE435F0F9
:100C13008067EF4E7005BD80D780C3EF8BF0A4AC27
:100C2300F0EE8BF0A42CFCE435F0F8EF8AF0A42C62
:100C3300E5F038FCE433CB8DF0A42CFCE5F03BF875
:100C4300EE8AF0A42CFCE5F038F8E433CF89F0A465
:100C53002CFCE5F038CF3400CE89F0A42FFFE5F06B
:100C63003EFEE433C98DF0A42EFEE5F039CD8AF0C3
:100C7300A42FFFE5F03EFEE43DFD33D0E0FB50073B
:100C83000BBB000F020DEDEC2CFCEF33FFEE33FE3C
:060C9300ED33FD020DC56A
:100C9900020DEDEC5D046005E859047003020DE3F3
:100CA900120DAE580460F6EC4860F2EC7004FDFEDB
:100CB900FF22C860DB2481C85009C398600250062E
:100CC900020DEA9850CAF582E9294B4A7005AB82B0
:100CD900020DD975F0007C1A7880C3EF9BEE9AED6E
:100CE90099400DC3EF9BFFEE9AFEED99FDE842F0A6
:100CF900DC23ACF0D0E0FFD0E0FED0E0FDAB8220F9
:100D0900E7101BEB60BAEC2CFCEF33FFEE33FEED82
:100D190033FD020DC5E803F830E705C0F075F000B2
:100D2900EF2FFFEE33FEED33FD40B830E7C280AA66
:100D390075F020800E75F010800575F0087D007E35
:100D4900007F003392D530D503120DF8EC334010F3
:100D5900EF33FFEE33FEED33FDEC33FCD5F0ED223E
:0E0D6900E5F0247EA2D513CC92E7CDCEFF227A
:100D7700EDD2E7CD33EC3392D524814006E4FFFE74
:100D8700FDFC22FCE4CFCECDCC24E0501174FF80D3
:100D9700EDC3CC13CCCD13CDCE13CECF13CF047070
:070DA700F030D5DE020DF86B
:100DAE00E9D2E7C933E833F892D5EDD2E7CD33EC8B
:070DBE0033FC5002B2D52204
:100DC500EC30E7100FBF000C0EBE00080DBD00048F
:100DD5000BEB6014A2D5EB13FCED92E7FD2274FF3B
:100DE500FCFDFEFF22E480F8A2D574FF13FC7D8094
:030DF500E480EFA8
:101D7A000222E4E493A3F8E493A34003F68001F279
:101D8A0008DFF48029E493A3F85407240CC8C3336A
:101D9A00C4540F4420C8834004F456800146F6DF39
:101DAA00E4800B01020408102040809022C7E47EE0
:101DBA00019360BCA3FF543F30E509541FFEE4932E
:101DCA00A360010ECF54C025E060A840B8E493A3F5
:101DDA00FAE493A3F8E493A3C8C582C8CAC583CA20
:101DEA00F0A3C8C582C8CAC583CADFE9DEE780BED8
:0122E30000FA
:0E0DF800C3E49FFFE49EFEE49DFDE49CFC220C
:100E0600EB9FF5F0EA9E42F0E99D42F0EC6480C863
:060E160064809845F02203
:100E1C00EB9FF5F0EA9E42F0E99D42F0E89C45F02C
:010E2C0022A3
:100E2D00E8600FECC313FCED13FDEE13FEEF13FFA3
:030E3D00D8F122C7
:100E4000E8600FEFC333FFEE33FEED33FDEC33FC10
:030E5000D8F122B4
:0C0E5300ECF0A3EDF0A3EEF0A3EFF02212
:100E5F00A8828583F0D083D082120E76120E76127E
:100E6F000E76120E76E473E493A3C583C5F0C583A3
:100E7F00C8C582C8F0A3C583C5F0C583C8C582C8DD
:010E8F002240
:08237800EC30E703120DF8221E
:00000001FF
