:03000000021F5E7E
:101F5E0075C7AA75C75575FD5A75C7AA75C7557544
:101F6E00FDA5787FE4F6D8FD9000007FFF7E03E4A8
:0C1F7E00F0A3DFFCDEFA758107021FC52E
:10251300122422121BCB12082C1225001224ED8048
:01252300F2C5
:03000B00021DA231
:101DA200C0E0C0F0C083C082C0D075D000C007754B
:101DB2008C06758A00900079E004F0E0FF75F0056A
:101DC20084E5F0700690009AE004F0EF75F0198453
:101DD200E5F0702D900077E04440F0900076E0301E
:101DE200E11390004DE004F0E0D39414400790001A
:101DF20076E04404F0900076E030E205A3E044028D
:101E0200F0900079E075F07D84E5F0701A20950776
:101E1200900077E04404F0900076E030E009A3E01F
:101E22004404F0E04402F0900079E0D394F94020B9
:101E3200E4F0900067E004F0900077E030E004E026
:101E42004402F0900078209505E004F08002E4F06E
:101E5200900067E0D3943B4018E4F075F01E84E5EF
:101E6200F07007900077E04410F0900077E0442093
:0E1E7200F0D007D0D0D082D083D0F0D0E032B4
:03002300020F8E3B
:100F8E00C0E0C0F0C083C082C0D075D000C000C029
:100F9E0001C002C003C004C005C006C007209803EC
:100FAE000212B9C298900000E0541F705C90007657
:100FBE00E054F7F0E599B4AA17900000E0FF54E072
:100FCE00FEEF04541F4EF0E0549F4420F00212BB7B
:100FDE00E599B4A517900000E0FF54E0FEEF04542D
:100FEE001F4EF0E0549F4440F00212BBE599900072
:100FFE0000B45512E0FF54E0FEEF04541F4EF0E033
:10100E004460F00212BB0212B3900000E0C413540D
:10101E0003640160030210BFE0541F64016007E027
:10102E00541FFFBF021C900000E0FF54E0FEEF547F
:10103E001FFC04541F4EF0744A2CF582E434000257
:10104E00119E900000E0541F640360030212BBE582
:10105E0099640D60030212BB90004BE0FC24AAFEC3
:10106E00900066F090004CE06E60030212BB9000A0
:10107E0000E054E0F0E04480F0EC70099000017460
:10108E003CF00212BB90004BE05407FF900003E0CF
:10109E0054076F60030212BB90004BE0FD13131355
:1010AE005407900075F0EDC413135403243C021141
:1010BE005D900000E0C41354036402600302116AE1
:1010CE00E0541F6401600EE0541F64026007E05498
:1010DE001FFFBF031C900000E0FF54E0FEEF541F03
:1010EE00FC04541F4EF074412CF582E434000211BE
:1010FE009E900000E0541F6404705BE599645A7082
:10110E0055900042E0FC24A5FEA3E02EFE90006662
:10111E00F0900044E06E60030212BB900000E054B9
:10112E00E0F0E04480F0EC30E7099000017401F04B
:10113E000212BB900042E0FF5407FE900003E05401
:10114E00076E60030212BBEF1313135407240290B1
:10115E000001F00212BB9000000212B3900000E0FA
:10116E00C4135403640360030212B0E0541FD394FB
:10117E00004025E0541F9407501EE0FF54E0FEEFA0
:10118E00541FFC04541F4EF074442CF582E43400BA
:10119E00F583E599F00212BB900000E0541F64073E
:1011AE0060030212ABE59964D060030212AB9000AB
:1011BE0045E02455FFA3E02FFFA3E02FFFA3E02F70
:1011CE00FFA3E02FFF900066F090004AE06F6003EF
:1011DE000212BB900000E054E0F0E04480F090007A
:1011EE0045E0FF5407FE900003E054076E600302D3
:1011FE0012BBEF13131354072407FF900046E0753C
:10120E00F005A42F900001F0900047E0FFE4FCFDF4
:10121E00FE90007A12043690007AE0FCA3E0FDA363
:10122E00E0FEA3E0FF780812042390007A12043641
:10123E0090007AE0F8A3E0F9A3E0FAA3E0FB9000B7
:10124E0048E0FFE4FCFDFEEB2FFFEE3AFEED39FD2C
:10125E00EC38FC90007A12043690007AE0FCA3E0A1
:10126E00FDA3E0FEA3E0FF780812042390007A129B
:10127E00043690007AE0F8A3E0F9A3E0FAA3E0FBCD
:10128E00900049E0FFE4FCFDFEEB2FFFEE3AFEED91
:10129E0039FDEC38FC90007A120436801090000074
:1012AE008003900000E054E0F08002C299D007D095
:1012BE0006D005D004D003D002D001D000D0D0D0BB
:0812CE0082D083D0F0D0E032A1
:03007B000212D698
:1012D600C0E0C0F0C083C082C0D075D000C000C0DE
:1012E60001C002C003C004C005C006C00720F80341
:1012F600021601C2F8900000E0541F705C90007660
:10130600E054F7F0E59AB4AA17900000E0FF54E025
:10131600FEEF04541F4EF0E0549F4420F0021603E3
:10132600E59AB4A517900000E0FF54E0FEEF0454E0
:101336001F4EF0E0549F4440F0021603E59A9000D9
:1013460000B45512E0FF54E0FEEF04541F4EF0E0E7
:101356004460F00216030215FB900000E0C413542B
:101366000364016003021407E0541F64016007E090
:10137600541FFFBF021C900000E0FF54E0FEEF5434
:101386001FFC04541F4EF0744A2CF582E43400020C
:1013960014E6900000E0541F64036003021603E5A0
:1013A6009A640D600302160390004BE0FC24AAFE2B
:1013B600900066F090004CE06E6003021603900009
:1013C60000E054E0F0E04480F0EC70099000017415
:1013D6003CF002160390004BE05407FF900003E038
:1013E60054076F600302160390004BE0FD131313BE
:1013F6005407900075F0EDC413135403243C0214F3
:10140600A5900000E0C4135403640260030214B202
:10141600E0541F6401600EE0541F64026007E0544C
:101426001FFFBF031C900000E0FF54E0FEEF541FB7
:10143600FC04541F4EF074412CF582E4340002146F
:10144600E6900000E0541F6404705BE59A645A70ED
:1014560055900042E0FC24A5FEA3E02EFE90006617
:10146600F0900044E06E6003021603900000E05422
:10147600E0F0E04480F0EC30E7099000017401F000
:10148600021603900042E0FF5407FE900003E0546A
:10149600076E6003021603EF13131354072402901A
:1014A6000001F00216039000000215FB900000E018
:1014B600C4135403640360030215F8E0541FD39465
:1014C600004025E0541F9407501EE0FF54E0FEEF55
:1014D600541FFC04541F4EF074442CF582E434006F
:1014E600F583E59AF0021603900000E0541F6407A6
:1014F60060030215F3E59A64D060030215F39000C9
:1015060045E02455FFA3E02FFFA3E02FFFA3E02F24
:10151600FFA3E02FFF900066F090004AE06F6003A3
:10152600021603900000E054E0F0E04480F09000E2
:1015360045E0FF5407FE900003E054076E60030287
:101546001603EF13131354072407FF900046E075A4
:10155600F005A42F900001F0900047E0FFE4FCFDA9
:10156600FE90007A12043690007AE0FCA3E0FDA318
:10157600E0FEA3E0FF780812042390007A120436F6
:1015860090007AE0F8A3E0F9A3E0FAA3E0FB90006C
:1015960048E0FFE4FCFDFEEB2FFFEE3AFEED39FDE1
:1015A600EC38FC90007A12043690007AE0FCA3E056
:1015B600FDA3E0FEA3E0FF780812042390007A1250
:1015C600043690007AE0F8A3E0F9A3E0FAA3E0FB82
:1015D600900049E0FFE4FCFDFEEB2FFFEE3AFEED46
:1015E60039FDEC38FC90007A120436801090000029
:1015F6008003900000E054E0F08002C2F9D007D0EA
:1016060006D005D004D003D002D001D000D0D0D06F
:0816160082D083D0F0D0E03255
:10246200410079004100670041004D0041007E00BB
:0424720041007800AD
:08000300C2F98F9A30F9FD22C9
:10214500E4900079F0900079E0C3943240F7E4FF21
:1021550012200A900003EFF0E020E362C2AF7F4156
:102165001200037F541200037F2B1200037F4E12CF
:1021750000037F411200037F4D1200037F451200CB
:10218500037F571200030F1200037F431200037FE2
:102195004C1200037F4A1200037F2D120003E05406
:1021A500072430FF1200037F0D1200037F0A12007F
:0F21B50003E04408F0E0FDE4FF1220A9D2AF22BE
:1023D60075F85075C40853C4DF7598504387805309
:1023E600C4F843C42043A20475C6FF75C59843C408
:0923F60008759C01D299D2AC22B9
:1024B40075B11075B28B75B33875B41F75AC01E482
:0324C400F5AD2251
:1024C700758901438E08758C06E4F58AD2A9D2AFC7
:0324D700D28C2282
:0725360053E8F075F61122D5
:0A252400D294D29375BE09D2C622EC
:1024DA00C2AF75C7AA75C75575AAD7E5AA20E6FB84
:0324EA00D2AF224C
:10249A00C290C291C280C281C292E4900079F09047
:0A24AA000004F0900076F0A3F02289
:102422001224B41224C712253612249A900079E09D
:10243200C3941940F71223D61225241221450224EF
:01244200DABF
:1024ED00C2AF75C7AA75C75543AA40E5AA20E6FB3A
:0324FD00D2AF2239
:10002600900090EFF0C007A3E0FCA3E0FDA3E0FE84
:10003600A3E0FF7810120410AD07D0071220A99094
:100046000090E004FFC007A3E0FCA3E0FDA3E0FEF0
:10005600A3E0FF7808120410AD07D0071220A9907C
:0F0066000090E02402FFA3A3A3A3E0FD0220A9C2
:0B1CBE00900075E075F032A42405FFD3
:061CC900900090EFF0FB1B
:101CCF00A312044200000000AF0312200AE4FCFD3F
:101CDF00FE900091120436900091E0FCA3E0FDA36A
:101CEF00E0FEA3E0FF78081204239000911204365F
:101CFF00900091E0F8A3E0F9A3E0FAA3E0FBC000A5
:101D0F00C001C002C003900090E004FF12200AE45B
:101D1F00FCFDFED003D002D001D000EB2FFFEE3A36
:101D2F00FEED39FDEC38FC900091120436900091D5
:101D3F00E0FCA3E0FDA3E0FEA3E0FF78081204237C
:101D4F00900091120436900091E0F8A3E0F9A3E01F
:101D5F00FAA3E0FBC000C001C002C003900090E0F6
:101D6F002402FF12200AE4FCFDFED003D002D001B2
:101D7F00D000EB2FFFEE3AFEED39FDEC38FC900072
:101D8F0091120436900091E0FCA3E0FDA3E0FEA3C6
:021D9F00E0FF63
:011DA100221F
:0A161E0090008EEDF090008DEFF0CB
:10162800E490008FF0C00790007AE0FCA3E0FDA3EF
:10163800E0FEA3E0FF900091120436D007120026C6
:1016480090008DE02403FFC007900071E0FCA3E048
:10165800FDA3E0FEA3E0FF900091120436D007122C
:10166800002690008DE0FF121CC990008EE025E056
:1016780025E0240AF582E43400F58312043690004C
:101688008DE02403FF121CC990008EE0FB25E025A5
:10169800E02426F582E43400F583120436EB25E0D5
:1016A80025E0240AF582E43400F583E0FCA3E0FD9C
:1016B800A3E0FEA3E0FF90007AE0F8A3E0F9A3E03E
:1016C800FAA3E0FBC31203FF600302192290008E05
:1016D800E0FF6401701BEF25E025E0240AF582E4B1
:1016E8003400F583E0FCA3E0FDA3E0FEA3E0FF8067
:1016F8004190008EE0FF25E025E02406F582E434E1
:1017080000F583E0F8A3E0F9A3E0FAA3E0FBEF25F6
:10171800E025E0240AF582E43400F583E0FCA3E048
:10172800FDA3E0FEA3E0C39BFFEE9AFEED99FDEC5E
:1017380098FCE412031C90008EE0FB25E025E024D1
:101748004AF582E43400F583120436EB25E025E0FF
:10175800244AF582E43400F583C083C082E0FCA308
:10176800E0FDA3E0FEA3E0FFC004C005C006C0077B
:1017780090008EE0FF25E025E02422F582E4340085
:10178800F583E0F8A3E0F9A3E0FAA3E0FBEF25E096
:1017980025E02426F582E43400F583E0FCA3E0FD8F
:1017A800A3E0FEA3E0C39BFFEE9AFEED99FDEC9843
:1017B800FCE412031CA804A905AA06AB07D007D0AD
:1017C80006D005D00412027FD082D083120436E4FA
:1017D8007F64FEFDFC900006E0F8A3E0F9A3E0FAC0
:1017E800A3E0FBD31203FF50089000687404F08054
:1017F80068E47FE87E03FDFC900006E0F8A3E0F9CA
:10180800A3E0FAA3E0FBD31203FF5008900068742A
:1018180003F08045E47F107E27FDFC900006E0F889
:10182800A3E0F9A3E0FAA3E0FBD31203FF50028080
:101838001BE47F107E27FDFC900006E0F8A3E0F98A
:10184800A3E0FAA3E0FBD31203FF500890006874EA
:1018580002F08005E4900068F07FAA12000390006F
:101868008EE0F925E025E0240AF582E43400F583CA
:10187800E0FCA3E0FDA3E0FEA3E0FF781012041053
:10188800AB07EB24AAFAE925E025E0240EF582E46B
:101898003400F583E0FCA3E0FDA3E0FEA3E0FF78BD
:1018A80008120410EA2FFAE925E025E0240AF58257
:1018B800E43400F583A3A3A3E02AFF900068E02F97
:1018C800900066F0AF0312000390008EE025E0253B
:1018D800E0240AF582E43400F583E0FCA3E0FDA3EC
:1018E800E0FEA3E0FF780812041012000390008EB7
:1018F800E025E025E0240AF582E43400F583A3A37B
:10190800A3E0FF120003900068E0FF1200039000BC
:0F19180066E0FF1200037F0D80027F4E12000376
:01192700229D
:10232A007FAA120003900069E0FCA3E0FDA3E0FE8F
:10233A00A3E0FF7810120410120003900069E0FC79
:10234A00A3E0FDA3E0FEA3E0FF7808120410120048
:10235A0003900069A3A3A3E0FF120003900068E0C2
:09236A00FF1200037F0D020003C5
:100BDE00E490008EF0900075E075F032A404FF12E0
:100BEE00200A900083EFF0E01313540390007EF080
:100BFE00900075E075F032A42402FF121CC990001B
:100C0E0006120436121CBE90000A120436900075AD
:100C1E00E075F032A42408FF121CC99000261204BD
:100C2E0036900075E075F032A4240BFF121CC990AB
:100C3E00000E120436900075E075F032A4240EFFFB
:100C4E00121CC990002A120436900075E075F0321D
:100C5E00A42411FF121CC9900012120436900075C4
:100C6E00E075F032A42414FF121CC990002E120459
:100C7E0036900075E075F032A42417FF121CC9904F
:100C8E000016120436900075E075F032A4241AFF97
:100C9E00121CC9900032120436900075E075F032C5
:100CAE00A4241DFF121CC990001A12043690007560
:100CBE00E075F032A42420FF121CC99000361204F5
:100CCE0036900075E075F032A42423FF121CC990F3
:100CDE00001E120436900075E075F032A42426FF33
:100CEE00121CC990003A120436900075E075F0326D
:100CFE00A42429FF121CC9900022120436900075FC
:100D0E00E075F032A4242CFF121CC990003E120490
:100D1E0036900026E0FCA3E0FDA3E0FEA3E0FFA3D7
:100D2E00E0F8A3E0F9A3E0FAA3E0FBD31203FF403F
:100D3E007A90000EE0FCA3E0FDA3E0FEA3E0FFE44A
:100D4E0012031C90004E12043690004EE0FCA3E0FD
:100D5E00FDA3E0FEA3E0FFC004C005C006C00790DF
:100D6E000026E0F8A3E0F9A3E0FAA3E0FBA3E0FC81
:100D7E00A3E0FDA3E0FEA3E0C39BFFEE9AFEED9978
:100D8E00FDEC98FCE412031CA804A905AA06AB0707
:100D9E00D007D006D005D00412027F90004E120468
:100DAE003690004E1204423F80000090008E740177
:100DBE00F090008EE0FFC394064003020F06EF256D
:100DCE00E025E02426F582E43400F583E0F8A3E084
:100DDE00F9A3E0FAA3E0FBEF25E025E0242AF58253
:100DEE00E43400F583E0FCA3E0FDA3E0FEA3E0FF06
:100DFE00C31203FF4003020EFD90008EE0FF25E0BC
:100E0E0025E0240AF582E43400F583E0F8A3E0F946
:100E1E00A3E0FAA3E0FBEF25E025E0240EF582E443
:100E2E003400F583E0FCA3E0FDA3E0FEA3E0C39B4A
:100E3E00FFEE9AFEED99FDEC98FCE412031C900077
:100E4E008EE0FB25E025E0244EF582E43400F583A8
:100E5E00120436EB25E025E0244EF582E43400F54D
:100E6E0083C083C082E0FCA3E0FDA3E0FEA3E0FF0D
:100E7E00C004C005C006C00790008EE0FF25E02527
:100E8E00E02426F582E43400F583E0F8A3E0F9A32C
:100E9E00E0FAA3E0FBEF25E025E0242AF582E43416
:100EAE0000F583E0FCA3E0FDA3E0FEA3E0C39BFFFF
:100EBE00EE9AFEED99FDEC98FCE412031CA804A931
:100ECE0005AA06AB07D007D006D005D00412027FC4
:100EDE00D082D08312043690008EE025E025E024E7
:100EEE004EF582E43400F5831204423F80000090F8
:100EFE00008EE004F0020DBFE47F64FEFDFC900066
:100F0E0006E0F8A3E0F9A3E0FAA3E0FBD31203FF97
:100F1E0050079000687404F022E47FE87E03FDFC25
:100F2E00900006E0F8A3E0F9A3E0FAA3E0FBD312E9
:100F3E0003FF50079000687403F022E47F107E27B1
:100F4E00FDFC900006E0F8A3E0F9A3E0FAA3E0FBB5
:100F5E00D31203FF5002801BE47F107E27FDFC900E
:100F6E000006E0F8A3E0F9A3E0FAA3E0FBD3120336
:0F0F7E00FF50079000687402F022E4900068F0C2
:010F8D002241
:101E8000900026E0FCA3E0FDA3E0FEA3E0FF9000AD
:101E900071E0F8A3E0F9A3E0FAA3E0FBD31203FF9B
:101EA0004027900026E0F8A3E0F9A3E0FAA3E0FBC6
:101EB000900071E0FCA3E0FDA3E0FEA3E09BFFEE39
:101EC0009AFEED99FDEC988033900071E0F8A3E064
:101ED000F9A3E0FAA3E0FB900026E0FCA3E0FDA359
:101EE000E0FEA3E0C39BFFEE9AFEED99FDEC98FCAB
:101EF000E42FFFE43EFEED3480FDE43CFC90007AEC
:101F0000120436900075E075F032A42405FFC00776
:101F100090007AE0FCA3E0FDA3E0FEA3E0FF9000C8
:101F200091120436D007120026121CBE90000A122D
:101F3000043690007AE0FCA3E0FDA3E0FEA3E0FFFE
:101F400090000AE0F8A3E0F9A3E0FAA3E0FBC312D3
:0E1F500003FF70047F5980027F4E12000322AF
:10192800E490008DF0120BDE900006E0FCA3E0FDD1
:10193800A3E0FEA3E0FF7810120410EF24AAFB90A6
:101948000006E0FCA3E0FDA3E0FEA3E0FF78081298
:101958000410EB2FFB900006A3A3A3E02BFF90003D
:1019680083E02F900066F07FAA120003900083E0C6
:10197800FF120003900006E0FCA3E0FDA3E0FEA335
:10198800E0FF7810120410120003900006E0FCA398
:10199800E0FDA3E0FEA3E0FF7808120410120003A4
:1019A800900006A3A3A3E0FF120003E490008DF0CB
:1019B80090008DE0F9C394064003021A6EE0FB25FF
:1019C800E025E0240EF582E43400F583E0FCA3E092
:1019D800FDA3E0FEA3E0FF7808120410AA07EB2598
:1019E800E025E0240EF582E43400F583E0FCA3E072
:1019F800FDA3E0FEA3E0FF7810120410AB07EB2A6A
:101A0800FAE925E025E0240EF582E43400F583A305
:101A1800A3A3E02AFF900066E02FF0AF03120003B3
:101A280090008DE025E025E0240EF582E43400F5F1
:101A380083E0FCA3E0FDA3E0FEA3E0FF7808120426
:101A48001012000390008DE025E025E0240EF582B9
:101A5800E43400F583A3A3A3E0FF12000390008DF4
:101A6800E004F00219B8900066E0FF1200037F0D51
:031A780002000366
:10082C00900000E020E703020BDDE0547FF0900025
:10083C0001E0FFD394005003020BDDC2AFEFB43FD5
:10084C0006121E80020BD6900001E0643C701B7FE8
:10085C00AA120003900003E05407FF12000390005B
:10086C0003E0540724AAFF020A76900001E0B43D8D
:10087C0006121928020BD6900001E0FDB43E0A9036
:10088C000076E04408F0020BD6ED6401702690006F
:10089C0043E0FDE4FF1220A9E4FF12200A900003BC
:1008AC00EFF0900043E0FF900003E0B50703020B6C
:1008BC0045020A7E900001E0FFC394075046EF7595
:1008CC00F032A4249DFF900043E0FD1220A990007B
:1008DC0001E075F032A4249DFF12200A900083EFF2
:1008EC00F0900043E0FF900083E0B507147F5912AD
:1008FC000003900083E01313540390007EF0020B6E
:10090C00D6020A7E900001E0FFC3940C4003020A59
:10091C0083EF75F032A424A4FFC00790007AE0FCAA
:10092C00A3E0FDA3E0FEA3E0FF900091120436D0FB
:10093C0007120026900001E075F032A424A4FF12E7
:10094C001CC990000612043690007AE0FCA3E0FD6E
:10095C00A3E0FEA3E0FF900006E0F8A3E0F9A3E01B
:10096C00FAA3E0FBC31203FF6003020A7E7F64FE5E
:10097C00FDFC900006E0F8A3A3A3E0D31203FF5004
:10098C00089000687404F08068E47FE87E03FDFC46
:10099C00900006E0F8A3E0F9A3E0FAA3E0FBD31281
:1009AC0003FF50089000687403F08045E47F107ECC
:1009BC0027FDFC900006E0F8A3E0F9A3E0FAA3E021
:1009CC00FBD31203FF5002801BE47F107E27FDFC3B
:1009DC00900006E0F8A3E0F9A3E0FAA3E0FBD31241
:1009EC0003FF50089000687402F08005E4900068E2
:1009FC00F07FAA120003900006E0FCA3E0FDA3E048
:100A0C00FEA3E0FF7810120410AB07EB24AAFA90B7
:100A1C000006E0FCA3E0FDA3E0FEA3E0FF780812D3
:100A2C000410EA2FFA900006A3A3A3E02AFF90007B
:100A3C0068E02F900066F0AF03120003900006E010
:100A4C00FCA3E0FDA3E0FEA3E0FF78081204101263
:100A5C000003900006A3A3A3E0FF1200039000681C
:100A6C00E0FF120003900066E0FF1200037F0D020E
:100A7C000B4B7F4E020B4B900001E0FFC3941140D7
:100A8C0003020B51EF75F032A424ADFFC0079000A8
:100A9C009112044200000000D007120026900001C1
:100AAC00E075F032A424ADFF121CC990000A1204A8
:100ABC0036900071E0FCA3E0FDA3E0FEA3E0FF9004
:100ACC00006D120436900001E075F032A424B0FFE2
:100ADC00C00790006DE0FCA3E0FDA3E0FEA3E0FFE7
:100AEC00900091120436D007120026900001E07598
:100AFC00F032A424B0FF121CC990002612043690C8
:100B0C00006DE0FCA3E0FDA3E0FEA3E0FF90002657
:100B1C00E0F8A3E0F9A3E0FAA3E0FBC31203FF7033
:100B2C001CFFFEFDFC90000AE0F8A3E0F9A3E0FA3C
:100B3C00A3E0FBC31203FF70047F5980027F4E12A7
:100B4C000003020BD6900001E0FFC39416500CEF8B
:100B5C0075F032A424B9FF7D01806C900001E0FF98
:100B6C00C3941B500CEF75F032A424C5FF7D02809A
:100B7C0056900001E0FFC39420500CEF75F032A4A6
:100B8C0024D1FF7D038040900001E0FFC3942550E9
:100B9C000CEF75F032A424DDFF7D04802A90000157
:100BAC00E0FFC3942A500CEF75F032A424E9FF7DCA
:100BBC00058014900001E0FFC3942F500DEF75F0E9
:100BCC0032A424F5FF7D0612161EE4900001F0D22B
:020BDC00AF2246
:1004730090000AA3E0FDA3A3E4FFFEED5480FDE496
:10048300FCFBFAF9F8C31203FF90000A5028A3E01B
:10049300FDA3E0FEA3E0FFED547FFDE4FC900071BB
:1004A300E0F8A3E0F9A3E0FAA3E02FFFEA3EFEE9B8
:1004B3003DFDEC388023E0F8A3E0F9A3E0FAA3E0E4
:1004C300FB900071E0FCA3E0FDA3E0FEA3E0C39B6F
:1004D300FFEE9AFEED99FDEC98FC90007F12043636
:1004E300900026E0FCA3E0FDA3E0FEA3E0FF900064
:1004F3007FE0F8A3E0F9A3E0FAA3E0FBC31203FF54
:10050300505290007FE0F8900026E0FCA3E0FDA3AA
:10051300E0FEA3E0C39BFFEE9AFEED99FDEC98FC91
:10052300E412031C90004EE0F8A3E0F9A3E0FAA361
:10053300E0FB12017612035A900069120436900010
:1005430069E0FCA3E0FDA3E0FEA3E0FFED4480FD32
:10055300EC02082590002AE0FCA3E0FDA3E0FEA343
:10056300E0FF90007FE0F8A3E0F9A3E0FAA3E0FB4B
:10057300C31203FF5042900026E0F8A3E0F9A3E082
:10058300FAA3E0FB90007FE0FCA3E0FDA3E0FEA361
:10059300E0C39BFFEE9AFEED99FDEC98FCE4120399
:1005A3001C90004EE0F8A3E0F9A3E0FAA3E0FB12ED
:1005B300017612035A02082590002EE0FCA3E0FD09
:1005C300A3E0FEA3E0FF90007FE0F8A3E0F9A3E03F
:1005D300FAA3E0FBC31203FF506790002AE0F8A3DD
:1005E300E0F9A3E0FAA3E0FB90007FE0FCA3E0FDC9
:1005F300A3E0FEA3E0C39BFFEE9AFEED99FDEC980A
:10060300FCE412031C900052E0F8A3E0F9A3E0FA23
:10061300A3E0FB120176C004C005C006C00790002A
:100623000EE0FCA3E0FDA3E0FEA3E0FFE412031C45
:10063300D003D002D001D00012008512035A020861
:1006430025900032E0FCA3E0FDA3E0FEA3E0FF90D1
:10065300007FE0F8A3E0F9A3E0FAA3E0FBC31203F1
:10066300FF506790002EE0F8A3E0F9A3E0FAA3E0BF
:10067300FB90007FE0FCA3E0FDA3E0FEA3E0C39BAF
:10068300FFEE9AFEED99FDEC98FCE412031C90003A
:1006930056E0F8A3E0F9A3E0FAA3E0FB120176C069
:1006A30004C005C006C007900012E0FCA3E0FDA350
:1006B300E0FEA3E0FFE412031CD003D002D001D07C
:1006C3000012008512035A020825900036E0FCA3AD
:1006D300E0FDA3E0FEA3E0FF90007FE0F8A3E0F9D4
:1006E300A3E0FAA3E0FBC31203FF5067900032E0DC
:1006F300F8A3E0F9A3E0FAA3E0FB90007FE0FCA3FA
:10070300E0FDA3E0FEA3E0C39BFFEE9AFEED99FD9F
:10071300EC98FCE412031C90005AE0F8A3E0F9A360
:10072300E0FAA3E0FB120176C004C005C006C007CF
:10073300900016E0FCA3E0FDA3E0FEA3E0FFE412BB
:10074300031CD003D002D001D00012008512035A3B
:1007530002082590003AE0FCA3E0FDA3E0FEA3E03D
:10076300FF90007FE0F8A3E0F9A3E0FAA3E0FBC366
:100773001203FF5049900036E0F8A3E0F9A3E0FA32
:10078300A3E0FB90007FE0FCA3E0FDA3E0FEA3E079
:10079300C39BFFEE9AFEED99FDEC98FCE412031C5B
:1007A30090005EE0F8A3E0F9A3E0FAA3E0FB1201F6
:1007B30076C004C005C006C00790001A80479000A9
:1007C3003AE0F8A3E0F9A3E0FAA3E0FB90007FE0AE
:1007D300FCA3E0FDA3E0FEA3E0C39BFFEE9AFEEDC6
:1007E30099FDEC98FCE412031C900062E0F8A3E08E
:1007F300F9A3E0FAA3E0FB120176C004C005C0062A
:10080300C00790001EE0FCA3E0FDA3E0FEA3E0FF11
:10081300E412031CD003D002D001D00012008512D1
:09082300035A9000691204362208
:10223E00900076E020E03A209517A3E030E206E029
:10224E0054FBF0B290900077E0547FF0C281C292BE
:10225E0022900077E020E716E04480F0D292E490DE
:10226E000079F0900079E0C3941440F7D281D290B7
:10227E0022900077E030E206E054FBF0B29090003E
:10228E0077E030E106E054FDF0B291900077E02067
:10229E00E716E04480F0D292E4900079F090007955
:0922AE00E0C3941440F7D2812230
:1023FF00900077E020E00B900076E020E204E030E0
:10240F00E00E900077E030E109E054FDF0B2912248
:03241F00D2912235
:10244300900005E030E417E030E5139000047401D8
:0F245300F0C290C291C280900005E054DFF022E9
:1021C400900005E030E407209104D280D291900081
:1021D40005E030E42130B01EE054EFF0E4900079E3
:1021E400F0900079E0C3941440F79000047402F076
:1021F400900067743AF0900005E030E614E030E5B2
:1022040010900076E04401F0900005E054DFF0D235
:1022140090900005E030E62130B01EE054BFF0E4B9
:10222400900079F0900079E0C3941440F790000492
:0A2234007402F0900067743AF02283
:1023A700900076E020E21EA3E030E61DE054BFF087
:1023B700308116121A7B120473900076E030E3091D
:0F23C70012232A8004C292C28112223E022443B2
:10250000900004E024FE6007240270060221C41239
:0325100023A722DC
:0424760041009A0087
:101BCB00900005E0540714603F1460671470030223
:101BDB001C7A147003021CA0147003021CB624059B
:101BEB006003021CBD900005E054F820B0184401BE
:101BFB00F0E490009AF0900005E054F7F0E054EF19
:101C0B00F0E054DFF022F02290009AE0D3940250DF
:101C1B0003021CBD900005E054F820B0144402F000
:101C2B00E490009AF0900005E04408F0E04420F0C6
:101C3B0022F02290009AE0D39402401130B00E9023
:101C4B000005E054F84403F0E490009AF090009AF9
:101C5B00E0D39446405C20B059900005E054F84422
:101C6B0003F0E490009AF0900005E04410F022900D
:101C7B00009AE0FDD39405403930B0028023EDD3B8
:101C8B0094D2402E20B02B900005E054F84404F081
:101C9B00E04440F02290009AE0D39405401430B019
:101CAB0011900005E054F84405F022900005E05433
:031CBB00F8F0221C
:04247A0041008C0091
:10000E0000000000000000000000000000000000E2
:05001E000000000022BB
:101A7B00C28390008412044200000000308409905D
:101A8B000076E04402F080F4900076E054FDF0E044
:101A9B0054FBF0E490004DF090008CF0900084E04B
:101AAB00FCA3E0FDA3E0FEA3E0FF7801120423906A
:101ABB000084120436D28312000E308417900084F7
:101ACB00E0FCA3E0FDA3E0FEA3E04401FFEC9000EB
:101ADB0084120436C28312000E90008CE004F0E0F6
:101AEB00C3941840B7D28312000EC283900077E0E4
:101AFB0030E40EE054EFF012000ED28312000EC24F
:101B0B0083900084E0FCA3E0FDA3E0FEA3E0FFEDE7
:101B1B006480FDEC900084120436900071E0FCA30D
:101B2B00E0FDA3E0FEA3E0FF9000881204369000D6
:101B3B0084E0FCA3E0FDA3E0FEA3E0FF90007EE0C9
:101B4B002404F9F8120410900071120436900071FD
:101B5B00E0FCA3E0FDA3E0FEA3E0FBAA06A905A819
:101B6B0004900088E0FCA3E0FDA3E0FEA3E0C39B90
:101B7B00FFEE9AFEED99FDEC98FC12252EE47B020C
:101B8B00FAF9F8D31203E94036900088E0FCA3E0A1
:101B9B00FDA3E0FEA3E0FF900071E0F8A3E0F9A342
:101BAB00E0FAA3E0FBD31203FF4014900088E0FCA3
:101BBB00A3E0FDA3E0FEA3E0FF9000711204362228
:1023730053E8F0EF42E843E101C2EFD2EE30EFFD64
:10238300AFC27E00EF7802CEC313CE13D8F9FDACF3
:1023930006AFC3EF75F004A42DFDE5F03C53E1FE59
:0323A300FEAF0585
:0123A6002214
:1022B700900077E030E56BE054DFF0E4FF12237322
:1022C700900095EEF0A3EFF07F04122373A3EEF0D6
:1022D700A3EFF0900095E0FCA3E0FDC39430EC94ED
:1022E70002400E900098E09430900097E0940250DE
:1022F7000B900077E020E004E04401F0900077E0E5
:1023070030E01FD3ED9444EC94024016D39000962E
:10231700E09444900095E094024007900077E054E1
:03232700FEF022A3
:10247F00E5BD7016900077E04408F0D2C4C2C330B7
:0B248F00C308C2C6D2C6C2C3C2C62228
:10200A00D2C5C2C330C3FDE5BD640860028060C2A8
:10201A00C575BCA0C2C330C3FDE5BD6418600280AB
:10202A004E8FBCC2C330C3FDE5BD64286002803F49
:10203A00D2C5C2C330C3FDE5BD641060028030C2A0
:10204A00C575BCA1C2C330C3FDE5BD644060028052
:10205A001ED2C2C2C330C3FDE5BD64506002800F08
:10206A00AEBCC2C2C2C330C3FDE5BD6458600990AC
:10207A000077E04408F08011C2C3D2C430C40A1207
:10208A00247F900077E030E3F3900077E030E30CB0
:0E209A0012247F900077E054F7F0AEBDAF0641
:0120A8002215
:1020A900D2C5C2C330C3FDE5BD640860028052C217
:1020B900C575BCA0C2C330C3FDE5BD64186002800C
:1020C900408FBCC2C330C3FDE5BD642860028031C6
:1020D900AF058FBCC2C330C3FDE5BD642860028073
:1020E90020D2C4C2C330C40C12247F900077E030E0
:1020F900E3F38036D2C5C2C330C3FDE5BD640860D1
:1021090009900077E04408F08020C2C575BCA0C2E0
:10211900C330C3FDE5BDB418C8D2C4C2C330C40AB4
:1021290012247F900077E030E3F3900077E030E30A
:0B2139000A12247F900077E054F7F0BA
:012144002278
:10007E000203C6E86480F8E933E83360110460F0E7
:10008E00ED33EC337009E8FCE9FDEAFEEBFF2204E8
:10009E0060DED3EB9FEA9EE99DE8C2E78CF0C2F7E3
:1000AE0095F0400CE8CCF8E9CDF9EACEFAEBCFFBAF
:1000BE0012039185D0F05804700320D5B3E8047074
:1000CE00075002B2D50203D092D5EC0460F7E4CC0F
:1000DE00C0E0C398F8603B94186008400DD0E0FB78
:1000EE000203A8E4FBFAC9FC8028E830E406E4C960
:1000FE00FBE4CAFCE830E305E4C9CACBFCE85407CC
:10010E006010F8C3E913F9EA13FAEB13FBEC13FCD6
:10011E00D8F130F52FC3E49CFCEF9BFFEE9AFEED79
:10012E0099FDD0E0FBEF4E4D4C701222DB03020323
:10013E00CDEC2CFCEF33FFEE33FEED33FDED30E76F
:10014E00EB0203A8EF2BFFEE3AFEED39FDD0E0FBFC
:10015E0050130BBB00030203D0ED13FDEE13FEEFA5
:08016E0013FFEC13FC0203A8CF
:10017600EC4D6011E8497017ED33EC3304600DE483
:10018600FCFFFEFD22E933E8330470F80203C612D1
:10019600039158046009E4CC2481500628500902D2
:1001A60003D02840030203CDC0E0EB4A7044B98077
:1001B60006D0E0FB0203BCEF4E701CBD8008EBFFCF
:1001C600EAFEE9FD80EBE98DF0A4FEE5F002025FB0
:1001D600E9CDF9EAFEEBFFEF89F0A4FCE5F0CE8964
:1001E600F0A42EFFE435F0CD89F0A42DFEE435F021
:1001F6008067EF4E7005BD80D780C3EF8BF0A4AC4F
:10020600F0EE8BF0A42CFCE435F0F8EF8AF0A42C89
:10021600E5F038FCE433CB8DF0A42CFCE5F03BF89C
:10022600EE8AF0A42CFCE5F038F8E433CF89F0A48C
:100236002CFCE5F038CF3400CE89F0A42FFFE5F092
:100246003EFEE433C98DF0A42EFEE5F039CD8AF0EA
:10025600A42FFFE5F03EFEE43DFD33D0E0FB500762
:100266000BBB000F0203D0EC2CFCEF33FFEE33FE8A
:06027600ED33FD0203A8B8
:10027C000203D0EC5D046005E8590470030203C668
:10028C00120391580460F6EC4860F2EC7004FDFE29
:10029C00FF22C860DB2481C85009C3986002500655
:1002AC000203CD9850CAF582E9294B4A7005AB82FE
:1002BC000203BC75F0007C1A7880C3EF9BEE9AEDBC
:1002CC0099400DC3EF9BFFEE9AFEED99FDE842F0CD
:1002DC00DC23ACF0D0E0FFD0E0FED0E0FDAB822020
:1002EC00E7101BEB60BAEC2CFCEF33FFEE33FEEDAA
:1002FC0033FD0203A8E803F830E705C0F075F00001
:10030C00EF2FFFEE33FEED33FD40B830E7C280AA8D
:10031C0075F020800E75F010800575F0087D007E5C
:10032C00007F003392D530D5031203DBEC33401041
:10033C00EF33FFEE33FEED33FDEC33FCD5F0ED2265
:0E034C00E5F0247EA2D513CC92E7CDCEFF22A1
:10035A00EDD2E7CD33EC3392D524814006E4FFFE9B
:10036A00FDFC22FCE4CFCECDCC24E0501174FF80FA
:10037A00EDC3CC13CCCD13CDCE13CECF13CF047097
:07038A00F030D5DE0203DBB9
:10039100E9D2E7C933E833F892D5EDD2E7CD33ECB2
:0703A10033FC5002B2D5222B
:1003A800EC30E7100FBF000C0EBE00080DBD0004B6
:1003B8000BEB6014A2D5EB13FCED92E7FD2274FF62
:1003C800FCFDFEFF22E480F8A2D574FF13FC7D80BB
:0303D800E480EFCF
:101F8A00022513E493A3F8E493A34003F68001F235
:101F9A0008DFF48029E493A3F85407240CC8C33358
:101FAA00C4540F4420C8834004F456800146F6DF27
:101FBA00E4800B0102040810204080902462E47E31
:101FCA00019360BCA3FF543F30E509541FFEE4931C
:101FDA00A360010ECF54C025E060A840B8E493A3E3
:101FEA00FAE493A3F8E493A3C8C582C8CAC583CA0E
:101FFA00F0A3C8C582C8CAC583CADFE9DEE780BEC6
:01247E00005D
:0E03DB00C3E49FFFE49EFEE49DFDE49CFC2233
:1003E900EB9FF5F0EA9E42F0E99D42F0EC6480C88B
:0603F90064809845F0222B
:1003FF00EB9FF5F0EA9E42F0E99D42F0E89C45F054
:01040F0022CA
:10041000E8600FECC313FCED13FDEE13FEEF13FFCA
:03042000D8F122EE
:10042300E8600FEFC333FFEE33FEED33FDEC33FC37
:03043300D8F122DB
:0C043600ECF0A3EDF0A3EEF0A3EFF02239
:10044200A8828583F0D083D08212045912045912F3
:100452000459120459E473E493A3C583C5F0C58318
:10046200C8C582C8F0A3C583C5F0C583C8C582C804
:010472002267
:08252E00EC30E7031203DB228D
:00000001FF
