:03000000021F924A
:101F920075C7AA75C75575FD5A75C7AA75C7557510
:101FA200FDA5787FE4F6D8FD9000007FFF7E03E474
:0C1FB200F0A3DFFCDEFA758107021FF9C6
:1024D7001223E6121C1612087B1224C41224B180A0
:0124E700F202
:03000B00021ECB07
:101ECB00C0E0C0F0C083C082C0D075D000C0077521
:101EDB008C06758A0090007AE004F0E0FF75F0053F
:101EEB0084E5F0700690009BE004F0EF75F0198428
:101EFB00E5F0702D900078E04440F0900077E030F2
:101F0B00E11390004EE004F0E0D3941E40079000E4
:101F1B0077E04404F0900077E030E205A3E0440260
:101F2B00F090007AE075F07D84E5F070109000770A
:101F3B00E030E009A3E04404F0E04402F090007AC2
:101F4B00E0D394F94013E4F0900068E004F09000C3
:101F5B0078E030E004E04402F0900068E0D3943B7A
:101F6B004018E4F075F01E84E5F07007900078E0FF
:101F7B004410F0900078E04420F0D007D0D0D0820D
:071F8B00D083D0F0D0E0325A
:03002300021313B2
:10131300C0E0C0F0C083C082C0D075D000C000C0A0
:1013230001C002C003C004C005C006C00720980363
:10133300021645C298900000E0541F7052E599B41C
:10134300AA14E0FF54E0FEEF04541F4EF0E0549F54
:101353004420F0021647E599B4A517900000E0FF7A
:1013630054E0FEEF04541F4EF0E0549F4440F0025B
:101373001647E599900000B45512E0FF54E0FEEFE4
:1013830004541F4EF0E04460F002164702163F90EB
:101393000000E0C41354036401600302143AE054F0
:1013A3001F64016007E0541FFFBF021C900000E0B0
:1013B300FF54E0FEEF541FFC04541F4EF0744B2CFB
:1013C300F582E43400021520900000E0541F64030A
:1013D3006003021647E599640D6003021647900007
:1013E3004CE0FC24AAFE900067F090004DE06E6094
:1013F30003021647900000E054E0F0E04480F0EC74
:101403007009900001743CF002164790004CE054C0
:1014130007FF900003E054076F6003021647900034
:101423004CE0FD1313135407900076F0EDC413132F
:101433005403243C0214DF900000E0C413540364FB
:101443000260030214ECE0541F6401600EE0541FB9
:1014530064026007E0541FFFBF031C900000E0FF1D
:1014630054E0FEEF541FFC04541F4EF074422CF55D
:1014730082E43400021520900000E0541F640470DD
:1014830062E599645A705C900043E0FC24A5FEA3D6
:10149300E02EFE900067F0900045E06E60030216B8
:1014A30047900000E054E0F0E04480F0EC30E710B7
:1014B300900044E02408F09000017401F002164704
:1014C300900043E0FF5407FE900003E054076E6072
:1014D30003021647EF13131354072402900001F07D
:1014E30002164790000002163F900000E0C4135418
:1014F300036403600302163CE0541FD394004025A9
:10150300E0541F9407501EE0FF54E0FEEF541FFC0D
:1015130004541F4EF074452CF582E43400F583E542
:1015230099F0021647900000E0541F64076003021D
:101533001637E59964D06003021637900046E0241D
:1015430055FFA3E02FFFA3E02FFFA3E02FFFA3E0AE
:101553002FFF900067F090004BE06F600302164787
:10156300900000E054E0F0E04480F0900046E0FF9B
:101573005407FE900003E054076E60030216479081
:101583000077E020E003021647EF131313540724F8
:1015930007FF900047E075F005A42F900001F0903D
:1015A3000048E0FFE4FCFDFE90007B12083E900043
:1015B3007BE0FCA3E0FDA3E0FEA3E0FF78081208B4
:1015C3002B90007B12083E90007BE0F8A3E0F9A388
:1015D300E0FAA3E0FB900049E0FFE4FCFDFEEB2F03
:1015E300FFEE3AFEED39FDEC38FC90007B12083E2D
:1015F30090007BE0FCA3E0FDA3E0FEA3E0FF7808FE
:1016030012082B90007B12083E90007BE0F8A3E0C9
:10161300F9A3E0FAA3E0FB90004AE0FFE4FCFDFE3F
:10162300EB2FFFEE3AFEED39FDEC38FC90007B1218
:10163300083E80109000008003900000E054E0F02A
:101643008002C299D007D006D005D004D003D002BF
:0F165300D001D000D0D0D082D083D0F0D0E03200
:03007B00020FC1B0
:100FC100C0E0C0F0C083C082C0D075D000C000C0F6
:100FD10001C002C003C004C005C006C00720F80359
:100FE1000212F6C2F8900000E0541F705C90007786
:100FF100E054F7F0E59AB4AA17900000E0FF54E03E
:10100100FEEF04541F4EF0E0549F4420F00212F80A
:10101100E59AB4A517900000E0FF54E0FEEF0454F8
:101021001F4EF0E0549F4440F00212F8E59A900000
:1010310000B45512E0FF54E0FEEF04541F4EF0E0FF
:101041004460F00212F80212F0900000E0C4135460
:1010510003640160030210F2E0541F64016007E0C1
:10106100541FFFBF021C900000E0FF54E0FEEF544C
:101071001FFC04541F4EF0744B2CF582E434000223
:1010810011D1900000E0541F640360030212F8E5DF
:101091009A640D60030212F890004CE0FC24AAFE51
:1010A100900067F090004DE06E60030212F890002E
:1010B10000E054E0F0E04480F0EC7009900001742D
:1010C1003CF00212F890004CE05407FF900003E05E
:1010D10054076F60030212F890004CE0FD131313E4
:1010E1005407900076F0EDC413135403243C02110D
:1010F10090900000E0C41354036402600302119D48
:10110100E0541F6401600EE0541F64026007E05464
:101111001FFFBF031C900000E0FF54E0FEEF541FCF
:10112100FC04541F4EF074422CF582E43400021189
:10113100D1900000E0541F6404705BE59A645A701A
:1011410055900043E0FC24A5FEA3E02EFE9000672D
:10115100F0900045E06E60030212F8900000E05448
:10116100E0F0E04480F0EC30E7099000017401F018
:101171000212F8900043E0FF5407FE900003E05490
:10118100076E60030212F8EF131313540724029041
:101191000001F00212F89000000212F0900000E04D
:1011A100C4135403640360030212EDE0541FD3948B
:1011B100004025E0541F9407501EE0FF54E0FEEF6D
:1011C100541FFC04541F4EF074452CF582E4340086
:1011D100F583E59AF00212F8900000E0541F6407CD
:1011E10060030212E8E59A64D060030212E89000FD
:1011F10046E02455FFA3E02FFFA3E02FFFA3E02F3C
:10120100FFA3E02FFF900067F090004BE06F6003B9
:101211000212F8900000E054E0F0E04480F0900009
:1012210046E0FF5407FE900003E054076E6003029E
:1012310012F8900077E020E0030212F8EF13131385
:1012410054072407FF900047E075F005A42F900094
:1012510001F0900048E0FFE4FCFDFE90007B1208E5
:101261003E90007BE0FCA3E0FDA3E0FEA3E0FF785D
:101271000812082B90007B12083E90007BE0F8A337
:10128100E0F9A3E0FAA3E0FB900049E0FFE4FCFDF4
:10129100FEEB2FFFEE3AFEED39FDEC38FC90007BC2
:1012A10012083E90007BE0FCA3E0FDA3E0FEA3E07A
:1012B100FF780812082B90007B12083E90007BE01B
:1012C100F8A3E0F9A3E0FAA3E0FB90004AE0FFE411
:1012D100FCFDFEEB2FFFEE3AFEED39FDEC38FC9004
:1012E100007B12083E80109000008003900000E017
:1012F10054E0F08002C2F9D007D006D005D004D066
:1013010003D002D001D000D0D0D082D083D0F0D091
:02131100E032C8
:1024260041007A004100680041004E0041007F00F3
:0424360041007900E8
:08000300C2F98F9A30F9FD22C9
:10227F00E490007AF090007AE0C3943240F7E4FFE4
:10228F0012203E900003EFF0E030E355C2AF7F41E4
:10229F001200037F541200037F2B1200037F4E1294
:1022AF0000037F411200037F4D1200037F45120090
:1022BF00037F4A1200037F4D1200037F4312000376
:1022CF007F4C1200037F4A1200037F0D1200037F21
:1022DF000A120003E054F7F0E0FDE4FF1220DDD214
:0222EF00AF221C
:10239A0075F85075C40853C4DF7598504387805345
:1023AA00C4F843C42043A20475C6FF75C59843C444
:0923BA0008759C01D299D2AC22F5
:1024780075B11075B28B75B33875B41F75AC01E4BE
:03248800F5AD228D
:10248B00758901438E08758C06E4F58AD2A9D2AF03
:03249B00D28C22BE
:0724FA0053E8F075F6112212
:0A24E800D294D29375BE09D2C62229
:10249E00C2AF75C7AA75C75575AAD7E5AA20E6FBC0
:0324AE00D2AF2288
:10245E00C290C291C280C281C292E490007AF09082
:0A246E000004F0900077F0A3F022C4
:1023E60012247812248B1224FA12245E90007AE0CA
:1023F600C3941940F712239A1224E812227F02246A
:012406009E37
:1024B100C2AF75C7AA75C75543AA40E5AA20E6FB76
:0324C100D2AF2275
:10002600900091EFF0C007A3E0FCA3E0FDA3E0FE83
:10003600A3E0FF7810120818AD07D0071220DD9054
:100046000091E004FFC007A3E0FCA3E0FDA3E0FEEF
:10005600A3E0FF7808120818AD07D0071220DD903C
:0F0066000091E02402FFA3A3A3A3E0FD0220DD8D
:0B1D0900900076E075F032A42405FF86
:061D1400900091EFF0FBCE
:101D1A00A312084A00000000AF0312203EE4FCFDB3
:101D2A00FE90009212083E900092E0FCA3E0FDA310
:101D3A00E0FEA3E0FF780812082B90009212083EFA
:101D4A00900092E0F8A3E0F9A3E0FAA3E0FBC00058
:101D5A00C001C002C003900091E004FF12203EE4DB
:101D6A00FCFDFED003D002D001D000EB2FFFEE3AEB
:101D7A00FEED39FDEC38FC90009212083E9000927C
:101D8A00E0FCA3E0FDA3E0FEA3E0FF780812082B25
:101D9A0090009212083E900092E0F8A3E0F9A3E0C6
:101DAA00FAA3E0FBC000C001C002C003900091E0AA
:101DBA002402FF12203EE4FCFDFED003D002D00133
:101DCA00D000EB2FFFEE3AFEED39FDEC38FC900027
:101DDA009212083E900092E0FCA3E0FDA3E0FEA36D
:021DEA00E0FF18
:011DEC0022D4
:0A16620090008FEDF090008EEFF085
:10166C00E4900090F0C00790007BE0FCA3E0FDA3A9
:10167C00E0FEA3E0FF90009212083ED00712002675
:10168C0090008EE02403FFC007900072E0FCA3E002
:10169C00FDA3E0FEA3E0FF90009212083ED00712DB
:1016AC00002690008EE0FF121D1490008FE025E0C4
:1016BC0025E0240BF582E43400F58312083E9000FB
:1016CC008EE02403FF121D1490008FE0FB25E02513
:1016DC00E02427F582E43400F58312083EEB25E084
:1016EC0025E0240BF582E43400F583E0FCA3E0FD57
:1016FC00A3E0FEA3E0FF90007BE0F8A3E0F9A3E0F9
:10170C00FAA3E0FBC3120807600302196D90008F67
:10171C00E0FF6401701BEF25E025E0240BF582E46B
:10172C003400F583E0FCA3E0FDA3E0FEA3E0FF8022
:10173C004190008FE0FF25E025E02407F582E4349A
:10174C0000F583E0F8A3E0F9A3E0FAA3E0FBEF25B2
:10175C00E025E0240BF582E43400F583E0FCA3E003
:10176C00FDA3E0FEA3E0C39BFFEE9AFEED99FDEC1A
:10177C0098FCE412072490008FE0FB25E025E02480
:10178C004BF582E43400F58312083EEB25E025E0AE
:10179C00244BF582E43400F583C083C082E0FCA3C3
:1017AC00E0FDA3E0FEA3E0FFC004C005C006C00737
:1017BC0090008FE0FF25E025E02423F582E434003F
:1017CC00F583E0F8A3E0F9A3E0FAA3E0FBEF25E052
:1017DC0025E02427F582E43400F583E0FCA3E0FD4A
:1017EC00A3E0FEA3E0C39BFFEE9AFEED99FDEC98FF
:1017FC00FCE4120724A804A905AA06AB07D007D05D
:10180C0006D005D004120687D082D08312083EE49D
:10181C007F64FEFDFC900007E0F8A3E0F9A3E0FA7A
:10182C00A3E0FBD312080750089000697404F08001
:10183C006FE47FE87E03FDFC900007E0F8A3E0F97D
:10184C00A3E0FAA3E0FBD3120807500890006974D8
:10185C0003F0804CE47F107E27FDFC900007E0F83D
:10186C00A3E0F9A3E0FAA3E0FBD312080750089019
:10187C0000697402F080297FA07E867D017C009037
:10188C000007E0F8A3E0F9A3E0FAA3E0FBD3120809
:10189C000750089000697401F08005E4900069F02D
:1018AC007FAA12000390008FE0F925E025E0240BBD
:1018BC00F582E43400F583E0FCA3E0FDA3E0FEA395
:1018CC00E0FF7810120818AB07EB24AAFAE925E020
:1018DC0025E0240BF582E43400F583E0FCA3E0FD65
:1018EC00A3E0FEA3E0FF7808120818EA2FFAE92516
:1018FC00E025E0240BF582E43400F583A3A3A3E0F8
:10190C002AFF900069E02F900067F0AF03120003EC
:10191C0090008FE025E025E0240BF582E43400F5FF
:10192C0083E0FCA3E0FDA3E0FEA3E0FF780812082F
:10193C001812000390008FE025E025E0240BF582BF
:10194C00E43400F583A3A3A3E0FF12000390006925
:10195C00E0FF120003900067E0FF1200037F0D8090
:06196C00027F4E12000391
:011972002252
:1022F1007FAA12000390006AE0FCA3E0FDA3E0FEC8
:10230100A3E0FF781012081812000390006AE0FCA5
:10231100A3E0FDA3E0FEA3E0FF7808120818120075
:102321000390006AA3A3A3E0FF120003900069E0F9
:09233100FF1200037F0D020003FE
:100C2D00E490008FF0900076E075F032A404FF128E
:100C3D00203E900084EFF0E01313540390007FF0FA
:100C4D00900076E075F032A42402FF121D1490007E
:100C5D000712083E121D0990000B12083E900076F7
:100C6D00E075F032A42408FF121D1490002712081D
:100C7D003E900076E075F032A4240BFF121D149007
:100C8D00000F12083E900076E075F032A4240EFF9E
:100C9D00121D1490002B12083E900076E075F03274
:100CAD00A42411FF121D1490001312083E9000761B
:100CBD00E075F032A42414FF121D1490002F1208B9
:100CCD003E900076E075F032A42417FF121D1490AB
:100CDD00001712083E900076E075F032A4241AFF3A
:100CED00121D1490003312083E900076E075F0321C
:100CFD00A4241DFF121D1490001B12083E900076B7
:100D0D00E075F032A42420FF121D14900037120854
:100D1D003E900076E075F032A42423FF121D14904E
:100D2D00001F12083E900076E075F032A42426FFD5
:100D3D00121D1490003B12083E900076E075F032C3
:100D4D00A42429FF121D1490002312083E90007652
:100D5D00E075F032A4242CFF121D1490003F1208F0
:100D6D003E900027E0FCA3E0FDA3E0FEA3E0FFA37F
:100D7D00E0F8A3E0F9A3E0FAA3E0FBD312080740E3
:100D8D007090000FE0FCA3E0FDA3E0FEA3E0FFE404
:100D9D0012072490004F12083E90004FE0FCA3E094
:100DAD00FDA3E0FEA3E0FFC004C005C006C0079090
:100DBD000027E0F8A3E0F9A3E0FAA3E0FBA3E0FC31
:100DCD00A3E0FDA3E0FEA3E0C39BFFEE9AFEED9929
:100DDD00FDEC98FCE4120724A804A905AA06AB07AC
:100DED00D007D006D005D00412068790004F120808
:100DFD003E90008F7401F090008FE0FFC394064089
:100E0D0003020F33EF25E025E02427F582E43400BB
:100E1D00F583E0F8A3E0F9A3E0FAA3E0FBEF25E00A
:100E2D0025E0242BF582E43400F583E0FCA3E0FDFE
:100E3D00A3E0FEA3E0FFC31208074003020F2A90B0
:100E4D00008FE0FF25E025E0240BF582E43400F56A
:100E5D0083E0F8A3E0F9A3E0FAA3E0FBEF25E0259A
:100E6D00E0240FF582E43400F583E0FCA3E0FDA35C
:100E7D00E0FEA3E0C39BFFEE9AFEED99FDEC98FC1E
:100E8D00E412072490008FE0FB25E025E0244FF5C8
:100E9D0082E43400F58312083EEB25E025E0244F73
:100EAD00F582E43400F583C083C082E0FCA3E0FD4D
:100EBD00A3E0FEA3E0FFC004C005C006C00790007C
:100ECD008FE0FF25E025E02427F582E43400F5834B
:100EDD00E0F8A3E0F9A3E0FAA3E0FBEF25E025E0BD
:100EED00242BF582E43400F583E0FCA3E0FDA3E0C0
:100EFD00FEA3E0C39BFFEE9AFEED99FDEC98FCE49A
:100F0D00120724A804A905AA06AB07D007D006D05E
:100F1D0005D004120687D082D08312083E90008F30
:100F2D00E004F0020E04E47F64FEFDFC900007E097
:100F3D00F8A3E0F9A3E0FAA3E0FBD31208075007EA
:100F4D009000697404F022E47FE87E03FDFC9000BC
:100F5D0007E0F8A3E0F9A3E0FAA3E0FBD31208073A
:100F6D0050079000697403F022E47F107E27FDFC8A
:100F7D00900007E0F8A3E0F9A3E0FAA3E0FBD31299
:100F8D00080750079000697402F0227FA07E867DCD
:100F9D00017C00900007E0F8A3E0F9A3E0FAA3E0DC
:100FAD00FBD312080750079000697401F022E490FA
:030FBD000069F0D8
:010FC000220E
:101DED00900027E0FCA3E0FDA3E0FEA3E0FF900040
:101DFD0072E0F8A3E0F9A3E0FAA3E0FBD312080721
:101E0D004027900027E0F8A3E0F9A3E0FAA3E0FB58
:101E1D00900072E0FCA3E0FDA3E0FEA3E09BFFEECB
:101E2D009AFEED99FDEC988033900072E0F8A3E0F6
:101E3D00F9A3E0FAA3E0FB900027E0FCA3E0FDA3EB
:101E4D00E0FEA3E0C39BFFEE9AFEED99FDEC98FC3E
:101E5D00E42FFFE43EFEED3480FDE43CFC90007B7E
:101E6D0012083E900076E075F032A42405FFC007FD
:101E7D0090007BE0FCA3E0FDA3E0FEA3E0FF90005B
:101E8D009212083ED007120026121D0990000B1267
:101E9D00083E90007BE0FCA3E0FDA3E0FEA3E0FF85
:101EAD0090000BE0F8A3E0F9A3E0FAA3E0FBC31266
:0E1EBD00080770047F5980027F4E1200032236
:10197300E490008EF0120C2D900007E0FCA3E0FD34
:10198300A3E0FEA3E0FF7810120818EF24AAFB904F
:101993000007E0FCA3E0FDA3E0FEA3E0FF7808124C
:1019A3000818EB2FFB900007A3A3A3E02BFF9000E5
:1019B30084E02F900067F07FAA120003900084E078
:1019C300FF120003900007E0FCA3E0FDA3E0FEA3E9
:1019D300E0FF7810120818120003900007E0FCA340
:1019E300E0FDA3E0FEA3E0FF78081208181200034D
:1019F300900007A3A3A3E0FF120003E490008EF07E
:101A030090008EE0F9C394064003021AB9E0FB2567
:101A1300E025E0240FF582E43400F583E0FCA3E045
:101A2300FDA3E0FEA3E0FF7808120818AA07EB2540
:101A3300E025E0240FF582E43400F583E0FCA3E025
:101A4300FDA3E0FEA3E0FF7810120818AB07EB2A12
:101A5300FAE925E025E0240FF582E43400F583A3B9
:101A6300A3A3E02AFF900067E02FF0AF0312000367
:101A730090008EE025E025E0240FF582E43400F5A4
:101A830083E0FCA3E0FDA3E0FEA3E0FF78081208D7
:101A93001812000390008EE025E025E0240FF58264
:101AA300E43400F583A3A3A3E0FF12000390008EA8
:101AB300E004F0021A03900067E0FF1200037F0DB9
:031AC3000200031B
:10087B00900000E020E703020C2CE0547FF0900086
:10088B0001E0FFD394005003020C2CC2AFEFB43F36
:10089B0006121DED020C25900001E0643C701B7FDD
:1008AB00AA120003900003E05407FF12000390000C
:1008BB0003E0540724AAFF020AC5900001E0B43DEF
:1008CB0006121973020C25900001E0FDB43E0A904C
:1008DB000077E04408F0020C25ED640170269000CF
:1008EB0044E0FDE4FF1220DDE4FF12203E90000304
:1008FB00EFF0900044E0FF900003E0B50703020B1C
:10090B0094020ACD900001E0FFC394075046EF75A7
:10091B00F032A4249DFF900044E0FD1220DD9000F6
:10092B0001E075F032A4249DFF12203E900084EF6D
:10093B00F0900044E0FF900084E0B507147F59125B
:10094B000003900084E01313540390007FF0020C1B
:10095B0025020ACD900001E0FFC3940C4003020A6C
:10096B00D2EF75F032A424A4FFC00790007BE0FC0B
:10097B00A3E0FDA3E0FEA3E0FF90009212083ED09F
:10098B0007120026900001E075F032A424A4FF1298
:10099B001D1490000712083E90007BE0FCA3E0FDC5
:1009AB00A3E0FEA3E0FF900007E0F8A3E0F9A3E0CB
:1009BB00FAA3E0FBC31208076003020ACD7F64FEB3
:1009CB00FDFC900007E0F8A3A3A3E0D312080750A7
:1009DB00089000697404F08068E47FE87E03FDFCF6
:1009EB00900007E0F8A3E0F9A3E0FAA3E0FBD31231
:1009FB00080750089000697403F08045E47F107E6F
:100A0B0027FDFC900007E0F8A3E0F9A3E0FAA3E0D0
:100A1B00FBD31208075002801BE47F107E27FDFCDE
:100A2B00900007E0F8A3E0F9A3E0FAA3E0FBD312F0
:100A3B00080750089000697402F08005E490006983
:100A4B00F07FAA120003900007E0FCA3E0FDA3E0F7
:100A5B00FEA3E0FF7810120818AB07EB24AAFA905C
:100A6B000007E0FCA3E0FDA3E0FEA3E0FF78081283
:100A7B000818EA2FFA900007A3A3A3E02AFF90001F
:100A8B0069E02F900067F0AF03120003900007E0BE
:100A9B00FCA3E0FDA3E0FEA3E0FF78081208181208
:100AAB000003900007A3A3A3E0FF120003900069CB
:100ABB00E0FF120003900067E0FF1200037F0D02BE
:100ACB000B9A7F4E020B9A900001E0FFC3941140EA
:100ADB0003020BA0EF75F032A424ADFFC00790000A
:100AEB009212084A00000000D00712002690000165
:100AFB00E075F032A424ADFF121D1490000B120808
:100B0B003E900072E0FCA3E0FDA3E0FEA3E0FF90AB
:100B1B00006E12083E900001E075F032A424B0FF85
:100B2B00C00790006EE0FCA3E0FDA3E0FEA3E0FF96
:100B3B0090009212083ED007120026900001E0753B
:100B4B00F032A424B0FF121D1490002712083E901F
:100B5B00006EE0FCA3E0FDA3E0FEA3E0FF90002706
:100B6B00E0F8A3E0F9A3E0FAA3E0FBC312080770D7
:100B7B001CFFFEFDFC90000BE0F8A3E0F9A3E0FAEC
:100B8B00A3E0FBC312080770047F5980027F4E124B
:100B9B000003020C25900001E0FFC39416500CEFEC
:100BAB0075F032A424B9FF7D01806C900001E0FF49
:100BBB00C3941B500CEF75F032A424C5FF7D02804B
:100BCB0056900001E0FFC39420500CEF75F032A457
:100BDB0024D1FF7D038040900001E0FFC39425509A
:100BEB000CEF75F032A424DDFF7D04802A90000108
:100BFB00E0FFC3942A500CEF75F032A424E9FF7D7B
:100C0B00058014900001E0FFC3942F500DEF75F099
:100C1B0032A424F5FF7D06121662E4900001F0D297
:020C2B00AF22F6
:10007E0090000BA3E0FDA3A3E4FFFEED5480FDE48E
:10008E00FCFBFAF9F8C312080790000B5028A3E006
:10009E00FDA3E0FEA3E0FFED547FFDE4FC900072B3
:1000AE00E0F8A3E0F9A3E0FAA3E02FFFEA3EFEE9B1
:1000BE003DFDEC388023E0F8A3E0F9A3E0FAA3E0DD
:1000CE00FB900072E0FCA3E0FDA3E0FEA3E0C39B67
:1000DE00FFEE9AFEED99FDEC98FC90008012083E22
:1000EE00900027E0FCA3E0FDA3E0FEA3E0FF90005C
:1000FE0080E0F8A3E0F9A3E0FAA3E0FBC31208073F
:10010E005052900080E0F8900027E0FCA3E0FDA3A1
:10011E00E0FEA3E0C39BFFEE9AFEED99FDEC98FC8A
:10012E00E412072490004FE0F8A3E0F9A3E0FAA34D
:10013E00E0FB12057E12076290006A12083E9000E4
:10014E006AE0FCA3E0FDA3E0FEA3E0FFED4480FD2A
:10015E00EC02043090002BE0FCA3E0FDA3E0FEA334
:10016E00E0FF900080E0F8A3E0F9A3E0FAA3E0FB43
:10017E00C31208075042900027E0F8A3E0F9A3E06D
:10018E00FAA3E0FB900080E0FCA3E0FDA3E0FEA359
:10019E00E0C39BFFEE9AFEED99FDEC98FCE412078E
:1001AE002490004FE0F8A3E0F9A3E0FAA3E0FB12DD
:1001BE00057E12076202043090002FE0FCA3E0FDE2
:1001CE00A3E0FEA3E0FF900080E0F8A3E0F9A3E037
:1001DE00FAA3E0FBC3120807506790002BE0F8A3C8
:1001EE00E0F9A3E0FAA3E0FB900080E0FCA3E0FDC1
:1001FE00A3E0FEA3E0C39BFFEE9AFEED99FDEC9803
:10020E00FCE4120724900053E0F8A3E0F9A3E0FA0F
:10021E00A3E0FB12057EC004C005C006C007900017
:10022E000FE0FCA3E0FDA3E0FEA3E0FFE412072431
:10023E00D003D002D001D00012048D120762020446
:10024E0030900033E0FCA3E0FDA3E0FEA3E0FF90BE
:10025E000080E0F8A3E0F9A3E0FAA3E0FBC31208E4
:10026E0007506790002FE0F8A3E0F9A3E0FAA3E0AF
:10027E00FB900080E0FCA3E0FDA3E0FEA3E0C39BA7
:10028E00FFEE9AFEED99FDEC98FCE4120724900027
:10029E0057E0F8A3E0F9A3E0FAA3E0FB12057EC055
:1002AE0004C005C006C007900013E0FCA3E0FDA348
:1002BE00E0FEA3E0FFE4120724D003D002D001D069
:1002CE000012048D120762020430900037E0FCA386
:1002DE00E0FDA3E0FEA3E0FF900080E0F8A3E0F9CC
:1002EE00A3E0FAA3E0FBC31208075067900033E0C7
:1002FE00F8A3E0F9A3E0FAA3E0FB900080E0FCA3F2
:10030E00E0FDA3E0FEA3E0C39BFFEE9AFEED99FD98
:10031E00EC98FCE412072490005BE0F8A3E0F9A34C
:10032E00E0FAA3E0FB12057EC004C005C006C007BC
:10033E00900017E0FCA3E0FDA3E0FEA3E0FFE412B3
:10034E000724D003D002D001D00012048D12076210
:10035E0002043090003BE0FCA3E0FDA3E0FEA3E02E
:10036E00FF900080E0F8A3E0F9A3E0FAA3E0FBC35E
:10037E001208075049900037E0F8A3E0F9A3E0FA1D
:10038E00A3E0FB900080E0FCA3E0FDA3E0FEA3E071
:10039E00C39BFFEE9AFEED99FDEC98FCE412072448
:1003AE0090005FE0F8A3E0F9A3E0FAA3E0FB1205EA
:1003BE007EC004C005C006C00790001B8047900099
:1003CE003BE0F8A3E0F9A3E0FAA3E0FB900080E0A5
:1003DE00FCA3E0FDA3E0FEA3E0C39BFFEE9AFEEDBF
:1003EE0099FDEC98FCE4120724900063E0F8A3E07A
:1003FE00F9A3E0FAA3E0FB12057EC004C005C00617
:10040E00C00790001FE0FCA3E0FDA3E0FEA3E0FF09
:10041E00E4120724D003D002D001D00012048D12B2
:10042E00076290006A12083EE47F32FEFDFC9000E7
:10043E006AE0F8A3E0F9A3E0FAA3E0FBC312080711
:10044E00402BE4FFFE7D80FC90006AE0F8A3A3A39E
:10045E00E0D312080740207F327E007D807C009022
:10046E00006AE0F8A3A3A3E0120807500A90006AFE
:08047E0012084A0000000022F0
:1023C300900078E020E00B900077E020E204E0301A
:1023D300E00E900078E030E109E054FDF0B2912284
:0323E300D2912272
:10240700900005E030E417E030E513900004740114
:0F241700F0C290C291C280900005E054DFF02225
:10217900900005E030E407209104D280D2919000CC
:1021890005E030E43A30B037E054EFF0900078E001
:102199004480F0D292E490007AF090007AE0C394FF
:1021A9001440F79000047402F0900068743AF0E467
:1021B90090007AF090007AE0C3941440F7D28190AD
:1021C9000005E030E614E030E510900077E04401C6
:1021D900F0900005E054DFF0D290900005E030E681
:1021E9002130B01EE054BFF0E490007AF090007AFC
:1021F900E0C3941440F79000047402F090006874EE
:032209003AF02286
:10236E00900077E020E21EA3E030E61DE054BFF0BF
:10237E00308116121AC612007E900077E030E30903
:0C238E001222F18004C292C281022407D6
:1024C400900004E024FE60072402700602217912C1
:0324D400236E2252
:04243A0041009B00C2
:101C1600900005E0540714603F14606714700302D7
:101C26001CC5147003021CEB147003021D0124056D
:101C36006003021D08900005E054F820B018440126
:101C4600F0E490009BF0900005E054F7F0E054EFCC
:101C5600F0E054DFF022F02290009BE0D394025093
:101C660003021D08900005E054F820B0144402F069
:101C7600E490009BF0900005E04408F0E04420F07A
:101C860022F02290009BE0D39402401130B00E90D7
:101C96000005E054F84403F0E490009BF090009BAC
:101CA600E0D39446405C20B059900005E054F844D7
:101CB60003F0E490009BF0900005E04410F02290C1
:101CC600009BE0FDD39405403930B0028023EDD36C
:101CD60094D2402E20B02B900005E054F84404F036
:101CE600E04440F02290009BE0D39405401430B0CD
:101CF60011900005E054F84405F022900005E054E8
:031D0600F8F022D0
:04243E0041008D00CC
:10000E0000000000000000000000000000000000E2
:05001E000000000022BB
:101AC600C28390008512084A000000003084099005
:101AD6000077E04402F080F4900077E054FDF0E0F7
:101AE60054FBF0E490004EF090008DF0900085E0FD
:101AF600FCA3E0FDA3E0FEA3E0FF780112082B9013
:101B0600008512083ED28312000E3084179000859D
:101B1600E0FCA3E0FDA3E0FEA3E04401FFEC90009F
:101B26008512083EC28312000E90008DE004F0E09C
:101B3600C3941840B7D28312000EC283900078E097
:101B460030E40EE054EFF012000ED28312000EC203
:101B560083900085E0FCA3E0FDA3E0FEA3E0FFED9B
:101B66006480FDEC90008512083E900072E0FCA3B4
:101B7600E0FDA3E0FEA3E0FF90008912083E90007E
:101B860085E0FCA3E0FDA3E0FEA3E0FF90007FE07C
:101B96002404F9F812081890007212083E90007298
:101BA600E0FCA3E0FDA3E0FEA3E0FBAA06A905A8CE
:101BB60004900089E0FCA3E0FDA3E0FEA3E0C39B44
:101BC600FFEE9AFEED99FDEC98FC1224F2E47B02FE
:101BD600FAF9F8D31207F14036900089E0FCA3E049
:101BE600FDA3E0FEA3E0FF900072E0F8A3E0F9A3F6
:101BF600E0FAA3E0FBD31208074014900089E0FC4A
:101C0600A3E0FDA3E0FEA3E0FF90007212083E22CF
:10233A0053E8F0EF42E843E101C2EFD2EE30EFFD9D
:10234A00AFC27E00EF7802CEC313CE13D8F9FDAC2C
:10235A0006AFC3EF75F004A42DFDE5F03C53E1FE92
:03236A00FEAF05BE
:01236D00224D
:10220C00900078E030E56BE054DFF0E4FF12233A05
:10221C00900096EEF0A3EFF07F0412233AA3EEF0B9
:10222C00A3EFF0900096E0FCA3E0FDC39430EC9497
:10223C0002400E900099E09430900098E094025087
:10224C000B900078E020E004E04401F0900078E08E
:10225C0030E01FD3ED9444EC94024016D3900097D9
:10226C00E09444900096E094024007900078E0548B
:03227C00FEF0224F
:10244300E5BD7016900078E04408F0D2C4C2C330F2
:0B245300C308C2C6D2C6C2C3C2C62264
:10203E00D2C5C2C330C3FDE5BD640860028060C274
:10204E00C575BCA0C2C330C3FDE5BD641860028077
:10205E004E8FBCC2C330C3FDE5BD64286002803F15
:10206E00D2C5C2C330C3FDE5BD641060028030C26C
:10207E00C575BCA1C2C330C3FDE5BD64406002801E
:10208E001ED2C2C2C330C3FDE5BD64506002800FD4
:10209E00AEBCC2C2C2C330C3FDE5BD645860099078
:1020AE000078E04408F08011C2C3D2C430C40A12D2
:1020BE002443900078E030E3F3900078E030E30CB6
:0E20CE00122443900078E054F7F0AEBDAF0648
:0120DC0022E1
:1020DD00D2C5C2C330C3FDE5BD640860028052C2E3
:1020ED00C575BCA0C2C330C3FDE5BD6418600280D8
:1020FD00408FBCC2C330C3FDE5BD64286002803192
:10210D00AF058FBCC2C330C3FDE5BD64286002803E
:10211D0020D2C4C2C330C40C122443900078E030E6
:10212D00E3F38036D2C5C2C330C3FDE5BD6408609C
:10213D0009900078E04408F08020C2C575BCA0C2AB
:10214D00C330C3FDE5BDB418C8D2C4C2C330C40A80
:10215D00122443900078E030E3F3900078E030E310
:0B216D000A122443900078E054F7F0C1
:012178002244
:100486000207CEE86480F8E933E83360110460F0CF
:10049600ED33EC337009E8FCE9FDEAFEEBFF2204DC
:1004A60060DED3EB9FEA9EE99DE8C2E78CF0C2F7D7
:1004B60095F0400CE8CCF8E9CDF9EACEFAEBCFFBA3
:1004C60012079985D0F05804700320D5B3E804705C
:1004D600075002B2D50207D892D5EC0460F7E4CCF7
:1004E600C0E0C398F8603B94186008400DD0E0FB6C
:1004F6000207B0E4FBFAC9FC8028E830E406E4C948
:10050600FBE4CAFCE830E305E4C9CACBFCE85407BF
:100516006010F8C3E913F9EA13FAEB13FBEC13FCCA
:10052600D8F130F52FC3E49CFCEF9BFFEE9AFEED6D
:1005360099FDD0E0FBEF4E4D4C701222DB03020713
:10054600D5EC2CFCEF33FFEE33FEED33FDED30E75B
:10055600EB0207B0EF2BFFEE3AFEED39FDD0E0FBE4
:1005660050130BBB00030207D8ED13FDEE13FEEF8D
:0805760013FFEC13FC0207B0B7
:10057E00EC4D6011E8497017ED33EC3304600DE477
:10058E00FCFFFEFD22E933E8330470F80207CE12B9
:10059E00079958046009E4CC2481500628500902BA
:1005AE0007D82840030207D5C0E0EB4A7044B98053
:1005BE0006D0E0FB0207C4EF4E701CBD8008EBFFB7
:1005CE00EAFEE9FD80EBE98DF0A4FEE5F002066798
:1005DE00E9CDF9EAFEEBFFEF89F0A4FCE5F0CE8958
:1005EE00F0A42EFFE435F0CD89F0A42DFEE435F015
:1005FE008067EF4E7005BD80D780C3EF8BF0A4AC43
:10060E00F0EE8BF0A42CFCE435F0F8EF8AF0A42C7D
:10061E00E5F038FCE433CB8DF0A42CFCE5F03BF890
:10062E00EE8AF0A42CFCE5F038F8E433CF89F0A480
:10063E002CFCE5F038CF3400CE89F0A42FFFE5F086
:10064E003EFEE433C98DF0A42EFEE5F039CD8AF0DE
:10065E00A42FFFE5F03EFEE43DFD33D0E0FB500756
:10066E000BBB000F0207D8EC2CFCEF33FFEE33FE72
:06067E00ED33FD0207B0A0
:100684000207D8EC5D046005E8590470030207CE44
:10069400120799580460F6EC4860F2EC7004FDFE11
:1006A400FF22C860DB2481C85009C3986002500649
:1006B4000207D59850CAF582E9294B4A7005AB82E6
:1006C4000207C475F0007C1A7880C3EF9BEE9AEDA4
:1006D40099400DC3EF9BFFEE9AFEED99FDE842F0C1
:1006E400DC23ACF0D0E0FFD0E0FED0E0FDAB822014
:1006F400E7101BEB60BAEC2CFCEF33FFEE33FEED9E
:1007040033FD0207B0E803F830E705C0F075F000E8
:10071400EF2FFFEE33FEED33FD40B830E7C280AA81
:1007240075F020800E75F010800575F0087D007E50
:10073400007F003392D530D5031207E3EC33401029
:10074400EF33FFEE33FEED33FDEC33FCD5F0ED2259
:0E075400E5F0247EA2D513CC92E7CDCEFF2295
:10076200EDD2E7CD33EC3392D524814006E4FFFE8F
:10077200FDFC22FCE4CFCECDCC24E0501174FF80EE
:10078200EDC3CC13CCCD13CDCE13CECF13CF04708B
:07079200F030D5DE0207E3A1
:10079900E9D2E7C933E833F892D5EDD2E7CD33ECA6
:0707A90033FC5002B2D5221F
:1007B000EC30E7100FBF000C0EBE00080DBD0004AA
:1007C0000BEB6014A2D5EB13FCED92E7FD2274FF56
:1007D000FCFDFEFF22E480F8A2D574FF13FC7D80AF
:0307E000E480EFC3
:101FBE000224D7E493A3F8E493A34003F68001F23E
:101FCE0008DFF48029E493A3F85407240CC8C33324
:101FDE00C4540F4420C8834004F456800146F6DFF3
:101FEE00E4800B0102040810204080902426E47E39
:101FFE00019360BCA3FF543F30E509541FFEE493E8
:10200E00A360010ECF54C025E060A840B8E493A3AE
:10201E00FAE493A3F8E493A3C8C582C8CAC583CAD9
:10202E00F0A3C8C582C8CAC583CADFE9DEE780BE91
:012442000099
:0E07E300C3E49FFFE49EFEE49DFDE49CFC2227
:1007F100EB9FF5F0EA9E42F0E99D42F0EC6480C87F
:0608010064809845F0221E
:10080700EB9FF5F0EA9E42F0E99D42F0E89C45F047
:0108170022BE
:10081800E8600FECC313FCED13FDEE13FEEF13FFBE
:03082800D8F122E2
:10082B00E8600FEFC333FFEE33FEED33FDEC33FC2B
:03083B00D8F122CF
:0C083E00ECF0A3EDF0A3EEF0A3EFF0222D
:10084A00A8828583F0D083D08212086112086112CF
:10085A000861120861E473E493A3C583C5F0C583F4
:10086A00C8C582C8F0A3C583C5F0C583C8C582C8F8
:01087A00225B
:0824F200EC30E7031207E322BE
:00000001FF
