:03000000021C14CB
:101C140075C7AA75C75575FD5A75C7AA75C7557591
:101C2400FDA5787FE4F6D8FD9000007FFF7E03E4F5
:0C1C3400F0A3DFFCDEFA758107021C7BC8
:10223E0012216C12195F1207F812222B122218802B
:01224E00F29D
:03000B0002185C7C
:10185C00C0E0C0F0C083C082C0D075D000C0057598
:10186C008C06758A0090007AE004F0E0FD75F005B6
:10187C0084E5F0702590009BE004F030951C9000FE
:10188C0006E0C394FF5003E004F0900006E0D3940C
:10189C00504007900077E04410F0ED75F01984E5A6
:1018AC00F0702D900078E04440F0900077E030E14B
:1018BC001390004EE004F0E0D394144007900077AE
:1018CC00E04404F0900077E030E205A3E04402F03D
:1018DC0090007AE075F07D84E5F0701C900077E064
:1018EC0020E405A3E04404F0900077E030E009A385
:1018FC00E04404F0E04402F090007AE0D394F94024
:10190C0024E4F0900068E004F0900078E030E0040B
:10191C00E04402F0900077E090007920E405E004C8
:10192C00F08002E4F0900068E0D3943B4018E4F0BF
:10193C0075F01E84E5F07007900078E04410F0908C
:10194C000078E04420F0D005D0D0D082D083D0F005
:03195C00D0E032A6
:03002300020F4F7A
:100F4F00C0E0C0F0C083C082C0D075D000C000C068
:100F5F0001C002C003C004C005C006C0072098032B
:100F6F0002128BC298900000E0541F705C900077C3
:100F7F00E054F7F0E599B4AA17900000E0FF54E0B1
:100F8F00FEEF04541F4EF0E0549F4420F002128DE8
:100F9F00E599B4A517900000E0FF54E0FEEF04546C
:100FAF001F4EF0E0549F4440F002128DE5999000DF
:100FBF0000B45512E0FF54E0FEEF04541F4EF0E072
:100FCF004460F002128D021285900000E0C41354A9
:100FDF000364016003021080E0541F64016007E0A6
:100FEF00541FFFBF021C900000E0FF54E0FEEF54BF
:100FFF001FFC04541F4EF0744B2CF582E434000296
:10100F001166900000E0541F6403600302128DE527
:10101F0099640D600302128D90004CE0FC24AAFE2F
:10102F00900067F090004DE06E600302128D90000B
:10103F0000E054E0F0E04480F0EC7009900001749F
:10104F003CF002128D90004CE05407FF900003E03B
:10105F0054076F600302128D90004CE0FD131313C1
:10106F005407900076F0EDC413135403243C02117F
:10107F0025900000E0C41354036402600302113290
:10108F00E0541F6401600EE0541F64026007E054D7
:10109F001FFFBF031C900000E0FF54E0FEEF541F42
:1010AF00FC04541F4EF074422CF582E434000211FC
:1010BF0066900000E0541F64047062E599645A70F2
:1010CF005C900043E0FC24A5FEA3E02EFE90006799
:1010DF00F0900045E06E600302128D900000E05426
:1010EF00E0F0E04480F0EC30E7109000017401F084
:1010FF00900043E02408F002128D900043E0FF546B
:10110F0007FE900003E054076E600302128DEF1389
:10111F00131354072402900001F002128D90000067
:10112F00021285900000E0C41354036403600302AD
:10113F001282E0541FD394004025E0541F940750AF
:10114F001EE0FF54E0FEEF541FFC04541F4EF074DA
:10115F00452CF582E43400F583E599F002128D9069
:10116F000000E0541F6407600302127DE59964D00C
:10117F00600302127D900046E02455FFA3E02FFF8D
:10118F00A3E02FFFA3E02FFFA3E02FFF900067F056
:10119F0090004BE06F600302128D900000E054E06E
:1011AF00F0E04480F0900046E0FF5407FE9000030B
:1011BF00E054076E600302128D900077E020E00389
:1011CF0002128DEF13131354072407FF900047E00B
:1011DF0075F005A42F900001F0900048E0FFE4FCAB
:1011EF00FDFE90007B1203DE90007BE0FCA3E0FD90
:1011FF00A3E0FEA3E0FF78081203CB90007B12035D
:10120F00DE90007BE0F8A3E0F9A3E0FAA3E0FB9007
:10121F000049E0FFE4FCFDFEEB2FFFEE3AFEED3957
:10122F00FDEC38FC90007B1203DE90007BE0FCA30A
:10123F00E0FDA3E0FEA3E0FF78081203CB90007B54
:10124F001203DE90007BE0F8A3E0F9A3E0FAA3E03D
:10125F00FB90004AE0FFE4FCFDFEEB2FFFEE3AFEB1
:10126F00ED39FDEC38FC90007B1203DE801090000E
:10127F00008003900000E054E0F08002C299D00794
:10128F00D006D005D004D003D002D001D000D0D0EA
:09129F00D082D083D0F0D0E032FF
:10218D0041007A004100680041004E0041007F008F
:04219D004100790084
:08000300C2998F993099FD228A
:101F8B00E490007AF090007AE0C3943240F7E4FFDB
:101F9B00121D63900003EFF0E030E355C2AF7F41B9
:101FAB001200037F541200037F2B1200037F4E128B
:101FBB0000037F411200037F4D1200037F45120087
:101FCB00037F4A1200037F4D1200037F431200036D
:101FDB007F4C1200037F4A1200037F0D1200037F18
:101FEB000A120003E054F7F0E0FDE4FF121E02D2E8
:021FFB00AF2213
:1020F80075F85075C40853C4DF75985043878053EA
:10210800C4F843C42043A20475C6FF75C59843C4E8
:0921180008759C01D299D2AC2299
:1021DF0075B11075B28B75B33875B41F75AC01E45A
:0321EF00F5AD2229
:1021F200758901438E08758C06E4F58AD2A9D2AF9F
:03220200D28C2259
:0722610053E8F075F61122AD
:0A224F00D294D29375BE09D2C622C4
:10220500C2AF75C7AA75C75575AAD7E5AA20E6FB5B
:03221500D2AF2223
:1021C500C290C291C280C281C292E490007AF0901E
:0A21D5000004F0900077F0A3F02260
:10216C001221DF1221F21222611221C590007AE0B5
:10217C00C3941940F71220F812224F121F8B02221F
:01218C00054D
:10221800C2AF75C7AA75C75543AA40E5AA20E6FB11
:03222800D2AF2210
:101FFD00900091EFF0C007A3E0FCA3E0FDA3E0FE8D
:10200D00A3E0FF78101203B8AD07D007121E02909F
:10201D000091E004FFC007A3E0FCA3E0FDA3E0FEF8
:10202D00A3E0FF78081203B8AD07D007121E029087
:0F203D000091E02402FFA3A3A3A3E0FD021E0273
:0B1A5200900076E075F032A42405FF40
:061A5D00900091EFF0FB88
:101A6300A31203EA00000000AF03121D63E4FCFDB0
:101A7300FE9000921203DE900092E0FCA3E0FDA32F
:101A8300E0FEA3E0FF78081203CB9000921203DE7E
:101A9300900092E0F8A3E0F9A3E0FAA3E0FBC00012
:101AA300C001C002C003900091E004FF121D63E473
:101AB300FCFDFED003D002D001D000EB2FFFEE3AA5
:101AC300FEED39FDEC38FC9000921203DE9000929B
:101AD300E0FCA3E0FDA3E0FEA3E0FF78081203CB44
:101AE3009000921203DE900092E0F8A3E0F9A3E0E5
:101AF300FAA3E0FBC000C001C002C003900091E064
:101B03002402FF121D63E4FCFDFED003D002D001CA
:101B1300D000EB2FFFEE3AFEED39FDEC38FC9000E0
:101B2300921203DE900092E0FCA3E0FDA3E0FEA38B
:021B3300E0FFD1
:011B3500228D
:0A12A80090008FEDF090008EEFF043
:1012B200E4900090F0C00790007BE0FCA3E0FDA367
:1012C200E0FEA3E0FF9000921203DED007121FFDA2
:1012D20090008EE02403FFC007900072E0FCA3E0C0
:1012E200FDA3E0FEA3E0FF9000921203DED00712FE
:1012F2001FFD90008EE0FF121A5D90008FE025E046
:1013020025E0240BF582E43400F5831203DE90001D
:101312008EE02403FF121A5D90008FE0FB25E0258A
:10132200E02427F582E43400F5831203DEEB25E0A6
:1013320025E0240BF582E43400F583E0FCA3E0FD14
:10134200A3E0FEA3E0FF90007BE0F8A3E0F9A3E0B6
:10135200FAA3E0FBC31203A760030215B390008F48
:10136200E0FF6401701BEF25E025E0240BF582E429
:101372003400F583E0FCA3E0FDA3E0FEA3E0FF80E0
:101382004190008FE0FF25E025E02407F582E43458
:1013920000F583E0F8A3E0F9A3E0FAA3E0FBEF2570
:1013A200E025E0240BF582E43400F583E0FCA3E0C1
:1013B200FDA3E0FEA3E0C39BFFEE9AFEED99FDECD8
:1013C20098FCE41202C490008FE0FB25E025E024A3
:1013D2004BF582E43400F5831203DEEB25E025E0D1
:1013E200244BF582E43400F583C083C082E0FCA381
:1013F200E0FDA3E0FEA3E0FFC004C005C006C007F5
:1014020090008FE0FF25E025E02423F582E43400FC
:10141200F583E0F8A3E0F9A3E0FAA3E0FBEF25E00F
:1014220025E02427F582E43400F583E0FCA3E0FD07
:10143200A3E0FEA3E0C39BFFEE9AFEED99FDEC98BC
:10144200FCE41202C4A804A905AA06AB07D007D07F
:1014520006D005D004120227D082D0831203DEE424
:101462007F64FEFDFC900007E0F8A3E0F9A3E0FA38
:10147200A3E0FBD31203A750089000697404F08024
:101482006FE47FE87E03FDFC900007E0F8A3E0F93B
:10149200A3E0FAA3E0FBD31203A7500890006974FB
:1014A20003F0804CE47F107E27FDFC900007E0F8FB
:1014B200A3E0F9A3E0FAA3E0FBD31203A75008903C
:1014C20000697402F080297FA07E867D017C0090F5
:1014D2000007E0F8A3E0F9A3E0FAA3E0FBD31203CC
:1014E200A750089000697401F08005E4900069F04B
:1014F2007FAA12000390008FE0F925E025E0240B7B
:10150200F582E43400F583E0FCA3E0FDA3E0FEA352
:10151200E0FF78101203B8AB07EB24AAFAE925E042
:1015220025E0240FF582E43400F583E0FCA3E0FD1E
:10153200A3E0FEA3E0FF78081203B8EA2FFAE92538
:10154200E025E0240BF582E43400F583A3A3A3E0B5
:101552002AFF900069E02F900067F0AF03120003AA
:1015620090008FE025E025E0240BF582E43400F5BD
:1015720083E0FCA3E0FDA3E0FEA3E0FF78081203F2
:10158200B812000390008FE025E025E0240BF582DD
:10159200E43400F583A3A3A3E0FF120003900069E3
:1015A200E0FF120003900067E0FF1200037F0D804E
:0615B200027F4E1200034F
:0115B8002210
:10204C007FAA12000390006AE0FCA3E0FDA3E0FE6F
:10205C00A3E0FF78101203B812000390006AE0FCB2
:10206C00A3E0FDA3E0FEA3E0FF78081203B8120082
:10207C000390006AA3A3A3E0FF120003900069E0A1
:09208C00FF1200037F0D020003A6
:100BBB00E490008FF0900076E075F032A404FF1201
:100BCB001D63900084EFF0E01313540390007FF04B
:100BDB00900076E075F032A42402FF121A5D9000AB
:100BEB00071203DE121A5290000B1203DE900076EE
:100BFB00E075F032A42408FF121A5D90002712034F
:100C0B00DE900076E075F032A4240BFF121A5D9093
:100C1B00000F1203DE900076E075F032A4240EFF75
:100C2B00121A5D90002B1203DE900076E075F03205
:100C3B00A42411FF121A5D9000131203DE900076AC
:100C4B00E075F032A42414FF121A5D90002F1203EA
:100C5B00DE900076E075F032A42417FF121A5D9037
:100C6B0000171203DE900076E075F032A4241AFF11
:100C7B00121A5D9000331203DE900076E075F032AD
:100C8B00A4241DFF121A5D90001B1203DE90007648
:100C9B00E075F032A42420FF121A5D900037120386
:100CAB00DE900076E075F032A42423FF121A5D90DB
:100CBB00001F1203DE900076E075F032A42426FFAD
:100CCB00121A5D90003B1203DE900076E075F03255
:100CDB00A42429FF121A5D9000231203DE900076E4
:100CEB00E075F032A4242CFF121A5D90003F120322
:100CFB00DE900027E0FCA3E0FDA3E0FEA3E0FFA352
:100D0B00E0F8A3E0F9A3E0FAA3E0FBD31203A740BA
:100D1B007090000FE0FCA3E0FDA3E0FEA3E0FFE476
:100D2B001202C490004F1203DE90004FE0FCA3E0D0
:100D3B00FDA3E0FEA3E0FFC004C005C006C0079002
:100D4B000027E0F8A3E0F9A3E0FAA3E0FBA3E0FCA3
:100D5B00A3E0FDA3E0FEA3E0C39BFFEE9AFEED999B
:100D6B00FDEC98FCE41202C4A804A905AA06AB0783
:100D7B00D007D006D005D00412022790004F1203E3
:100D8B00DE90008F7401F090008FE0FFC39406405B
:100D9B0003020EC1EF25E025E02427F582E43400A1
:100DAB00F583E0F8A3E0F9A3E0FAA3E0FBEF25E07D
:100DBB0025E0242BF582E43400F583E0FCA3E0FD71
:100DCB00A3E0FEA3E0FFC31203A74003020EB890FB
:100DDB00008FE0FF25E025E0240BF582E43400F5DD
:100DEB0083E0F8A3E0F9A3E0FAA3E0FBEF25E0250D
:100DFB00E0240FF582E43400F583E0FCA3E0FDA3CF
:100E0B00E0FEA3E0C39BFFEE9AFEED99FDEC98FC90
:100E1B00E41202C490008FE0FB25E025E0244FF59F
:100E2B0082E43400F5831203DEEB25E025E0244F4A
:100E3B00F582E43400F583C083C082E0FCA3E0FDBF
:100E4B00A3E0FEA3E0FFC004C005C006C0079000EE
:100E5B008FE0FF25E025E02427F582E43400F583BD
:100E6B00E0F8A3E0F9A3E0FAA3E0FBEF25E025E02F
:100E7B00242BF582E43400F583E0FCA3E0FDA3E032
:100E8B00FEA3E0C39BFFEE9AFEED99FDEC98FCE40C
:100E9B001202C4A804A905AA06AB07D007D006D036
:100EAB0005D004120227D082D0831203DE90008F6C
:100EBB00E004F0020D92E47F64FEFDFC900007E07D
:100ECB00F8A3E0F9A3E0FAA3E0FBD31203A75007C2
:100EDB009000697404F022E47FE87E03FDFC90002F
:100EEB0007E0F8A3E0F9A3E0FAA3E0FBD31203A712
:100EFB0050079000697403F022E47F107E27FDFCFD
:100F0B00900007E0F8A3E0F9A3E0FAA3E0FBD3120B
:100F1B0003A750079000697402F0227FA07E867DA4
:100F2B00017C00900007E0F8A3E0F9A3E0FAA3E04E
:100F3B00FBD31203A750079000697401F022E490D1
:030F4B000069F04A
:010F4E002280
:101B3600900027E0FCA3E0FDA3E0FEA3E0FF9000F9
:101B460072E0F8A3E0F9A3E0FAA3E0FBD31203A73F
:101B56004027900027E0F8A3E0F9A3E0FAA3E0FB12
:101B6600900072E0FCA3E0FDA3E0FEA3E09BFFEE85
:101B76009AFEED99FDEC988033900072E0F8A3E0B0
:101B8600F9A3E0FAA3E0FB900027E0FCA3E0FDA3A5
:101B9600E0FEA3E0C39BFFEE9AFEED99FDEC98FCF8
:101BA600E42FFFE43EFEED3480FDE43CFC90007B38
:101BB6001203DE900076E075F032A42405FFC0071C
:101BC60090007BE0FCA3E0FDA3E0FEA3E0FF900015
:101BD600921203DED007121FFD121A5290000B124A
:101BE60003DE90007BE0FCA3E0FDA3E0FEA3E0FFA4
:101BF60090000BE0F8A3E0F9A3E0FAA3E0FBC31220
:0E1C060003A770047F5980027F4E1200032254
:1015B900E490008EF0120BBB900007E0FCA3E0FD65
:1015C900A3E0FEA3E0FF78101203B8EF24AAFB9072
:1015D9000007E0FCA3E0FDA3E0FEA3E0FF7808120A
:1015E90003B8EB2FFB900007A3A3A3E02BFF900008
:1015F90084E02F900067F07FAA120003900084E036
:10160900FF120003900007E0FCA3E0FDA3E0FEA3A6
:10161900E0FF78101203B8120003900007E0FCA362
:10162900E0FDA3E0FEA3E0FF78081203B81200036F
:10163900900007A3A3A3E0FF120003E490008EF03B
:1016490090008EE0F9C3940640030216FFE0FB25E3
:10165900E025E0240FF582E43400F583E0FCA3E003
:10166900FDA3E0FEA3E0FF78081203B8AA07EB2563
:10167900E025E0240FF582E43400F583E0FCA3E0E3
:10168900FDA3E0FEA3E0FF78101203B8AB07EB2A35
:10169900FAE925E025E0240FF582E43400F583A377
:1016A900A3A3E02AFF900067E02FF0AF0312000325
:1016B90090008EE025E025E0240FF582E43400F562
:1016C90083E0FCA3E0FDA3E0FEA3E0FF780812039A
:1016D900B812000390008EE025E025E0240FF58282
:1016E900E43400F583A3A3A3E0FF12000390008E66
:1016F900E004F0021649900067E0FF1200037F0D35
:03170900020003D8
:1007F800900000E020E703020BBAE0547FF090007D
:1008080001E0FFD394005003020BBAC2AFEFB43F2C
:1008180006121B36020BB3900001E0643C701B7F8C
:10082800AA120003900003E05407FF12000390008F
:1008380003E0540724AAFF020A53900001E0B43DE4
:10084800061215B9020BB3900001E0FDB43E0A9000
:100858000077E04408F0020BB3ED640170319000BA
:1008680044E02408FDE4FF121E02E4FF121D639019
:100878000003EFF0900044E02408FFE433FE90000A
:1008880003E0B50707E4B50603020B22020A5B90F2
:100898000001E0FFC394075046EF75F032A4249D91
:1008A800FF900044E0FD121E02900001E075F03256
:1008B800A4249DFF121D63900084EFF0900044E093
:1008C800FF900084E0B507147F591200039000845C
:1008D800E01313540390007FF0020BB3020A5B90FD
:1008E8000001E0FFC3940C4003020A60EF75F03288
:1008F800A424A4FFC00790007BE0FCA3E0FDA3E0D4
:10090800FEA3E0FF9000921203DED007121FFD90B5
:100918000001E075F032A424A4FF121A5D900007CC
:100928001203DE90007BE0FCA3E0FDA3E0FEA3E061
:10093800FF900007E0F8A3E0F9A3E0FAA3E0FBC307
:100948001203A76003020A5B7F64FEFDFC900007A8
:10095800E0F8A3A3A3E0D31203A75008900069749A
:1009680004F0806EE47FE87E03FDFC900007E0F869
:10097800A3E0F9A3E0FAA3E0FBD31203A750089081
:1009880000697403F0804BE47F107E27FDFC900023
:1009980007E0F8A3E0F9A3E0FAA3E0FBD31203A76A
:1009A80050089000697402F08028E47F107E27FDCB
:1009B800FC900007E0F8A3E0F9A3E0FAA3E0FBD37A
:1009C8001203A750089000697401F08005E49000B4
:1009D80069F07FAA120003900007E0FCA3E0FDA3E2
:1009E800E0FEA3E0FF78101203B8AB07EB24AAFAE5
:1009F800900007E0FCA3E0FDA3E0FEA3E0FF780879
:100A08001203B8EA2FFA900007A3A3A3E02AFF90E5
:100A18000069E02F900067F0AF0312000390000711
:100A2800E0FCA3E0FDA3E0FEA3E0FF78081203B812
:100A3800120003900007A3A3A3E0FF120003900095
:100A480069E0FF120003900067E0FF1200037F0DCA
:100A5800020B287F4E020B28900001E0FFC394117F
:100A68004003020B2EEF75F032A424ADFFC00790AF
:100A780000921203EA00000000D007121FFD900048
:100A880001E075F032A424ADFF121A5D90000B123C
:100A980003DE900072E0FCA3E0FDA3E0FEA3E0FF0C
:100AA80090006E1203DE900001E075F032A424B0CD
:100AB800FFC00790006EE0FCA3E0FDA3E0FEA3E00A
:100AC800FF9000921203DED007121FFD900001E094
:100AD80075F032A424B0FF121A5D9000271203DECD
:100AE80090006EE0FCA3E0FDA3E0FEA3E0FF900011
:100AF80027E0F8A3E0F9A3E0FAA3E0FBC31203A7F9
:100B0800701CFFFEFDFC90000BE0F8A3E0F9A3E0E9
:100B1800FAA3E0FBC31203A770047F5980027F4E3B
:100B2800120003020BB3900001E0FFC39416500CAF
:100B3800EF75F032A424B9FF7D01806C900001E0CC
:100B4800FFC3941B500CEF75F032A424C5FF7D023F
:100B58008056900001E0FFC39420500CEF75F032EE
:100B6800A424D1FF7D038040900001E0FFC39425B9
:100B7800500CEF75F032A424DDFF7D04802A90002C
:100B880001E0FFC3942A500CEF75F032A424E9FF6A
:100B98007D058014900001E0FFC3942F500DEF7580
:100BA800F032A424F5FF7D061212A8E4900001F0AB
:030BB800D2AF2297
:10041B0090000BA3E0FDA3A3E4FFFEED5480FDE4ED
:10042B00FCFBFAF9F8C31203A790000B5028A3E0CA
:10043B00FDA3E0FEA3E0FFED547FFDE4FC90007212
:10044B00E0F8A3E0F9A3E0FAA3E02FFFEA3EFEE910
:10045B003DFDEC388023E0F8A3E0F9A3E0FAA3E03C
:10046B00FB900072E0FCA3E0FDA3E0FEA3E0C39BC6
:10047B00FFEE9AFEED99FDEC98FC9000801203DEE6
:10048B00900027E0FCA3E0FDA3E0FEA3E0FF9000BB
:10049B0080E0F8A3E0F9A3E0FAA3E0FBC31203A703
:1004AB005052900080E0F8900027E0FCA3E0FDA301
:1004BB00E0FEA3E0C39BFFEE9AFEED99FDEC98FCEA
:1004CB00E41202C490004FE0F8A3E0F9A3E0FAA312
:1004DB00E0FB12011E12030290006A1203DE900071
:1004EB006AE0FCA3E0FDA3E0FEA3E0FFED4480FD8A
:1004FB00EC0207CD90002BE0FCA3E0FDA3E0FEA3F4
:10050B00E0FF900080E0F8A3E0F9A3E0FAA3E0FBA2
:10051B00C31203A75042900027E0F8A3E0F9A3E031
:10052B00FAA3E0FB900080E0FCA3E0FDA3E0FEA3B8
:10053B00E0C39BFFEE9AFEED99FDEC98FCE41202F2
:10054B00C490004FE0F8A3E0F9A3E0FAA3E0FB129C
:10055B00011E1203020207CD90002FE0FCA3E0FD69
:10056B00A3E0FEA3E0FF900080E0F8A3E0F9A3E096
:10057B00FAA3E0FBC31203A7506790002BE0F8A38C
:10058B00E0F9A3E0FAA3E0FB900080E0FCA3E0FD20
:10059B00A3E0FEA3E0C39BFFEE9AFEED99FDEC9862
:1005AB00FCE41202C4900053E0F8A3E0F9A3E0FAD4
:1005BB00A3E0FB12011EC004C005C006C0079000DB
:1005CB000FE0FCA3E0FDA3E0FEA3E0FFE41202C4F6
:1005DB00D003D002D001D00012002D12030202076B
:1005EB00CD900033E0FCA3E0FDA3E0FEA3E0FF9081
:1005FB000080E0F8A3E0F9A3E0FAA3E0FBC3120349
:10060B00A7506790002FE0F8A3E0F9A3E0FAA3E06E
:10061B00FB900080E0FCA3E0FDA3E0FEA3E0C39B06
:10062B00FFEE9AFEED99FDEC98FCE41202C49000EB
:10063B0057E0F8A3E0F9A3E0FAA3E0FB12011EC018
:10064B0004C005C006C007900013E0FCA3E0FDA3A7
:10065B00E0FEA3E0FFE41202C4D003D002D001D02D
:10066B000012002D1203020207CD900037E0FCA30D
:10067B00E0FDA3E0FEA3E0FF900080E0F8A3E0F92B
:10068B00A3E0FAA3E0FBC31203A75067900033E08B
:10069B00F8A3E0F9A3E0FAA3E0FB900080E0FCA351
:1006AB00E0FDA3E0FEA3E0C39BFFEE9AFEED99FDF8
:1006BB00EC98FCE41202C490005BE0F8A3E0F9A311
:1006CB00E0FAA3E0FB12011EC004C005C006C00780
:1006DB00900017E0FCA3E0FDA3E0FEA3E0FFE41213
:1006EB0002C4D003D002D001D00012002D1203029D
:1006FB000207CD90003BE0FCA3E0FDA3E0FEA3E0EE
:10070B00FF900080E0F8A3E0F9A3E0FAA3E0FBC3BD
:10071B001203A75049900037E0F8A3E0F9A3E0FAE1
:10072B00A3E0FB900080E0FCA3E0FDA3E0FEA3E0D0
:10073B00C39BFFEE9AFEED99FDEC98FCE41202C40C
:10074B0090005FE0F8A3E0F9A3E0FAA3E0FB12014D
:10075B001EC004C005C006C00790001B8047900058
:10076B003BE0F8A3E0F9A3E0FAA3E0FB900080E004
:10077B00FCA3E0FDA3E0FEA3E0C39BFFEE9AFEED1E
:10078B0099FDEC98FCE41202C4900063E0F8A3E03E
:10079B00F9A3E0FAA3E0FB12011EC004C005C006DA
:1007AB00C00790001FE0FCA3E0FDA3E0FEA3E0FF69
:1007BB00E41202C4D003D002D001D00012002D12DB
:1007CB00030290006A1203DEE47F32FEFDFC900010
:1007DB006AE0F8A3E0F9A3E0FAA3E0FBC31203A7D6
:0D07EB00500A90006A1203EA00000000228C
:101CC00020950CE4900006F0900077E054EFF0903F
:101CD0000077E020E055E020E41EA3E030E206E0DB
:101CE00054FBF0B290900078E0547FF0C281C29231
:101CF000900077E054F7F022900078E020E729E0A8
:101D00004480F0D292E490007AF090007AE0C3949C
:101D10001440F7D281E4900076F0C2AF120BBBD230
:101D2000AF900077E04408F0D29022900078E03045
:101D3000E206E054FBF0B290900078E030E106E07B
:101D400054FDF0B291900078E020E716E04480F076
:101D5000D292E490007AF090007AE0C3941440F7B5
:031D6000D281220B
:10214900900078E020E00B900077E020E204E03096
:10215900E00E900078E030E109E054FDF0B2912200
:03216900D29122EE
:10212100900005E030E404E020E509900079E0D377
:1021310094F040139000047401F0C290C291C280E7
:08214100900005E054DFF022DC
:101E9E00900005E030E407209104D280D2919000AA
:101EAE0005E030E42130B01EE054EFF0E490007A0B
:101EBE00F090007AE0C3941440F79000047402F09E
:101ECE00900068743AF0900005E030E614E030E5DA
:101EDE0010900077E04401F0900005E054DFF0D25E
:101EEE0090900005E030E62130B01EE054BFF0E4E3
:101EFE0090007AF090007AE0C3941440F7900004BA
:0A1F0E007402F0900068743AF022AB
:1020C900900077E020E21EA3E030E61DE054BFF067
:1020D90030811612170C12041B900077E030E309C7
:0F20E90012204C8004C292C281121CC00221211D
:10222B00900004E024FE600724027006021E9E123A
:03223B0020C92295
:0421A10041009B005E
:10195F00900005E0540714603F1460671470030291
:10196F001A0E147003021A34147003021A4A240553
:10197F006003021A51900005E054F820B01844019A
:10198F00F0E490009BF0900005E054F7F0E054EF86
:10199F00F0E054DFF022F02290009BE0D39402504D
:1019AF0003021A51900005E054F820B0144402F0DD
:1019BF00E490009BF0900005E04408F0E04420F034
:1019CF0022F02290009BE0D39402401130B00E9091
:1019DF000005E054F84403F0E490009BF090009B66
:1019EF00E0D39446405C20B059900005E054F84491
:1019FF0003F0E490009BF0900005E04410F022907B
:101A0F00009BE0FDD39405403930B0028023EDD325
:101A1F0094D2402E20B02B900005E054F84404F0EF
:101A2F00E04440F02290009BE0D39405401430B086
:101A3F0011900005E054F84405F022900005E054A1
:031A4F00F8F0228A
:0421A50041008D0068
:10000E0000000000000000000000000000000000E2
:05001E000000000022BB
:10170C00C2839000851203EA000000003084099027
:10171C000077E04402F080F4900077E054FDF0E0B4
:10172C0054FBF0E490004EF090008DF0900085E0BA
:10173C00FCA3E0FDA3E0FEA3E0FF78011203CB9035
:10174C0000851203DED28312000E308417900085C0
:10175C00E0FCA3E0FDA3E0FEA3E04401FFEC90005D
:10176C00851203DEC28312000E90008DE004F0E0BF
:10177C00C3941840B7D28312000EC283900078E055
:10178C0030E40EE054EFF012000ED28312000EC2C1
:10179C0083900085E0FCA3E0FDA3E0FEA3E0FFED59
:1017AC006480FDEC9000851203DE900072E0FCA3D7
:1017BC00E0FDA3E0FEA3E0FF9000891203DE9000A1
:1017CC0085E0FCA3E0FDA3E0FEA3E0FF90007FE03A
:1017DC002404F9F81203B89000721203DE90007220
:1017EC00E0FCA3E0FDA3E0FEA3E0FBAA06A905A88C
:1017FC0004900089E0FCA3E0FDA3E0FEA3E0C39B02
:10180C00FFEE9AFEED99FDEC98FC122259E47B0256
:10181C00FAF9F8D31203914036900089E0FCA3E06A
:10182C00FDA3E0FEA3E0FF900072E0F8A3E0F9A3B3
:10183C00E0FAA3E0FBD31203A74014900089E0FC6C
:10184C00A3E0FDA3E0FEA3E0FF9000721203DE22F2
:1020950053E8F0EF42E843E101C2EFD2EE30EFFD45
:1020A500AFC27E00EF7802CEC313CE13D8F9FDACD4
:1020B50006AFC3EF75F004A42DFDE5F03C53E1FE3A
:0320C500FEAF0566
:0120C80022F5
:101F1800900078E030E56BE054DFF0E4FF122095A4
:101F2800900096EEF0A3EFF07F04122095A3EEF058
:101F3800A3EFF0900096E0FCA3E0FDC39430EC948E
:101F480002400E900099E09430900098E09402507E
:101F58000B900078E020E004E04401F0900078E085
:101F680030E01FD3ED9444EC94024016D3900097D0
:101F7800E09444900096E094024007900078E05482
:031F8800FEF02246
:1021AA00E5BD7016900078E04408F0D2C4C2C3308E
:0B21BA00C308C2C6D2C6C2C3C2C62200
:101D6300D2C5C2C330C3FDE5BD640860028060C252
:101D7300C575BCA0C2C330C3FDE5BD641860028055
:101D83004E8FBCC2C330C3FDE5BD64286002803FF3
:101D9300D2C5C2C330C3FDE5BD641060028030C24A
:101DA300C575BCA1C2C330C3FDE5BD6440600280FC
:101DB3001ED2C2C2C330C3FDE5BD64506002800FB2
:101DC300AEBCC2C2C2C330C3FDE5BD645860099056
:101DD3000078E04408F08011C2C3D2C430C40A12B0
:101DE30021AA900078E030E3F3900078E030E30C30
:0E1DF3001221AA900078E054F7F0AEBDAF06C2
:011E010022BE
:101E0200D2C5C2C330C3FDE5BD640860028052C2C0
:101E1200C575BCA0C2C330C3FDE5BD6418600280B5
:101E2200408FBCC2C330C3FDE5BD6428600280316F
:101E3200AF058FBCC2C330C3FDE5BD64286002801C
:101E420020D2C4C2C330C40C1221AA900078E03060
:101E5200E3F38036D2C5C2C330C3FDE5BD6408607A
:101E620009900078E04408F08020C2C575BCA0C289
:101E7200C330C3FDE5BDB418C8D2C4C2C330C40A5E
:101E82001221AA900078E030E3F3900078E030E38A
:0B1E92000A1221AA900078E054F7F03B
:011E9D002222
:1000260002036EE86480F8E933E83360110460F097
:10003600ED33EC337009E8FCE9FDEAFEEBFF220440
:1000460060DED3EB9FEA9EE99DE8C2E78CF0C2F73B
:1000560095F0400CE8CCF8E9CDF9EACEFAEBCFFB07
:1000660012033985D0F05804700320D5B3E8047024
:10007600075002B2D502037892D5EC0460F7E4CCBF
:10008600C0E0C398F8603B94186008400DD0E0FBD0
:10009600020350E4FBFAC9FC8028E830E406E4C910
:1000A600FBE4CAFCE830E305E4C9CACBFCE8540724
:1000B6006010F8C3E913F9EA13FAEB13FBEC13FC2F
:1000C600D8F130F52FC3E49CFCEF9BFFEE9AFEEDD2
:1000D60099FDD0E0FBEF4E4D4C701222DB0302037C
:1000E60075EC2CFCEF33FFEE33FEED33FDED30E720
:1000F600EB020350EF2BFFEE3AFEED39FDD0E0FBAD
:1001060050130BBB0003020378ED13FDEE13FEEF55
:0801160013FFEC13FC0203507F
:10011E00EC4D6011E8497017ED33EC3304600DE4DB
:10012E00FCFFFEFD22E933E8330470F802036E1281
:10013E00033958046009E4CC248150062850090282
:10014E000378284003020375C0E0EB4A7044B9807F
:10015E0006D0E0FB020364EF4E701CBD8008EBFF7F
:10016E00EAFEE9FD80EBE98DF0A4FEE5F002020760
:10017E00E9CDF9EAFEEBFFEF89F0A4FCE5F0CE89BC
:10018E00F0A42EFFE435F0CD89F0A42DFEE435F079
:10019E008067EF4E7005BD80D780C3EF8BF0A4ACA7
:1001AE00F0EE8BF0A42CFCE435F0F8EF8AF0A42CE2
:1001BE00E5F038FCE433CB8DF0A42CFCE5F03BF8F5
:1001CE00EE8AF0A42CFCE5F038F8E433CF89F0A4E5
:1001DE002CFCE5F038CF3400CE89F0A42FFFE5F0EB
:1001EE003EFEE433C98DF0A42EFEE5F039CD8AF043
:1001FE00A42FFFE5F03EFEE43DFD33D0E0FB5007BB
:10020E000BBB000F020378EC2CFCEF33FFEE33FE3A
:06021E00ED33FD02035068
:10022400020378EC5D046005E85904700302036E70
:10023400120339580460F6EC4860F2EC7004FDFED9
:10024400FF22C860DB2481C85009C39860025006AD
:100254000203759850CAF582E9294B4A7005AB82AE
:1002640002036475F0007C1A7880C3EF9BEE9AED6C
:1002740099400DC3EF9BFFEE9AFEED99FDE842F025
:10028400DC23ACF0D0E0FFD0E0FED0E0FDAB822078
:10029400E7101BEB60BAEC2CFCEF33FFEE33FEED02
:1002A40033FD020350E803F830E705C0F075F000B1
:1002B400EF2FFFEE33FEED33FD40B830E7C280AAE6
:1002C40075F020800E75F010800575F0087D007EB5
:1002D400007F003392D530D503120383EC334010F2
:1002E400EF33FFEE33FEED33FDEC33FCD5F0ED22BE
:0E02F400E5F0247EA2D513CC92E7CDCEFF22FA
:10030200EDD2E7CD33EC3392D524814006E4FFFEF3
:10031200FDFC22FCE4CFCECDCC24E0501174FF8052
:10032200EDC3CC13CCCD13CDCE13CECF13CF0470EF
:07033200F030D5DE02038369
:10033900E9D2E7C933E833F892D5EDD2E7CD33EC0A
:0703490033FC5002B2D52283
:10035000EC30E7100FBF000C0EBE00080DBD00040E
:100360000BEB6014A2D5EB13FCED92E7FD2274FFBA
:10037000FCFDFEFF22E480F8A2D574FF13FC7D8013
:03038000E480EF27
:101C400002223EE493A3F8E493A34003F68001F25A
:101C500008DFF48029E493A3F85407240CC8C333A5
:101C6000C4540F4420C8834004F456800146F6DF74
:101C7000E4800B010204081020408090218DE47E56
:101C8000019360BCA3FF543F30E509541FFEE49369
:101C9000A360010ECF54C025E060A840B8E493A330
:101CA000FAE493A3F8E493A3C8C582C8CAC583CA5B
:101CB000F0A3C8C582C8CAC583CADFE9DEE780BE13
:0121A9000035
:0E038300C3E49FFFE49EFEE49DFDE49CFC228B
:10039100EB9FF5F0EA9E42F0E99D42F0EC6480C8E3
:0603A10064809845F02283
:1003A700EB9FF5F0EA9E42F0E99D42F0E89C45F0AC
:0103B7002223
:1003B800E8600FECC313FCED13FDEE13FEEF13FF23
:0303C800D8F12247
:1003CB00E8600FEFC333FFEE33FEED33FDEC33FC90
:0303DB00D8F12234
:0C03DE00ECF0A3EDF0A3EEF0A3EFF02292
:1003EA00A8828583F0D083D08212040112040112FC
:1003FA000401120401E473E493A3C583C5F0C58321
:10040A00C8C582C8F0A3C583C5F0C583C8C582C85C
:01041A0022BF
:08225900EC30E70312038322BD
:00000001FF
